{"contracts/Market.sol":{"Market":{"abi":[{"inputs":[],"stateMutability":"nonpayable","type":"constructor"},{"anonymous":false,"inputs":[{"indexed":false,"internalType":"uint256","name":"houseId","type":"uint256"},{"indexed":false,"internalType":"address","name":"houseContract","type":"address"},{"indexed":false,"internalType":"address","name":"seller","type":"address"},{"indexed":false,"internalType":"address","name":"owner","type":"address"},{"indexed":false,"internalType":"uint256","name":"price","type":"uint256"},{"indexed":false,"internalType":"bool","name":"listed","type":"bool"}],"name":"HouseListed","type":"event"},{"anonymous":false,"inputs":[{"indexed":false,"internalType":"uint256","name":"houseId","type":"uint256"},{"indexed":false,"internalType":"address","name":"houseContract","type":"address"},{"indexed":false,"internalType":"address","name":"seller","type":"address"},{"indexed":false,"internalType":"address","name":"owner","type":"address"},{"indexed":false,"internalType":"uint256","name":"price","type":"uint256"},{"indexed":false,"internalType":"bool","name":"listed","type":"bool"}],"name":"HouseSold","type":"event"},{"inputs":[{"internalType":"address","name":"_houseContract","type":"address"},{"internalType":"uint256","name":"_houseId","type":"uint256"}],"name":"buyHouse","outputs":[],"stateMutability":"payable","type":"function"},{"inputs":[],"name":"getListedHouses","outputs":[{"components":[{"internalType":"uint256","name":"houseId","type":"uint256"},{"internalType":"address","name":"houseContract","type":"address"},{"internalType":"address payable","name":"seller","type":"address"},{"internalType":"address payable","name":"owner","type":"address"},{"internalType":"uint256","name":"price","type":"uint256"},{"internalType":"bool","name":"listed","type":"bool"}],"internalType":"struct Market.House[]","name":"","type":"tuple[]"}],"stateMutability":"view","type":"function"},{"inputs":[{"internalType":"uint256","name":"_price","type":"uint256"}],"name":"getListingFee","outputs":[{"internalType":"uint256","name":"","type":"uint256"}],"stateMutability":"pure","type":"function"},{"inputs":[],"name":"getMarketOwner","outputs":[{"internalType":"address","name":"","type":"address"}],"stateMutability":"view","type":"function"},{"inputs":[],"name":"getMarketOwnerBalance","outputs":[{"internalType":"uint256","name":"","type":"uint256"}],"stateMutability":"view","type":"function"},{"inputs":[],"name":"getMyHouses","outputs":[{"components":[{"internalType":"uint256","name":"houseId","type":"uint256"},{"internalType":"address","name":"houseContract","type":"address"},{"internalType":"address payable","name":"seller","type":"address"},{"internalType":"address payable","name":"owner","type":"address"},{"internalType":"uint256","name":"price","type":"uint256"},{"internalType":"bool","name":"listed","type":"bool"}],"internalType":"struct Market.House[]","name":"","type":"tuple[]"}],"stateMutability":"view","type":"function"},{"inputs":[],"name":"getMyListedHouses","outputs":[{"components":[{"internalType":"uint256","name":"houseId","type":"uint256"},{"internalType":"address","name":"houseContract","type":"address"},{"internalType":"address payable","name":"seller","type":"address"},{"internalType":"address payable","name":"owner","type":"address"},{"internalType":"uint256","name":"price","type":"uint256"},{"internalType":"bool","name":"listed","type":"bool"}],"internalType":"struct Market.House[]","name":"","type":"tuple[]"}],"stateMutability":"view","type":"function"},{"inputs":[{"internalType":"address","name":"_houseContract","type":"address"},{"internalType":"uint256","name":"_houseId","type":"uint256"},{"internalType":"uint256","name":"_price","type":"uint256"}],"name":"listHouse","outputs":[],"stateMutability":"payable","type":"function"}],"evm":{"bytecode":{"linkReferences":{},"object":"60806040523480156200001157600080fd5b5060016000819055506200004e7f849dd17fbc06fc5f2844b790b387f4cc79b98f5d477f36d7f37da9d7b4d8abcf60001b620000fd60201b60201c565b620000827fdac083fce3ec32e77b047c23a9bd400dcec0427947fa1ddf33190e7faf72219860001b620000fd60201b60201c565b620000b67f9aa4aacd3ee7466bb4ca6cdb6b8fde067ed3227eb17f8dc552fa2c5ea702ceb560001b620000fd60201b60201c565b33600360006101000a81548173ffffffffffffffffffffffffffffffffffffffff021916908373ffffffffffffffffffffffffffffffffffffffff16021790555062000100565b50565b61340c80620001106000396000f3fe60806040526004361061007b5760003560e01c806398ac22111161004e57806398ac22111461012f578063b14f1afd1461015a578063cc864fb114610185578063f4dcb9c1146101a15761007b565b8063451e9cf01461008057806362e19cc8146100ab57806372f2bdf4146100e8578063763a055914610104575b600080fd5b34801561008c57600080fd5b506100956101cc565b6040516100a29190612b2b565b60405180910390f35b3480156100b757600080fd5b506100d260048036038101906100cd9190612b81565b610412565b6040516100df9190612bbd565b60405180910390f35b61010260048036038101906100fd9190612c04565b610518565b005b34801561011057600080fd5b50610119610ba3565b6040516101269190612bbd565b60405180910390f35b34801561013b57600080fd5b50610144610e00565b6040516101519190612dc8565b60405180910390f35b34801561016657600080fd5b5061016f611655565b60405161017c9190612dc8565b60405180910390f35b61019f600480360381019061019a9190612dea565b611e38565b005b3480156101ad57600080fd5b506101b6612412565b6040516101c39190612dc8565b60405180910390f35b60006101fa7f1709d0dc3e8f0108ee965290afdcbb186988b12ea656d06097c88d4e095a988760001b6129f0565b6102267fcf9dadd561f2ad5c1f8c2fe5c1ace334567f838bc2aacedb2c3aee147a60857460001b6129f0565b6102527f2765e3237b5e34587e16c476b99ab98c017eb1bd93ccbbc313f5fb35b941c65b60001b6129f0565b61027e7f790aaba1b688471f8eba3a3f3e2aaf6cf053b8e923ed5d9c245aa7738a65d3ea60001b6129f0565b600360009054906101000a900473ffffffffffffffffffffffffffffffffffffffff1673ffffffffffffffffffffffffffffffffffffffff163373ffffffffffffffffffffffffffffffffffffffff161461030e576040517f08c379a000000000000000000000000000000000000000000000000000000000815260040161030590612ec0565b60405180910390fd5b61033a7f2879b8f95d8c91bb11069723d2cd5cf5350cc330a3d0e5236e700a4a98d65b3960001b6129f0565b6103667f1c7e08574de6c62c5ed974c9671495a4dd8f38a6ae05ea8c9d8dc563ce8ebf9c60001b6129f0565b6103927f4be2a03c1513f7dcfb3c3e4af6116493d8acacc97baad00f4ca92165fa3349c960001b6129f0565b6103be7f1c9b73dae5fc6cfa3b87fe71f0f83de97d4636f52bbd39165ec466225d27cbe860001b6129f0565b6103ea7f26d4dbc68efd2501b8b76c526dd91d783ce2966493d1511d8dc88607265b4f6860001b6129f0565b600360009054906101000a900473ffffffffffffffffffffffffffffffffffffffff16905090565b60006104407fee12f4469ca48dd1c7790891ac54a65baf74c83fcd8408804634c2bf5aebf89460001b6129f0565b61046c7f489c800042dbbbc7b492280fc8eebe9e97096d72e7c2ddac2fae9d391a42390a60001b6129f0565b6104987fdaee4004c02cb9c2da58f626840b8c7bf11fd120fb51c56c22a057ffb8e1478460001b6129f0565b600061271061012c846104ab9190612f0f565b6104b59190612f80565b90506104e37fe939287e794e9f4d8538c0bc90292a62497541fc3959abe81a730d9df4f5997f60001b6129f0565b61050f7fc6ed97ab9a3b7d676a4b89fcb8bcefb3ccd1cc80a12c2702f31f3efe0b92913f60001b6129f0565b80915050919050565b6105206129f3565b61054c7f1ba41c90e37bed943393c295e9cd5937dcc52c96e8c24deb7e89c66d1c77f39860001b6129f0565b6105787ffeddf985e32fbec2a6ac8be29568a23f21eb1893dacc6480b48249d589c0864260001b6129f0565b6105a47f826a48572b0202b29b6fd7d4f8f70f1736b3728aead43aaf35a981cce029336360001b6129f0565b60006004600083815260200190815260200160002090506105e77fc76d313f26a5292264d20b70c8f9d988f70dbc69a6884b334a8ff6dc532bf11d60001b6129f0565b6106137f7773164b727eb990361458815c21ce14d4964e8491821c63b6801e4628620d5460001b6129f0565b60006106228260040154610412565b90506106507fb936470098dcd428477a52ebe218c755c0d4e2f8f74c88b4d71880a51650f5c260001b6129f0565b61067c7f232ffdfd7743d394c22e269254e5c3586153d869a761956c6978309cc64985ff60001b6129f0565b6106a87f0980e2b866a8852f9bba0aab5b59526bddc474ba319625f6fdcf4c1bbcab4b6f60001b6129f0565b816004015434146106ee576040517f08c379a00000000000000000000000000000000000000000000000000000000081526004016106e590612ffd565b60405180910390fd5b61071a7fce0fcf203aef0a7e870c287e6e94a88f88ea8f6b1f9a7bd7b3be8a5a8753a54460001b6129f0565b6107467f438eb7f9585ad84faac5b548f07ef290e3a54cc23d9f89f4962a4352f715921460001b6129f0565b6107727fadf00bff96308e6493d6ebfe6492bbd1221b6e0c03963002912facf4d38cfd6760001b6129f0565b8160020160009054906101000a900473ffffffffffffffffffffffffffffffffffffffff1673ffffffffffffffffffffffffffffffffffffffff166108fc349081150290604051600060405180830381858888f193505050501580156107dc573d6000803e3d6000fd5b506108097f7112d35536d6b96a3c8a4b91650315131928438d714bac9f7bd903bc76e0914760001b6129f0565b6108357f9a51940dcd5e6fc04d2ed82148f6c2215b6e66f23dc18bb9ec8215d98841ef7e60001b6129f0565b8373ffffffffffffffffffffffffffffffffffffffff166323b872dd3033866040518463ffffffff1660e01b81526004016108729392919061301d565b600060405180830381600087803b15801561088c57600080fd5b505af11580156108a0573d6000803e3d6000fd5b505050506108d07f274d1eea632f994d0532b45b54f72dfeb9918cf8f8e82585d3394affbd35e39760001b6129f0565b6108fc7f4be1c54a5d247dc9db246ff12910a070df24d559df655c43a556cc0666cf4c1e60001b6129f0565b338260030160006101000a81548173ffffffffffffffffffffffffffffffffffffffff021916908373ffffffffffffffffffffffffffffffffffffffff16021790555061096b7f77c9f679ccb851b4869d76c61f0b34704bdc421744030801cd32cd22891f425b60001b6129f0565b6109977f55bcea1cd3112572a9e7841bfca94126c5a8759480205cb35676b847771e2cf760001b6129f0565b60008260050160006101000a81548160ff0219169083151502179055506109e07fc1ac6b4101724e77095e7706321a06713b899963210dcab6cbf3fc723030db0e60001b6129f0565b610a0c7f18fc88b83f86ac7e3307aa4a6d98edfe779b9d201da282cc235a266a225c4a9d60001b6129f0565b600360009054906101000a900473ffffffffffffffffffffffffffffffffffffffff1673ffffffffffffffffffffffffffffffffffffffff166108fc829081150290604051600060405180830381858888f19350505050158015610a74573d6000803e3d6000fd5b50610aa17f14c83363914d4285142cd8d52b50fd00155e17f9ad054f7ed07fcd97b116079460001b6129f0565b610acd7f4c05276ba1071e8584eda8edc7ee968b2663fbf1c61dcd776448d92bfa671c7760001b6129f0565b610ad76002612a42565b610b037fe21e32911f5c7edad0ab9081625876b2174d525da5aa08400ebf1d53965e988f60001b6129f0565b610b2f7f575fa7a9031f6deb86027d0dfc947a7eb843d0f531dccb52ff5bf2198075f2ac60001b6129f0565b7fe146f5efc4dd59bbbd2cf0185ec3eca550c5a92b9acc899ac705617d26e27b5b83858460020160009054906101000a900473ffffffffffffffffffffffffffffffffffffffff1633346000604051610b8d969594939291906130c2565b60405180910390a15050610b9f612a58565b5050565b6000610bd17f1709d0dc3e8f0108ee965290afdcbb186988b12ea656d06097c88d4e095a988760001b6129f0565b610bfd7fcf9dadd561f2ad5c1f8c2fe5c1ace334567f838bc2aacedb2c3aee147a60857460001b6129f0565b610c297f2765e3237b5e34587e16c476b99ab98c017eb1bd93ccbbc313f5fb35b941c65b60001b6129f0565b610c557f790aaba1b688471f8eba3a3f3e2aaf6cf053b8e923ed5d9c245aa7738a65d3ea60001b6129f0565b600360009054906101000a900473ffffffffffffffffffffffffffffffffffffffff1673ffffffffffffffffffffffffffffffffffffffff163373ffffffffffffffffffffffffffffffffffffffff1614610ce5576040517f08c379a0000000000000000000000000000000000000000000000000000000008152600401610cdc90612ec0565b60405180910390fd5b610d117f2879b8f95d8c91bb11069723d2cd5cf5350cc330a3d0e5236e700a4a98d65b3960001b6129f0565b610d3d7f1c7e08574de6c62c5ed974c9671495a4dd8f38a6ae05ea8c9d8dc563ce8ebf9c60001b6129f0565b610d697f847271213f84827f61b7db5b7691d6d8c5cb28c4bfe34c3bcb6f26f8023c671b60001b6129f0565b610d957fa7a5f01aa3d314af3589737f9142870b35657bde088fc5c790e76aad17bd5c1960001b6129f0565b610dc17f7ca7d92b7e848d9df28167e48eb68f962e4dd194938a67af2d8c19e168321f0b60001b6129f0565b600360009054906101000a900473ffffffffffffffffffffffffffffffffffffffff1673ffffffffffffffffffffffffffffffffffffffff1631905090565b6060610e2e7fbc97d1542077452947cc848b7498f9da3dad71addc41b03d32935c2a6040538460001b6129f0565b610e5a7f8c988c3c596daf137264b135a68c911a2047eeaec9ada080c914b141c47b9cde60001b6129f0565b610e867ff70ab9f95acacff7f6992e00d88181e77105b2bb97516e51bffe981bc1776c4f60001b6129f0565b6000610e926001612a62565b9050610ec07f5cc25806eb77f6310801edc233a6b64dd4d48a6b71704951629851be4eee5fe260001b6129f0565b610eec7fe2df6a0ee7e4686c7810e60d0affc509e95c8a4e274ff8c1e84706b623cc691360001b6129f0565b6000610f1a7f9bb363bd875ec592e2c29cdbd8e833a5e59614fad9b23c5d5591c67dc8d4a1b760001b6129f0565b610f467f98d1eb71f9d93554bda85eb436eb9534f43ec8908e1631f2cb5f24d6956e4dce60001b6129f0565b6000610f747f440098a5628bcda3c084fcce9ec6ad678f65e8cc7baf3ac4d9fe468b78befbe560001b6129f0565b610fa07f9011ab97de6ce57611c460c608605b8d1594e98f17bc8472858c100d5a9f461260001b6129f0565b60005b8381101561115c57610fd77f3771070cdf5bcdd911a5242ee2f44f7f15fe5fbc00e92a08ebfb173b1795f8d260001b6129f0565b6110037fb541de382d13910fd1484fdedf92688ec15ee1b8f66d1fe0c0c0982449896a7760001b6129f0565b3373ffffffffffffffffffffffffffffffffffffffff166004600060018461102b9190613123565b815260200190815260200160002060020160009054906101000a900473ffffffffffffffffffffffffffffffffffffffff1673ffffffffffffffffffffffffffffffffffffffff161480156110ac57506004600060018361108c9190613123565b815260200190815260200160002060050160009054906101000a900460ff165b1561111c576110dd7f94655fc90aff211a4fd97b69bf8b7a7e70e4ee2b5b92e7c2a291ffe4b3738ca960001b6129f0565b6111097fa010f200ff62da7e2699bc406e06f78e24d01575730b932edab09fe92f1a46fe60001b6129f0565b828061111490613157565b935050611149565b6111487faf975663762d81c50d0be51b6048ef4c8b237e1c4161aa9469bccabf40e5876f60001b6129f0565b5b808061115490613157565b915050610fa3565b506111897f68559cd5f3724825721d267925427c8bd38735a061d0bd6050ffeb38622f622860001b6129f0565b6111b57f82a12dfdfb3c1066390fa06651ac6c44d0700c494d8d7496c3994bbe7688adc460001b6129f0565b60008267ffffffffffffffff8111156111d1576111d061319f565b5b60405190808252806020026020018201604052801561120a57816020015b6111f7612a70565b8152602001906001900390816111ef5790505b5090506112397f430868c0e226745b9dd17c172532cf95165f8a79a6f67843cb474b49f6a8d8bd60001b6129f0565b6112657fd9df5cd504ec417be25cb4995155b9bae697f6e664e229b11186a6d7e9cb5ecc60001b6129f0565b60005b848110156115f25761129c7fcb7ab04d2b3c2a4a354ff33583a8d199a314738e21362816de78bbc02f3a570a60001b6129f0565b6112c87f8b29a01bcdf226f5ffae748b642d3622c616f225725e90a938f1253b171608e760001b6129f0565b3373ffffffffffffffffffffffffffffffffffffffff16600460006001846112f09190613123565b815260200190815260200160002060020160009054906101000a900473ffffffffffffffffffffffffffffffffffffffff1673ffffffffffffffffffffffffffffffffffffffff161480156113715750600460006001836113519190613123565b815260200190815260200160002060050160009054906101000a900460ff165b156115b2576113a27f90428067d95fe06dacc321c326e10efab67ef5c4ecc06f8d53220a5fb9926d9260001b6129f0565b6113ce7fa1e420d07ee1c5a3ec9d8131d29f72baf96fc7c55a326de2d59a81a64470846360001b6129f0565b6113fa7f89ad209158acc7c7877452279bb0e74b9eb367e88a759ca8d936d9707b1d6d5f60001b6129f0565b6004600060018361140b9190613123565b81526020019081526020016000206040518060c0016040529081600082015481526020016001820160009054906101000a900473ffffffffffffffffffffffffffffffffffffffff1673ffffffffffffffffffffffffffffffffffffffff1673ffffffffffffffffffffffffffffffffffffffff1681526020016002820160009054906101000a900473ffffffffffffffffffffffffffffffffffffffff1673ffffffffffffffffffffffffffffffffffffffff1673ffffffffffffffffffffffffffffffffffffffff1681526020016003820160009054906101000a900473ffffffffffffffffffffffffffffffffffffffff1673ffffffffffffffffffffffffffffffffffffffff1673ffffffffffffffffffffffffffffffffffffffff168152602001600482015481526020016005820160009054906101000a900460ff161515151581525050828481518110611568576115676131ce565b5b602002602001018190525061159f7f905fff11ddd22903f3bc38184feb19bee2545547cf17edf6e3df8741c2d12f3260001b6129f0565b82806115aa90613157565b9350506115df565b6115de7ffd38ecd8ebd628625dec27b7bd1b460d166fbc9f766a2bb7e8bbf5acfa0b590c60001b6129f0565b5b80806115ea90613157565b915050611268565b5061161f7fdcec3258222c134321071d80bcec6910b67739bc707269f145af0f13f0e9884760001b6129f0565b61164b7fe674ee6254a810f0e817bdf74440bb28ff9f90bff21f7c0bc77f2eb2cbeb75ff60001b6129f0565b8094505050505090565b60606116837f68e449902209fc20012af02e4693f511eaa05f97f50aa39bd69e0e8e227aa40160001b6129f0565b6116af7f4c6f3144ad11ac31592d5798a693b86dc86aa6eb2ecd2fe3d1e29b5bb0aba48960001b6129f0565b6116db7f3707eb82af6bcb4eca5033573765a29f2cdeb70479746828655da3e7f4da963d60001b6129f0565b60006116e76001612a62565b90506117157f84528825f54fe46346e3e9f6ec2d4797e07ccbd87a978110dbc58c130d161d7d60001b6129f0565b6117417f14431ed3ca89fdab4a3b69aeb459def71efd8e859abeb3e800f4616b73857a8160001b6129f0565b600061176f7f21efed54065c973bd52a855622abb96f17d1df34a20a2345b59f5e43e83c816260001b6129f0565b61179b7fa7305d663d62dbc6b76e4d5bbbdd6542e2c5d8e76055a22e9287d2c24240115d60001b6129f0565b60006117c97f5798592b6999d9005e50d8e40d55b16a4a81cfa06fb01a7f4b26a20e4dcf303e60001b6129f0565b6117f57f645a9e00c61d3ad351864f719b20f5ad155e880d98cddea21081a31b0aef761d60001b6129f0565b60005b838110156119785761182c7f8e8df3558f26bdbcdb5fd66902d1c4b06f76eb2c67a73c6d1ce1ab76e19f709360001b6129f0565b6118587ff92a1eee2ff4ca4831bd4e8199bd2d6ee6199af4709d24cca4c28b02925f066360001b6129f0565b3373ffffffffffffffffffffffffffffffffffffffff16600460006001846118809190613123565b815260200190815260200160002060030160009054906101000a900473ffffffffffffffffffffffffffffffffffffffff1673ffffffffffffffffffffffffffffffffffffffff1603611938576118f97fbec94fcb6aa2f84b58fa2fda82ea179adea924d7fe9aedbb23bfb9400e5b33dd60001b6129f0565b6119257f8bedd54b0fa9b1adcb22dd0e319dc390578708b5a0f17dbdba03ee78d42fc7f960001b6129f0565b828061193090613157565b935050611965565b6119647fde8044df9044ca6e6155f7d3497f6329ba665f470b6e2cf04d3ac312b4267a2f60001b6129f0565b5b808061197090613157565b9150506117f8565b506119a57f886f938e03c3d3cb6dd9dae897d5a1ebce99b64d68fae538fe739a86d867352660001b6129f0565b6119d17f4fb0fc158ef7d51b6210ccb8322ec662ff2a00b9e09f7417cb09b00b37f52ca760001b6129f0565b60008267ffffffffffffffff8111156119ed576119ec61319f565b5b604051908082528060200260200182016040528015611a2657816020015b611a13612a70565b815260200190600190039081611a0b5790505b509050611a557f5c6536c5a51e290f0829ad24477736a4e53736463d0a085ddc863d3e5f88c67960001b6129f0565b611a817fd1698db376b9245311c8eb24867e222f97e4e1211690b47c01b2906b89a98a8f60001b6129f0565b60005b84811015611dd557611ab87fad749e0e8ff4cb6e57ff45e24e6c7acc4cdd0ef54e4326e381c74864b172c54060001b6129f0565b611ae47f8723dd73fcc3144d728b777b24f75a8e4362536800f9ac43dbf573ad286c662260001b6129f0565b3373ffffffffffffffffffffffffffffffffffffffff1660046000600184611b0c9190613123565b815260200190815260200160002060030160009054906101000a900473ffffffffffffffffffffffffffffffffffffffff1673ffffffffffffffffffffffffffffffffffffffff1603611d9557611b857ffa6fa261cd2eb1343b9269c51b7bfc63b6556c5fabefd42717a31d3259545b6360001b6129f0565b611bb17f0b1474163e8cde7bb49044318458810d6da5ad0c5a206b452bf07c00fc85143260001b6129f0565b611bdd7faaa90f856c74fdfef4f162b63c7516f1bcbcd30e27bbf467618c11e0e49a1e4560001b6129f0565b60046000600183611bee9190613123565b81526020019081526020016000206040518060c0016040529081600082015481526020016001820160009054906101000a900473ffffffffffffffffffffffffffffffffffffffff1673ffffffffffffffffffffffffffffffffffffffff1673ffffffffffffffffffffffffffffffffffffffff1681526020016002820160009054906101000a900473ffffffffffffffffffffffffffffffffffffffff1673ffffffffffffffffffffffffffffffffffffffff1673ffffffffffffffffffffffffffffffffffffffff1681526020016003820160009054906101000a900473ffffffffffffffffffffffffffffffffffffffff1673ffffffffffffffffffffffffffffffffffffffff1673ffffffffffffffffffffffffffffffffffffffff168152602001600482015481526020016005820160009054906101000a900460ff161515151581525050828481518110611d4b57611d4a6131ce565b5b6020026020010181905250611d827feb74b06ac2339a4a794b2797fad8f98a50a37b2b2104bbfd090747015100116a60001b6129f0565b8280611d8d90613157565b935050611dc2565b611dc17fc7fed0aa5126941887de027bad72d5003ca4866a44b60c25cbfd04183b450b7460001b6129f0565b5b8080611dcd90613157565b915050611a84565b50611e027f4cb8ef5bdae432dbca6abd312c32130c1cc747722dc3fe72974b58e04f33039b60001b6129f0565b611e2e7f3c4263658ecb66b5ce650f31d3c0377d32dd3418e65c4d1a235c02ae4c379bc060001b6129f0565b8094505050505090565b611e406129f3565b611e6c7ff1c0689b609dfc47a5cfb824a463b5981082977d17f1381cfcf2999df05733f860001b6129f0565b611e987f36d25c6b0e44484af50769882619f7e02cbe12148de5682af518622db9ee48ed60001b6129f0565b611ec47f9c369a21e04ec2d0b268c9d9e8230a5ed7abc873c976a157ab07e8d4840a3fec60001b6129f0565b611ef07fd8b5447837882ca6ec4de8a1936e65202c1706dd89b212723a2ef76af040e84a60001b6129f0565b60008111611f33576040517f08c379a0000000000000000000000000000000000000000000000000000000008152600401611f2a90613249565b60405180910390fd5b611f5f7f1385d333420094da770a436e27e88500f579884ea4b3b2cdcc97acd5d075b00560001b6129f0565b611f8b7f6c273ac6f6b1621377ce9a3510c0d0e4d38ed5cfdbc640b8f7b76fdfc917ebb160001b6129f0565b611fb77f8a5c11d228053cc01a9bffd467f8afead0bde8bce75c327323da3c035edef1c660001b6129f0565b611fe37f2f52cb612c19519da2568269b65b2b69be9c6603a0642be51024b664676040ff60001b6129f0565b611fec81610412565b341461202d576040517f08c379a0000000000000000000000000000000000000000000000000000000008152600401612024906132b5565b60405180910390fd5b6120597f3e0f0d2b1b2b9349bc9d43c3660939f1f3e09d33d606825ae3b46b030219d7c860001b6129f0565b6120857f997f0b6d33d8bb6d93ab19d27b474e6a507e4ef293b855aad06e61c45965e00460001b6129f0565b6120b17f0a76fbe0d76739ab9f126c31ef7fadbc18f856f0e8593457e5e7c9a208bbdd3860001b6129f0565b8273ffffffffffffffffffffffffffffffffffffffff166323b872dd3330856040518463ffffffff1660e01b81526004016120ee9392919061301d565b600060405180830381600087803b15801561210857600080fd5b505af115801561211c573d6000803e3d6000fd5b5050505061214c7fe922833632decddecac7460869128677150a19d608efac8ddd8ffa41c1abfe1b60001b6129f0565b6121787fc4e85b8d9c1b298fd93efc500081cdcdc3ab29683a78c211a27599a845edecc660001b6129f0565b6121826001612a42565b6121ae7fffc49382a67570a05ab22574a9a6fd560c37b751a6e174bc69c5551c2b61760c60001b6129f0565b6121da7fa3024d371b8c120d3f7ef4a963b884bfc5da5c106607a922526632d98c8b5dcd60001b6129f0565b6040518060c001604052808381526020018473ffffffffffffffffffffffffffffffffffffffff1681526020013373ffffffffffffffffffffffffffffffffffffffff1681526020013073ffffffffffffffffffffffffffffffffffffffff16815260200182815260200160011515815250600460008481526020019081526020016000206000820151816000015560208201518160010160006101000a81548173ffffffffffffffffffffffffffffffffffffffff021916908373ffffffffffffffffffffffffffffffffffffffff16021790555060408201518160020160006101000a81548173ffffffffffffffffffffffffffffffffffffffff021916908373ffffffffffffffffffffffffffffffffffffffff16021790555060608201518160030160006101000a81548173ffffffffffffffffffffffffffffffffffffffff021916908373ffffffffffffffffffffffffffffffffffffffff1602179055506080820151816004015560a08201518160050160006101000a81548160ff0219169083151502179055509050506123977f1c35a1776b4f72dde9c6eaf2d8c595a27be611f77db2c9c3ddd3ea591b7ef8b560001b6129f0565b6123c37f4232203c83aae3daa4119e700395e178ac6bd7c373951b4458d862a1f52e775960001b6129f0565b7f2fed4f756d9a7ce2b0f2a370744de88bd760329629d71a136952cef0bbd5e354828433308560016040516123fd969594939291906132d5565b60405180910390a161240d612a58565b505050565b60606124407f8e0b3d8fbb205532e72f6570278b92af37dfa0cd584c890f44fb31da838991ce60001b6129f0565b61246c7f49bfb4829db25db8917bd4aeeb075deba17bb383e577f0f4ce38351b05a2574560001b6129f0565b6124987f0da56c568501217941bb9242ec14bb134422ceb5dc04468f7718e13bd7e4c0ab60001b6129f0565b60006124a46001612a62565b90506124d27f888b70693c22bdd2cffe23982d7290ad0c70bb10ab6cb7af512e9d98b27f3b7860001b6129f0565b6124fe7fc65d7012bbb0ceac627fb077f7a5408015f072d173abd04a45698967d0435e6760001b6129f0565b600061250a6002612a62565b826125159190613336565b90506125437ff2dde17b1076d033d612225201a318ac2a58e546fc41103174a517388b603e8d60001b6129f0565b61256f7f3b6a0b1de7229793542dbabca92d67e9b7926254d5aefe5dddd57a1c52489f0160001b6129f0565b60008167ffffffffffffffff81111561258b5761258a61319f565b5b6040519080825280602002602001820160405280156125c457816020015b6125b1612a70565b8152602001906001900390816125a95790505b5090506125f37f60115d9cf9dcc1a8f7aecf3c893cdbaed12bd869b23c44e6a917d609d370fadb60001b6129f0565b61261f7f07cac73774bda567e4a3cfaf0ab61e4fc5ae0601d19910ab948427b8ef8ffc1260001b6129f0565b600061264d7f278b2754ca27d8a5740029e612469494ecc2989ed0df4c89b7650cd79f23c15160001b6129f0565b6126797f2279afebe49a3e974282f4d3184748f941f3acd92c221d2f4156f31527b290fe60001b6129f0565b60005b8481101561298d576126b07ff7a53f847d6019025a86e54ea1aa5a516bb4868d027df6e4b3cc42aaa3ff076660001b6129f0565b6126dc7f35682643696aa184ef67fc355dcca01d191ba79b1c0c434405aaa27d2de202b260001b6129f0565b600460006001836126ed9190613123565b815260200190815260200160002060050160009054906101000a900460ff161561294d5761273d7f055af573f9ce16a2ff603c66a7078a7b64792157e165e9850e2e179ac7cd1e3060001b6129f0565b6127697fbd74da6453db4097a8dac49735c8e9a13e80de24a3deaf0671627e50de43f5f960001b6129f0565b6127957f445fc05cbb8aec71bc416364953710b6a2ea7eaa67f6b728afcf118db621aa7760001b6129f0565b600460006001836127a69190613123565b81526020019081526020016000206040518060c0016040529081600082015481526020016001820160009054906101000a900473ffffffffffffffffffffffffffffffffffffffff1673ffffffffffffffffffffffffffffffffffffffff1673ffffffffffffffffffffffffffffffffffffffff1681526020016002820160009054906101000a900473ffffffffffffffffffffffffffffffffffffffff1673ffffffffffffffffffffffffffffffffffffffff1673ffffffffffffffffffffffffffffffffffffffff1681526020016003820160009054906101000a900473ffffffffffffffffffffffffffffffffffffffff1673ffffffffffffffffffffffffffffffffffffffff1673ffffffffffffffffffffffffffffffffffffffff168152602001600482015481526020016005820160009054906101000a900460ff161515151581525050838381518110612903576129026131ce565b5b602002602001018190525061293a7f6515c901696e8b426df3a510c4ad218a9fcebb3e7dee09b669da5e5f700d80a460001b6129f0565b818061294590613157565b92505061297a565b6129797f260e93c80f3af57dcb92c1e5eaff0b83bd29a1cf8b75eeccc1b7c7fb2d2daa4f60001b6129f0565b5b808061298590613157565b91505061267c565b506129ba7fdb9b6028c556545bf4c6ba204aae34f141c4e2a3255b6c51aa51d889d3a1f4f860001b6129f0565b6129e67fde7ae6085860f763c3870c0620748ebd678d590304bfa238af8f999ab7d2ddd460001b6129f0565b8194505050505090565b50565b600260005403612a38576040517f08c379a0000000000000000000000000000000000000000000000000000000008152600401612a2f906133b6565b60405180910390fd5b6002600081905550565b6001816000016000828254019250508190555050565b6001600081905550565b600081600001549050919050565b6040518060c0016040528060008152602001600073ffffffffffffffffffffffffffffffffffffffff168152602001600073ffffffffffffffffffffffffffffffffffffffff168152602001600073ffffffffffffffffffffffffffffffffffffffff168152602001600081526020016000151581525090565b600073ffffffffffffffffffffffffffffffffffffffff82169050919050565b6000612b1582612aea565b9050919050565b612b2581612b0a565b82525050565b6000602082019050612b406000830184612b1c565b92915050565b600080fd5b6000819050919050565b612b5e81612b4b565b8114612b6957600080fd5b50565b600081359050612b7b81612b55565b92915050565b600060208284031215612b9757612b96612b46565b5b6000612ba584828501612b6c565b91505092915050565b612bb781612b4b565b82525050565b6000602082019050612bd26000830184612bae565b92915050565b612be181612b0a565b8114612bec57600080fd5b50565b600081359050612bfe81612bd8565b92915050565b60008060408385031215612c1b57612c1a612b46565b5b6000612c2985828601612bef565b9250506020612c3a85828601612b6c565b9150509250929050565b600081519050919050565b600082825260208201905092915050565b6000819050602082019050919050565b612c7981612b4b565b82525050565b612c8881612b0a565b82525050565b6000612c9982612aea565b9050919050565b612ca981612c8e565b82525050565b60008115159050919050565b612cc481612caf565b82525050565b60c082016000820151612ce06000850182612c70565b506020820151612cf36020850182612c7f565b506040820151612d066040850182612ca0565b506060820151612d196060850182612ca0565b506080820151612d2c6080850182612c70565b5060a0820151612d3f60a0850182612cbb565b50505050565b6000612d518383612cca565b60c08301905092915050565b6000602082019050919050565b6000612d7582612c44565b612d7f8185612c4f565b9350612d8a83612c60565b8060005b83811015612dbb578151612da28882612d45565b9750612dad83612d5d565b925050600181019050612d8e565b5085935050505092915050565b60006020820190508181036000830152612de28184612d6a565b905092915050565b600080600060608486031215612e0357612e02612b46565b5b6000612e1186828701612bef565b9350506020612e2286828701612b6c565b9250506040612e3386828701612b6c565b9150509250925092565b600082825260208201905092915050565b7f4f6e6c7920746865206d61726b6574206f776e65722063616e20706572666f7260008201527f6d207468697320616374696f6e00000000000000000000000000000000000000602082015250565b6000612eaa602d83612e3d565b9150612eb582612e4e565b604082019050919050565b60006020820190508181036000830152612ed981612e9d565b9050919050565b7f4e487b7100000000000000000000000000000000000000000000000000000000600052601160045260246000fd5b6000612f1a82612b4b565b9150612f2583612b4b565b9250828202612f3381612b4b565b91508282048414831517612f4a57612f49612ee0565b5b5092915050565b7f4e487b7100000000000000000000000000000000000000000000000000000000600052601260045260246000fd5b6000612f8b82612b4b565b9150612f9683612b4b565b925082612fa657612fa5612f51565b5b828204905092915050565b7f506c65617365207375626d69742074686520636f727265637420707269636500600082015250565b6000612fe7601f83612e3d565b9150612ff282612fb1565b602082019050919050565b6000602082019050818103600083015261301681612fda565b9050919050565b60006060820190506130326000830186612b1c565b61303f6020830185612b1c565b61304c6040830184612bae565b949350505050565b6000819050919050565b600061307961307461306f84612aea565b613054565b612aea565b9050919050565b600061308b8261305e565b9050919050565b600061309d82613080565b9050919050565b6130ad81613092565b82525050565b6130bc81612caf565b82525050565b600060c0820190506130d76000830189612bae565b6130e46020830188612b1c565b6130f160408301876130a4565b6130fe6060830186612b1c565b61310b6080830185612bae565b61311860a08301846130b3565b979650505050505050565b600061312e82612b4b565b915061313983612b4b565b925082820190508082111561315157613150612ee0565b5b92915050565b600061316282612b4b565b91507fffffffffffffffffffffffffffffffffffffffffffffffffffffffffffffffff820361319457613193612ee0565b5b600182019050919050565b7f4e487b7100000000000000000000000000000000000000000000000000000000600052604160045260246000fd5b7f4e487b7100000000000000000000000000000000000000000000000000000000600052603260045260246000fd5b7f5072696365206d757374206265206174206c6561737420312077656900000000600082015250565b6000613233601c83612e3d565b915061323e826131fd565b602082019050919050565b6000602082019050818103600083015261326281613226565b9050919050565b7f4e6f7420656e6f75676820657468657220666f72206c697374696e6720666565600082015250565b600061329f602083612e3d565b91506132aa82613269565b602082019050919050565b600060208201905081810360008301526132ce81613292565b9050919050565b600060c0820190506132ea6000830189612bae565b6132f76020830188612b1c565b6133046040830187612b1c565b6133116060830186612b1c565b61331e6080830185612bae565b61332b60a08301846130b3565b979650505050505050565b600061334182612b4b565b915061334c83612b4b565b925082820390508181111561336457613363612ee0565b5b92915050565b7f5265656e7472616e637947756172643a207265656e7472616e742063616c6c00600082015250565b60006133a0601f83612e3d565b91506133ab8261336a565b602082019050919050565b600060208201905081810360008301526133cf81613393565b905091905056fea264697066735822122099577c280904d4ee65a105ecaa74ebbd2a5673cdb1ee75ecc37d22e1a87fd1d364736f6c63430008110033","opcodes":"PUSH1 0x80 PUSH1 0x40 MSTORE CALLVALUE DUP1 ISZERO PUSH3 0x11 JUMPI PUSH1 0x0 DUP1 REVERT JUMPDEST POP PUSH1 0x1 PUSH1 0x0 DUP2 SWAP1 SSTORE POP PUSH3 0x4E PUSH32 0x849DD17FBC06FC5F2844B790B387F4CC79B98F5D477F36D7F37DA9D7B4D8ABCF PUSH1 0x0 SHL PUSH3 0xFD PUSH1 0x20 SHL PUSH1 0x20 SHR JUMP JUMPDEST PUSH3 0x82 PUSH32 0xDAC083FCE3EC32E77B047C23A9BD400DCEC0427947FA1DDF33190E7FAF722198 PUSH1 0x0 SHL PUSH3 0xFD PUSH1 0x20 SHL PUSH1 0x20 SHR JUMP JUMPDEST PUSH3 0xB6 PUSH32 0x9AA4AACD3EE7466BB4CA6CDB6B8FDE067ED3227EB17F8DC552FA2C5EA702CEB5 PUSH1 0x0 SHL PUSH3 0xFD PUSH1 0x20 SHL PUSH1 0x20 SHR JUMP JUMPDEST CALLER PUSH1 0x3 PUSH1 0x0 PUSH2 0x100 EXP DUP2 SLOAD DUP2 PUSH20 0xFFFFFFFFFFFFFFFFFFFFFFFFFFFFFFFFFFFFFFFF MUL NOT AND SWAP1 DUP4 PUSH20 0xFFFFFFFFFFFFFFFFFFFFFFFFFFFFFFFFFFFFFFFF AND MUL OR SWAP1 SSTORE POP PUSH3 0x100 JUMP JUMPDEST POP JUMP JUMPDEST PUSH2 0x340C DUP1 PUSH3 0x110 PUSH1 0x0 CODECOPY PUSH1 0x0 RETURN INVALID PUSH1 0x80 PUSH1 0x40 MSTORE PUSH1 0x4 CALLDATASIZE LT PUSH2 0x7B JUMPI PUSH1 0x0 CALLDATALOAD PUSH1 0xE0 SHR DUP1 PUSH4 0x98AC2211 GT PUSH2 0x4E JUMPI DUP1 PUSH4 0x98AC2211 EQ PUSH2 0x12F JUMPI DUP1 PUSH4 0xB14F1AFD EQ PUSH2 0x15A JUMPI DUP1 PUSH4 0xCC864FB1 EQ PUSH2 0x185 JUMPI DUP1 PUSH4 0xF4DCB9C1 EQ PUSH2 0x1A1 JUMPI PUSH2 0x7B JUMP JUMPDEST DUP1 PUSH4 0x451E9CF0 EQ PUSH2 0x80 JUMPI DUP1 PUSH4 0x62E19CC8 EQ PUSH2 0xAB JUMPI DUP1 PUSH4 0x72F2BDF4 EQ PUSH2 0xE8 JUMPI DUP1 PUSH4 0x763A0559 EQ PUSH2 0x104 JUMPI JUMPDEST PUSH1 0x0 DUP1 REVERT JUMPDEST CALLVALUE DUP1 ISZERO PUSH2 0x8C JUMPI PUSH1 0x0 DUP1 REVERT JUMPDEST POP PUSH2 0x95 PUSH2 0x1CC JUMP JUMPDEST PUSH1 0x40 MLOAD PUSH2 0xA2 SWAP2 SWAP1 PUSH2 0x2B2B JUMP JUMPDEST PUSH1 0x40 MLOAD DUP1 SWAP2 SUB SWAP1 RETURN JUMPDEST CALLVALUE DUP1 ISZERO PUSH2 0xB7 JUMPI PUSH1 0x0 DUP1 REVERT JUMPDEST POP PUSH2 0xD2 PUSH1 0x4 DUP1 CALLDATASIZE SUB DUP2 ADD SWAP1 PUSH2 0xCD SWAP2 SWAP1 PUSH2 0x2B81 JUMP JUMPDEST PUSH2 0x412 JUMP JUMPDEST PUSH1 0x40 MLOAD PUSH2 0xDF SWAP2 SWAP1 PUSH2 0x2BBD JUMP JUMPDEST PUSH1 0x40 MLOAD DUP1 SWAP2 SUB SWAP1 RETURN JUMPDEST PUSH2 0x102 PUSH1 0x4 DUP1 CALLDATASIZE SUB DUP2 ADD SWAP1 PUSH2 0xFD SWAP2 SWAP1 PUSH2 0x2C04 JUMP JUMPDEST PUSH2 0x518 JUMP JUMPDEST STOP JUMPDEST CALLVALUE DUP1 ISZERO PUSH2 0x110 JUMPI PUSH1 0x0 DUP1 REVERT JUMPDEST POP PUSH2 0x119 PUSH2 0xBA3 JUMP JUMPDEST PUSH1 0x40 MLOAD PUSH2 0x126 SWAP2 SWAP1 PUSH2 0x2BBD JUMP JUMPDEST PUSH1 0x40 MLOAD DUP1 SWAP2 SUB SWAP1 RETURN JUMPDEST CALLVALUE DUP1 ISZERO PUSH2 0x13B JUMPI PUSH1 0x0 DUP1 REVERT JUMPDEST POP PUSH2 0x144 PUSH2 0xE00 JUMP JUMPDEST PUSH1 0x40 MLOAD PUSH2 0x151 SWAP2 SWAP1 PUSH2 0x2DC8 JUMP JUMPDEST PUSH1 0x40 MLOAD DUP1 SWAP2 SUB SWAP1 RETURN JUMPDEST CALLVALUE DUP1 ISZERO PUSH2 0x166 JUMPI PUSH1 0x0 DUP1 REVERT JUMPDEST POP PUSH2 0x16F PUSH2 0x1655 JUMP JUMPDEST PUSH1 0x40 MLOAD PUSH2 0x17C SWAP2 SWAP1 PUSH2 0x2DC8 JUMP JUMPDEST PUSH1 0x40 MLOAD DUP1 SWAP2 SUB SWAP1 RETURN JUMPDEST PUSH2 0x19F PUSH1 0x4 DUP1 CALLDATASIZE SUB DUP2 ADD SWAP1 PUSH2 0x19A SWAP2 SWAP1 PUSH2 0x2DEA JUMP JUMPDEST PUSH2 0x1E38 JUMP JUMPDEST STOP JUMPDEST CALLVALUE DUP1 ISZERO PUSH2 0x1AD JUMPI PUSH1 0x0 DUP1 REVERT JUMPDEST POP PUSH2 0x1B6 PUSH2 0x2412 JUMP JUMPDEST PUSH1 0x40 MLOAD PUSH2 0x1C3 SWAP2 SWAP1 PUSH2 0x2DC8 JUMP JUMPDEST PUSH1 0x40 MLOAD DUP1 SWAP2 SUB SWAP1 RETURN JUMPDEST PUSH1 0x0 PUSH2 0x1FA PUSH32 0x1709D0DC3E8F0108EE965290AFDCBB186988B12EA656D06097C88D4E095A9887 PUSH1 0x0 SHL PUSH2 0x29F0 JUMP JUMPDEST PUSH2 0x226 PUSH32 0xCF9DADD561F2AD5C1F8C2FE5C1ACE334567F838BC2AACEDB2C3AEE147A608574 PUSH1 0x0 SHL PUSH2 0x29F0 JUMP JUMPDEST PUSH2 0x252 PUSH32 0x2765E3237B5E34587E16C476B99AB98C017EB1BD93CCBBC313F5FB35B941C65B PUSH1 0x0 SHL PUSH2 0x29F0 JUMP JUMPDEST PUSH2 0x27E PUSH32 0x790AABA1B688471F8EBA3A3F3E2AAF6CF053B8E923ED5D9C245AA7738A65D3EA PUSH1 0x0 SHL PUSH2 0x29F0 JUMP JUMPDEST PUSH1 0x3 PUSH1 0x0 SWAP1 SLOAD SWAP1 PUSH2 0x100 EXP SWAP1 DIV PUSH20 0xFFFFFFFFFFFFFFFFFFFFFFFFFFFFFFFFFFFFFFFF AND PUSH20 0xFFFFFFFFFFFFFFFFFFFFFFFFFFFFFFFFFFFFFFFF AND CALLER PUSH20 0xFFFFFFFFFFFFFFFFFFFFFFFFFFFFFFFFFFFFFFFF AND EQ PUSH2 0x30E JUMPI PUSH1 0x40 MLOAD PUSH32 0x8C379A000000000000000000000000000000000000000000000000000000000 DUP2 MSTORE PUSH1 0x4 ADD PUSH2 0x305 SWAP1 PUSH2 0x2EC0 JUMP JUMPDEST PUSH1 0x40 MLOAD DUP1 SWAP2 SUB SWAP1 REVERT JUMPDEST PUSH2 0x33A PUSH32 0x2879B8F95D8C91BB11069723D2CD5CF5350CC330A3D0E5236E700A4A98D65B39 PUSH1 0x0 SHL PUSH2 0x29F0 JUMP JUMPDEST PUSH2 0x366 PUSH32 0x1C7E08574DE6C62C5ED974C9671495A4DD8F38A6AE05EA8C9D8DC563CE8EBF9C PUSH1 0x0 SHL PUSH2 0x29F0 JUMP JUMPDEST PUSH2 0x392 PUSH32 0x4BE2A03C1513F7DCFB3C3E4AF6116493D8ACACC97BAAD00F4CA92165FA3349C9 PUSH1 0x0 SHL PUSH2 0x29F0 JUMP JUMPDEST PUSH2 0x3BE PUSH32 0x1C9B73DAE5FC6CFA3B87FE71F0F83DE97D4636F52BBD39165EC466225D27CBE8 PUSH1 0x0 SHL PUSH2 0x29F0 JUMP JUMPDEST PUSH2 0x3EA PUSH32 0x26D4DBC68EFD2501B8B76C526DD91D783CE2966493D1511D8DC88607265B4F68 PUSH1 0x0 SHL PUSH2 0x29F0 JUMP JUMPDEST PUSH1 0x3 PUSH1 0x0 SWAP1 SLOAD SWAP1 PUSH2 0x100 EXP SWAP1 DIV PUSH20 0xFFFFFFFFFFFFFFFFFFFFFFFFFFFFFFFFFFFFFFFF AND SWAP1 POP SWAP1 JUMP JUMPDEST PUSH1 0x0 PUSH2 0x440 PUSH32 0xEE12F4469CA48DD1C7790891AC54A65BAF74C83FCD8408804634C2BF5AEBF894 PUSH1 0x0 SHL PUSH2 0x29F0 JUMP JUMPDEST PUSH2 0x46C PUSH32 0x489C800042DBBBC7B492280FC8EEBE9E97096D72E7C2DDAC2FAE9D391A42390A PUSH1 0x0 SHL PUSH2 0x29F0 JUMP JUMPDEST PUSH2 0x498 PUSH32 0xDAEE4004C02CB9C2DA58F626840B8C7BF11FD120FB51C56C22A057FFB8E14784 PUSH1 0x0 SHL PUSH2 0x29F0 JUMP JUMPDEST PUSH1 0x0 PUSH2 0x2710 PUSH2 0x12C DUP5 PUSH2 0x4AB SWAP2 SWAP1 PUSH2 0x2F0F JUMP JUMPDEST PUSH2 0x4B5 SWAP2 SWAP1 PUSH2 0x2F80 JUMP JUMPDEST SWAP1 POP PUSH2 0x4E3 PUSH32 0xE939287E794E9F4D8538C0BC90292A62497541FC3959ABE81A730D9DF4F5997F PUSH1 0x0 SHL PUSH2 0x29F0 JUMP JUMPDEST PUSH2 0x50F PUSH32 0xC6ED97AB9A3B7D676A4B89FCB8BCEFB3CCD1CC80A12C2702F31F3EFE0B92913F PUSH1 0x0 SHL PUSH2 0x29F0 JUMP JUMPDEST DUP1 SWAP2 POP POP SWAP2 SWAP1 POP JUMP JUMPDEST PUSH2 0x520 PUSH2 0x29F3 JUMP JUMPDEST PUSH2 0x54C PUSH32 0x1BA41C90E37BED943393C295E9CD5937DCC52C96E8C24DEB7E89C66D1C77F398 PUSH1 0x0 SHL PUSH2 0x29F0 JUMP JUMPDEST PUSH2 0x578 PUSH32 0xFEDDF985E32FBEC2A6AC8BE29568A23F21EB1893DACC6480B48249D589C08642 PUSH1 0x0 SHL PUSH2 0x29F0 JUMP JUMPDEST PUSH2 0x5A4 PUSH32 0x826A48572B0202B29B6FD7D4F8F70F1736B3728AEAD43AAF35A981CCE0293363 PUSH1 0x0 SHL PUSH2 0x29F0 JUMP JUMPDEST PUSH1 0x0 PUSH1 0x4 PUSH1 0x0 DUP4 DUP2 MSTORE PUSH1 0x20 ADD SWAP1 DUP2 MSTORE PUSH1 0x20 ADD PUSH1 0x0 KECCAK256 SWAP1 POP PUSH2 0x5E7 PUSH32 0xC76D313F26A5292264D20B70C8F9D988F70DBC69A6884B334A8FF6DC532BF11D PUSH1 0x0 SHL PUSH2 0x29F0 JUMP JUMPDEST PUSH2 0x613 PUSH32 0x7773164B727EB990361458815C21CE14D4964E8491821C63B6801E4628620D54 PUSH1 0x0 SHL PUSH2 0x29F0 JUMP JUMPDEST PUSH1 0x0 PUSH2 0x622 DUP3 PUSH1 0x4 ADD SLOAD PUSH2 0x412 JUMP JUMPDEST SWAP1 POP PUSH2 0x650 PUSH32 0xB936470098DCD428477A52EBE218C755C0D4E2F8F74C88B4D71880A51650F5C2 PUSH1 0x0 SHL PUSH2 0x29F0 JUMP JUMPDEST PUSH2 0x67C PUSH32 0x232FFDFD7743D394C22E269254E5C3586153D869A761956C6978309CC64985FF PUSH1 0x0 SHL PUSH2 0x29F0 JUMP JUMPDEST PUSH2 0x6A8 PUSH32 0x980E2B866A8852F9BBA0AAB5B59526BDDC474BA319625F6FDCF4C1BBCAB4B6F PUSH1 0x0 SHL PUSH2 0x29F0 JUMP JUMPDEST DUP2 PUSH1 0x4 ADD SLOAD CALLVALUE EQ PUSH2 0x6EE JUMPI PUSH1 0x40 MLOAD PUSH32 0x8C379A000000000000000000000000000000000000000000000000000000000 DUP2 MSTORE PUSH1 0x4 ADD PUSH2 0x6E5 SWAP1 PUSH2 0x2FFD JUMP JUMPDEST PUSH1 0x40 MLOAD DUP1 SWAP2 SUB SWAP1 REVERT JUMPDEST PUSH2 0x71A PUSH32 0xCE0FCF203AEF0A7E870C287E6E94A88F88EA8F6B1F9A7BD7B3BE8A5A8753A544 PUSH1 0x0 SHL PUSH2 0x29F0 JUMP JUMPDEST PUSH2 0x746 PUSH32 0x438EB7F9585AD84FAAC5B548F07EF290E3A54CC23D9F89F4962A4352F7159214 PUSH1 0x0 SHL PUSH2 0x29F0 JUMP JUMPDEST PUSH2 0x772 PUSH32 0xADF00BFF96308E6493D6EBFE6492BBD1221B6E0C03963002912FACF4D38CFD67 PUSH1 0x0 SHL PUSH2 0x29F0 JUMP JUMPDEST DUP2 PUSH1 0x2 ADD PUSH1 0x0 SWAP1 SLOAD SWAP1 PUSH2 0x100 EXP SWAP1 DIV PUSH20 0xFFFFFFFFFFFFFFFFFFFFFFFFFFFFFFFFFFFFFFFF AND PUSH20 0xFFFFFFFFFFFFFFFFFFFFFFFFFFFFFFFFFFFFFFFF AND PUSH2 0x8FC CALLVALUE SWAP1 DUP2 ISZERO MUL SWAP1 PUSH1 0x40 MLOAD PUSH1 0x0 PUSH1 0x40 MLOAD DUP1 DUP4 SUB DUP2 DUP6 DUP9 DUP9 CALL SWAP4 POP POP POP POP ISZERO DUP1 ISZERO PUSH2 0x7DC JUMPI RETURNDATASIZE PUSH1 0x0 DUP1 RETURNDATACOPY RETURNDATASIZE PUSH1 0x0 REVERT JUMPDEST POP PUSH2 0x809 PUSH32 0x7112D35536D6B96A3C8A4B91650315131928438D714BAC9F7BD903BC76E09147 PUSH1 0x0 SHL PUSH2 0x29F0 JUMP JUMPDEST PUSH2 0x835 PUSH32 0x9A51940DCD5E6FC04D2ED82148F6C2215B6E66F23DC18BB9EC8215D98841EF7E PUSH1 0x0 SHL PUSH2 0x29F0 JUMP JUMPDEST DUP4 PUSH20 0xFFFFFFFFFFFFFFFFFFFFFFFFFFFFFFFFFFFFFFFF AND PUSH4 0x23B872DD ADDRESS CALLER DUP7 PUSH1 0x40 MLOAD DUP5 PUSH4 0xFFFFFFFF AND PUSH1 0xE0 SHL DUP2 MSTORE PUSH1 0x4 ADD PUSH2 0x872 SWAP4 SWAP3 SWAP2 SWAP1 PUSH2 0x301D JUMP JUMPDEST PUSH1 0x0 PUSH1 0x40 MLOAD DUP1 DUP4 SUB DUP2 PUSH1 0x0 DUP8 DUP1 EXTCODESIZE ISZERO DUP1 ISZERO PUSH2 0x88C JUMPI PUSH1 0x0 DUP1 REVERT JUMPDEST POP GAS CALL ISZERO DUP1 ISZERO PUSH2 0x8A0 JUMPI RETURNDATASIZE PUSH1 0x0 DUP1 RETURNDATACOPY RETURNDATASIZE PUSH1 0x0 REVERT JUMPDEST POP POP POP POP PUSH2 0x8D0 PUSH32 0x274D1EEA632F994D0532B45B54F72DFEB9918CF8F8E82585D3394AFFBD35E397 PUSH1 0x0 SHL PUSH2 0x29F0 JUMP JUMPDEST PUSH2 0x8FC PUSH32 0x4BE1C54A5D247DC9DB246FF12910A070DF24D559DF655C43A556CC0666CF4C1E PUSH1 0x0 SHL PUSH2 0x29F0 JUMP JUMPDEST CALLER DUP3 PUSH1 0x3 ADD PUSH1 0x0 PUSH2 0x100 EXP DUP2 SLOAD DUP2 PUSH20 0xFFFFFFFFFFFFFFFFFFFFFFFFFFFFFFFFFFFFFFFF MUL NOT AND SWAP1 DUP4 PUSH20 0xFFFFFFFFFFFFFFFFFFFFFFFFFFFFFFFFFFFFFFFF AND MUL OR SWAP1 SSTORE POP PUSH2 0x96B PUSH32 0x77C9F679CCB851B4869D76C61F0B34704BDC421744030801CD32CD22891F425B PUSH1 0x0 SHL PUSH2 0x29F0 JUMP JUMPDEST PUSH2 0x997 PUSH32 0x55BCEA1CD3112572A9E7841BFCA94126C5A8759480205CB35676B847771E2CF7 PUSH1 0x0 SHL PUSH2 0x29F0 JUMP JUMPDEST PUSH1 0x0 DUP3 PUSH1 0x5 ADD PUSH1 0x0 PUSH2 0x100 EXP DUP2 SLOAD DUP2 PUSH1 0xFF MUL NOT AND SWAP1 DUP4 ISZERO ISZERO MUL OR SWAP1 SSTORE POP PUSH2 0x9E0 PUSH32 0xC1AC6B4101724E77095E7706321A06713B899963210DCAB6CBF3FC723030DB0E PUSH1 0x0 SHL PUSH2 0x29F0 JUMP JUMPDEST PUSH2 0xA0C PUSH32 0x18FC88B83F86AC7E3307AA4A6D98EDFE779B9D201DA282CC235A266A225C4A9D PUSH1 0x0 SHL PUSH2 0x29F0 JUMP JUMPDEST PUSH1 0x3 PUSH1 0x0 SWAP1 SLOAD SWAP1 PUSH2 0x100 EXP SWAP1 DIV PUSH20 0xFFFFFFFFFFFFFFFFFFFFFFFFFFFFFFFFFFFFFFFF AND PUSH20 0xFFFFFFFFFFFFFFFFFFFFFFFFFFFFFFFFFFFFFFFF AND PUSH2 0x8FC DUP3 SWAP1 DUP2 ISZERO MUL SWAP1 PUSH1 0x40 MLOAD PUSH1 0x0 PUSH1 0x40 MLOAD DUP1 DUP4 SUB DUP2 DUP6 DUP9 DUP9 CALL SWAP4 POP POP POP POP ISZERO DUP1 ISZERO PUSH2 0xA74 JUMPI RETURNDATASIZE PUSH1 0x0 DUP1 RETURNDATACOPY RETURNDATASIZE PUSH1 0x0 REVERT JUMPDEST POP PUSH2 0xAA1 PUSH32 0x14C83363914D4285142CD8D52B50FD00155E17F9AD054F7ED07FCD97B1160794 PUSH1 0x0 SHL PUSH2 0x29F0 JUMP JUMPDEST PUSH2 0xACD PUSH32 0x4C05276BA1071E8584EDA8EDC7EE968B2663FBF1C61DCD776448D92BFA671C77 PUSH1 0x0 SHL PUSH2 0x29F0 JUMP JUMPDEST PUSH2 0xAD7 PUSH1 0x2 PUSH2 0x2A42 JUMP JUMPDEST PUSH2 0xB03 PUSH32 0xE21E32911F5C7EDAD0AB9081625876B2174D525DA5AA08400EBF1D53965E988F PUSH1 0x0 SHL PUSH2 0x29F0 JUMP JUMPDEST PUSH2 0xB2F PUSH32 0x575FA7A9031F6DEB86027D0DFC947A7EB843D0F531DCCB52FF5BF2198075F2AC PUSH1 0x0 SHL PUSH2 0x29F0 JUMP JUMPDEST PUSH32 0xE146F5EFC4DD59BBBD2CF0185EC3ECA550C5A92B9ACC899AC705617D26E27B5B DUP4 DUP6 DUP5 PUSH1 0x2 ADD PUSH1 0x0 SWAP1 SLOAD SWAP1 PUSH2 0x100 EXP SWAP1 DIV PUSH20 0xFFFFFFFFFFFFFFFFFFFFFFFFFFFFFFFFFFFFFFFF AND CALLER CALLVALUE PUSH1 0x0 PUSH1 0x40 MLOAD PUSH2 0xB8D SWAP7 SWAP6 SWAP5 SWAP4 SWAP3 SWAP2 SWAP1 PUSH2 0x30C2 JUMP JUMPDEST PUSH1 0x40 MLOAD DUP1 SWAP2 SUB SWAP1 LOG1 POP POP PUSH2 0xB9F PUSH2 0x2A58 JUMP JUMPDEST POP POP JUMP JUMPDEST PUSH1 0x0 PUSH2 0xBD1 PUSH32 0x1709D0DC3E8F0108EE965290AFDCBB186988B12EA656D06097C88D4E095A9887 PUSH1 0x0 SHL PUSH2 0x29F0 JUMP JUMPDEST PUSH2 0xBFD PUSH32 0xCF9DADD561F2AD5C1F8C2FE5C1ACE334567F838BC2AACEDB2C3AEE147A608574 PUSH1 0x0 SHL PUSH2 0x29F0 JUMP JUMPDEST PUSH2 0xC29 PUSH32 0x2765E3237B5E34587E16C476B99AB98C017EB1BD93CCBBC313F5FB35B941C65B PUSH1 0x0 SHL PUSH2 0x29F0 JUMP JUMPDEST PUSH2 0xC55 PUSH32 0x790AABA1B688471F8EBA3A3F3E2AAF6CF053B8E923ED5D9C245AA7738A65D3EA PUSH1 0x0 SHL PUSH2 0x29F0 JUMP JUMPDEST PUSH1 0x3 PUSH1 0x0 SWAP1 SLOAD SWAP1 PUSH2 0x100 EXP SWAP1 DIV PUSH20 0xFFFFFFFFFFFFFFFFFFFFFFFFFFFFFFFFFFFFFFFF AND PUSH20 0xFFFFFFFFFFFFFFFFFFFFFFFFFFFFFFFFFFFFFFFF AND CALLER PUSH20 0xFFFFFFFFFFFFFFFFFFFFFFFFFFFFFFFFFFFFFFFF AND EQ PUSH2 0xCE5 JUMPI PUSH1 0x40 MLOAD PUSH32 0x8C379A000000000000000000000000000000000000000000000000000000000 DUP2 MSTORE PUSH1 0x4 ADD PUSH2 0xCDC SWAP1 PUSH2 0x2EC0 JUMP JUMPDEST PUSH1 0x40 MLOAD DUP1 SWAP2 SUB SWAP1 REVERT JUMPDEST PUSH2 0xD11 PUSH32 0x2879B8F95D8C91BB11069723D2CD5CF5350CC330A3D0E5236E700A4A98D65B39 PUSH1 0x0 SHL PUSH2 0x29F0 JUMP JUMPDEST PUSH2 0xD3D PUSH32 0x1C7E08574DE6C62C5ED974C9671495A4DD8F38A6AE05EA8C9D8DC563CE8EBF9C PUSH1 0x0 SHL PUSH2 0x29F0 JUMP JUMPDEST PUSH2 0xD69 PUSH32 0x847271213F84827F61B7DB5B7691D6D8C5CB28C4BFE34C3BCB6F26F8023C671B PUSH1 0x0 SHL PUSH2 0x29F0 JUMP JUMPDEST PUSH2 0xD95 PUSH32 0xA7A5F01AA3D314AF3589737F9142870B35657BDE088FC5C790E76AAD17BD5C19 PUSH1 0x0 SHL PUSH2 0x29F0 JUMP JUMPDEST PUSH2 0xDC1 PUSH32 0x7CA7D92B7E848D9DF28167E48EB68F962E4DD194938A67AF2D8C19E168321F0B PUSH1 0x0 SHL PUSH2 0x29F0 JUMP JUMPDEST PUSH1 0x3 PUSH1 0x0 SWAP1 SLOAD SWAP1 PUSH2 0x100 EXP SWAP1 DIV PUSH20 0xFFFFFFFFFFFFFFFFFFFFFFFFFFFFFFFFFFFFFFFF AND PUSH20 0xFFFFFFFFFFFFFFFFFFFFFFFFFFFFFFFFFFFFFFFF AND BALANCE SWAP1 POP SWAP1 JUMP JUMPDEST PUSH1 0x60 PUSH2 0xE2E PUSH32 0xBC97D1542077452947CC848B7498F9DA3DAD71ADDC41B03D32935C2A60405384 PUSH1 0x0 SHL PUSH2 0x29F0 JUMP JUMPDEST PUSH2 0xE5A PUSH32 0x8C988C3C596DAF137264B135A68C911A2047EEAEC9ADA080C914B141C47B9CDE PUSH1 0x0 SHL PUSH2 0x29F0 JUMP JUMPDEST PUSH2 0xE86 PUSH32 0xF70AB9F95ACACFF7F6992E00D88181E77105B2BB97516E51BFFE981BC1776C4F PUSH1 0x0 SHL PUSH2 0x29F0 JUMP JUMPDEST PUSH1 0x0 PUSH2 0xE92 PUSH1 0x1 PUSH2 0x2A62 JUMP JUMPDEST SWAP1 POP PUSH2 0xEC0 PUSH32 0x5CC25806EB77F6310801EDC233A6B64DD4D48A6B71704951629851BE4EEE5FE2 PUSH1 0x0 SHL PUSH2 0x29F0 JUMP JUMPDEST PUSH2 0xEEC PUSH32 0xE2DF6A0EE7E4686C7810E60D0AFFC509E95C8A4E274FF8C1E84706B623CC6913 PUSH1 0x0 SHL PUSH2 0x29F0 JUMP JUMPDEST PUSH1 0x0 PUSH2 0xF1A PUSH32 0x9BB363BD875EC592E2C29CDBD8E833A5E59614FAD9B23C5D5591C67DC8D4A1B7 PUSH1 0x0 SHL PUSH2 0x29F0 JUMP JUMPDEST PUSH2 0xF46 PUSH32 0x98D1EB71F9D93554BDA85EB436EB9534F43EC8908E1631F2CB5F24D6956E4DCE PUSH1 0x0 SHL PUSH2 0x29F0 JUMP JUMPDEST PUSH1 0x0 PUSH2 0xF74 PUSH32 0x440098A5628BCDA3C084FCCE9EC6AD678F65E8CC7BAF3AC4D9FE468B78BEFBE5 PUSH1 0x0 SHL PUSH2 0x29F0 JUMP JUMPDEST PUSH2 0xFA0 PUSH32 0x9011AB97DE6CE57611C460C608605B8D1594E98F17BC8472858C100D5A9F4612 PUSH1 0x0 SHL PUSH2 0x29F0 JUMP JUMPDEST PUSH1 0x0 JUMPDEST DUP4 DUP2 LT ISZERO PUSH2 0x115C JUMPI PUSH2 0xFD7 PUSH32 0x3771070CDF5BCDD911A5242EE2F44F7F15FE5FBC00E92A08EBFB173B1795F8D2 PUSH1 0x0 SHL PUSH2 0x29F0 JUMP JUMPDEST PUSH2 0x1003 PUSH32 0xB541DE382D13910FD1484FDEDF92688EC15EE1B8F66D1FE0C0C0982449896A77 PUSH1 0x0 SHL PUSH2 0x29F0 JUMP JUMPDEST CALLER PUSH20 0xFFFFFFFFFFFFFFFFFFFFFFFFFFFFFFFFFFFFFFFF AND PUSH1 0x4 PUSH1 0x0 PUSH1 0x1 DUP5 PUSH2 0x102B SWAP2 SWAP1 PUSH2 0x3123 JUMP JUMPDEST DUP2 MSTORE PUSH1 0x20 ADD SWAP1 DUP2 MSTORE PUSH1 0x20 ADD PUSH1 0x0 KECCAK256 PUSH1 0x2 ADD PUSH1 0x0 SWAP1 SLOAD SWAP1 PUSH2 0x100 EXP SWAP1 DIV PUSH20 0xFFFFFFFFFFFFFFFFFFFFFFFFFFFFFFFFFFFFFFFF AND PUSH20 0xFFFFFFFFFFFFFFFFFFFFFFFFFFFFFFFFFFFFFFFF AND EQ DUP1 ISZERO PUSH2 0x10AC JUMPI POP PUSH1 0x4 PUSH1 0x0 PUSH1 0x1 DUP4 PUSH2 0x108C SWAP2 SWAP1 PUSH2 0x3123 JUMP JUMPDEST DUP2 MSTORE PUSH1 0x20 ADD SWAP1 DUP2 MSTORE PUSH1 0x20 ADD PUSH1 0x0 KECCAK256 PUSH1 0x5 ADD PUSH1 0x0 SWAP1 SLOAD SWAP1 PUSH2 0x100 EXP SWAP1 DIV PUSH1 0xFF AND JUMPDEST ISZERO PUSH2 0x111C JUMPI PUSH2 0x10DD PUSH32 0x94655FC90AFF211A4FD97B69BF8B7A7E70E4EE2B5B92E7C2A291FFE4B3738CA9 PUSH1 0x0 SHL PUSH2 0x29F0 JUMP JUMPDEST PUSH2 0x1109 PUSH32 0xA010F200FF62DA7E2699BC406E06F78E24D01575730B932EDAB09FE92F1A46FE PUSH1 0x0 SHL PUSH2 0x29F0 JUMP JUMPDEST DUP3 DUP1 PUSH2 0x1114 SWAP1 PUSH2 0x3157 JUMP JUMPDEST SWAP4 POP POP PUSH2 0x1149 JUMP JUMPDEST PUSH2 0x1148 PUSH32 0xAF975663762D81C50D0BE51B6048EF4C8B237E1C4161AA9469BCCABF40E5876F PUSH1 0x0 SHL PUSH2 0x29F0 JUMP JUMPDEST JUMPDEST DUP1 DUP1 PUSH2 0x1154 SWAP1 PUSH2 0x3157 JUMP JUMPDEST SWAP2 POP POP PUSH2 0xFA3 JUMP JUMPDEST POP PUSH2 0x1189 PUSH32 0x68559CD5F3724825721D267925427C8BD38735A061D0BD6050FFEB38622F6228 PUSH1 0x0 SHL PUSH2 0x29F0 JUMP JUMPDEST PUSH2 0x11B5 PUSH32 0x82A12DFDFB3C1066390FA06651AC6C44D0700C494D8D7496C3994BBE7688ADC4 PUSH1 0x0 SHL PUSH2 0x29F0 JUMP JUMPDEST PUSH1 0x0 DUP3 PUSH8 0xFFFFFFFFFFFFFFFF DUP2 GT ISZERO PUSH2 0x11D1 JUMPI PUSH2 0x11D0 PUSH2 0x319F JUMP JUMPDEST JUMPDEST PUSH1 0x40 MLOAD SWAP1 DUP1 DUP3 MSTORE DUP1 PUSH1 0x20 MUL PUSH1 0x20 ADD DUP3 ADD PUSH1 0x40 MSTORE DUP1 ISZERO PUSH2 0x120A JUMPI DUP2 PUSH1 0x20 ADD JUMPDEST PUSH2 0x11F7 PUSH2 0x2A70 JUMP JUMPDEST DUP2 MSTORE PUSH1 0x20 ADD SWAP1 PUSH1 0x1 SWAP1 SUB SWAP1 DUP2 PUSH2 0x11EF JUMPI SWAP1 POP JUMPDEST POP SWAP1 POP PUSH2 0x1239 PUSH32 0x430868C0E226745B9DD17C172532CF95165F8A79A6F67843CB474B49F6A8D8BD PUSH1 0x0 SHL PUSH2 0x29F0 JUMP JUMPDEST PUSH2 0x1265 PUSH32 0xD9DF5CD504EC417BE25CB4995155B9BAE697F6E664E229B11186A6D7E9CB5ECC PUSH1 0x0 SHL PUSH2 0x29F0 JUMP JUMPDEST PUSH1 0x0 JUMPDEST DUP5 DUP2 LT ISZERO PUSH2 0x15F2 JUMPI PUSH2 0x129C PUSH32 0xCB7AB04D2B3C2A4A354FF33583A8D199A314738E21362816DE78BBC02F3A570A PUSH1 0x0 SHL PUSH2 0x29F0 JUMP JUMPDEST PUSH2 0x12C8 PUSH32 0x8B29A01BCDF226F5FFAE748B642D3622C616F225725E90A938F1253B171608E7 PUSH1 0x0 SHL PUSH2 0x29F0 JUMP JUMPDEST CALLER PUSH20 0xFFFFFFFFFFFFFFFFFFFFFFFFFFFFFFFFFFFFFFFF AND PUSH1 0x4 PUSH1 0x0 PUSH1 0x1 DUP5 PUSH2 0x12F0 SWAP2 SWAP1 PUSH2 0x3123 JUMP JUMPDEST DUP2 MSTORE PUSH1 0x20 ADD SWAP1 DUP2 MSTORE PUSH1 0x20 ADD PUSH1 0x0 KECCAK256 PUSH1 0x2 ADD PUSH1 0x0 SWAP1 SLOAD SWAP1 PUSH2 0x100 EXP SWAP1 DIV PUSH20 0xFFFFFFFFFFFFFFFFFFFFFFFFFFFFFFFFFFFFFFFF AND PUSH20 0xFFFFFFFFFFFFFFFFFFFFFFFFFFFFFFFFFFFFFFFF AND EQ DUP1 ISZERO PUSH2 0x1371 JUMPI POP PUSH1 0x4 PUSH1 0x0 PUSH1 0x1 DUP4 PUSH2 0x1351 SWAP2 SWAP1 PUSH2 0x3123 JUMP JUMPDEST DUP2 MSTORE PUSH1 0x20 ADD SWAP1 DUP2 MSTORE PUSH1 0x20 ADD PUSH1 0x0 KECCAK256 PUSH1 0x5 ADD PUSH1 0x0 SWAP1 SLOAD SWAP1 PUSH2 0x100 EXP SWAP1 DIV PUSH1 0xFF AND JUMPDEST ISZERO PUSH2 0x15B2 JUMPI PUSH2 0x13A2 PUSH32 0x90428067D95FE06DACC321C326E10EFAB67EF5C4ECC06F8D53220A5FB9926D92 PUSH1 0x0 SHL PUSH2 0x29F0 JUMP JUMPDEST PUSH2 0x13CE PUSH32 0xA1E420D07EE1C5A3EC9D8131D29F72BAF96FC7C55A326DE2D59A81A644708463 PUSH1 0x0 SHL PUSH2 0x29F0 JUMP JUMPDEST PUSH2 0x13FA PUSH32 0x89AD209158ACC7C7877452279BB0E74B9EB367E88A759CA8D936D9707B1D6D5F PUSH1 0x0 SHL PUSH2 0x29F0 JUMP JUMPDEST PUSH1 0x4 PUSH1 0x0 PUSH1 0x1 DUP4 PUSH2 0x140B SWAP2 SWAP1 PUSH2 0x3123 JUMP JUMPDEST DUP2 MSTORE PUSH1 0x20 ADD SWAP1 DUP2 MSTORE PUSH1 0x20 ADD PUSH1 0x0 KECCAK256 PUSH1 0x40 MLOAD DUP1 PUSH1 0xC0 ADD PUSH1 0x40 MSTORE SWAP1 DUP2 PUSH1 0x0 DUP3 ADD SLOAD DUP2 MSTORE PUSH1 0x20 ADD PUSH1 0x1 DUP3 ADD PUSH1 0x0 SWAP1 SLOAD SWAP1 PUSH2 0x100 EXP SWAP1 DIV PUSH20 0xFFFFFFFFFFFFFFFFFFFFFFFFFFFFFFFFFFFFFFFF AND PUSH20 0xFFFFFFFFFFFFFFFFFFFFFFFFFFFFFFFFFFFFFFFF AND PUSH20 0xFFFFFFFFFFFFFFFFFFFFFFFFFFFFFFFFFFFFFFFF AND DUP2 MSTORE PUSH1 0x20 ADD PUSH1 0x2 DUP3 ADD PUSH1 0x0 SWAP1 SLOAD SWAP1 PUSH2 0x100 EXP SWAP1 DIV PUSH20 0xFFFFFFFFFFFFFFFFFFFFFFFFFFFFFFFFFFFFFFFF AND PUSH20 0xFFFFFFFFFFFFFFFFFFFFFFFFFFFFFFFFFFFFFFFF AND PUSH20 0xFFFFFFFFFFFFFFFFFFFFFFFFFFFFFFFFFFFFFFFF AND DUP2 MSTORE PUSH1 0x20 ADD PUSH1 0x3 DUP3 ADD PUSH1 0x0 SWAP1 SLOAD SWAP1 PUSH2 0x100 EXP SWAP1 DIV PUSH20 0xFFFFFFFFFFFFFFFFFFFFFFFFFFFFFFFFFFFFFFFF AND PUSH20 0xFFFFFFFFFFFFFFFFFFFFFFFFFFFFFFFFFFFFFFFF AND PUSH20 0xFFFFFFFFFFFFFFFFFFFFFFFFFFFFFFFFFFFFFFFF AND DUP2 MSTORE PUSH1 0x20 ADD PUSH1 0x4 DUP3 ADD SLOAD DUP2 MSTORE PUSH1 0x20 ADD PUSH1 0x5 DUP3 ADD PUSH1 0x0 SWAP1 SLOAD SWAP1 PUSH2 0x100 EXP SWAP1 DIV PUSH1 0xFF AND ISZERO ISZERO ISZERO ISZERO DUP2 MSTORE POP POP DUP3 DUP5 DUP2 MLOAD DUP2 LT PUSH2 0x1568 JUMPI PUSH2 0x1567 PUSH2 0x31CE JUMP JUMPDEST JUMPDEST PUSH1 0x20 MUL PUSH1 0x20 ADD ADD DUP2 SWAP1 MSTORE POP PUSH2 0x159F PUSH32 0x905FFF11DDD22903F3BC38184FEB19BEE2545547CF17EDF6E3DF8741C2D12F32 PUSH1 0x0 SHL PUSH2 0x29F0 JUMP JUMPDEST DUP3 DUP1 PUSH2 0x15AA SWAP1 PUSH2 0x3157 JUMP JUMPDEST SWAP4 POP POP PUSH2 0x15DF JUMP JUMPDEST PUSH2 0x15DE PUSH32 0xFD38ECD8EBD628625DEC27B7BD1B460D166FBC9F766A2BB7E8BBF5ACFA0B590C PUSH1 0x0 SHL PUSH2 0x29F0 JUMP JUMPDEST JUMPDEST DUP1 DUP1 PUSH2 0x15EA SWAP1 PUSH2 0x3157 JUMP JUMPDEST SWAP2 POP POP PUSH2 0x1268 JUMP JUMPDEST POP PUSH2 0x161F PUSH32 0xDCEC3258222C134321071D80BCEC6910B67739BC707269F145AF0F13F0E98847 PUSH1 0x0 SHL PUSH2 0x29F0 JUMP JUMPDEST PUSH2 0x164B PUSH32 0xE674EE6254A810F0E817BDF74440BB28FF9F90BFF21F7C0BC77F2EB2CBEB75FF PUSH1 0x0 SHL PUSH2 0x29F0 JUMP JUMPDEST DUP1 SWAP5 POP POP POP POP POP SWAP1 JUMP JUMPDEST PUSH1 0x60 PUSH2 0x1683 PUSH32 0x68E449902209FC20012AF02E4693F511EAA05F97F50AA39BD69E0E8E227AA401 PUSH1 0x0 SHL PUSH2 0x29F0 JUMP JUMPDEST PUSH2 0x16AF PUSH32 0x4C6F3144AD11AC31592D5798A693B86DC86AA6EB2ECD2FE3D1E29B5BB0ABA489 PUSH1 0x0 SHL PUSH2 0x29F0 JUMP JUMPDEST PUSH2 0x16DB PUSH32 0x3707EB82AF6BCB4ECA5033573765A29F2CDEB70479746828655DA3E7F4DA963D PUSH1 0x0 SHL PUSH2 0x29F0 JUMP JUMPDEST PUSH1 0x0 PUSH2 0x16E7 PUSH1 0x1 PUSH2 0x2A62 JUMP JUMPDEST SWAP1 POP PUSH2 0x1715 PUSH32 0x84528825F54FE46346E3E9F6EC2D4797E07CCBD87A978110DBC58C130D161D7D PUSH1 0x0 SHL PUSH2 0x29F0 JUMP JUMPDEST PUSH2 0x1741 PUSH32 0x14431ED3CA89FDAB4A3B69AEB459DEF71EFD8E859ABEB3E800F4616B73857A81 PUSH1 0x0 SHL PUSH2 0x29F0 JUMP JUMPDEST PUSH1 0x0 PUSH2 0x176F PUSH32 0x21EFED54065C973BD52A855622ABB96F17D1DF34A20A2345B59F5E43E83C8162 PUSH1 0x0 SHL PUSH2 0x29F0 JUMP JUMPDEST PUSH2 0x179B PUSH32 0xA7305D663D62DBC6B76E4D5BBBDD6542E2C5D8E76055A22E9287D2C24240115D PUSH1 0x0 SHL PUSH2 0x29F0 JUMP JUMPDEST PUSH1 0x0 PUSH2 0x17C9 PUSH32 0x5798592B6999D9005E50D8E40D55B16A4A81CFA06FB01A7F4B26A20E4DCF303E PUSH1 0x0 SHL PUSH2 0x29F0 JUMP JUMPDEST PUSH2 0x17F5 PUSH32 0x645A9E00C61D3AD351864F719B20F5AD155E880D98CDDEA21081A31B0AEF761D PUSH1 0x0 SHL PUSH2 0x29F0 JUMP JUMPDEST PUSH1 0x0 JUMPDEST DUP4 DUP2 LT ISZERO PUSH2 0x1978 JUMPI PUSH2 0x182C PUSH32 0x8E8DF3558F26BDBCDB5FD66902D1C4B06F76EB2C67A73C6D1CE1AB76E19F7093 PUSH1 0x0 SHL PUSH2 0x29F0 JUMP JUMPDEST PUSH2 0x1858 PUSH32 0xF92A1EEE2FF4CA4831BD4E8199BD2D6EE6199AF4709D24CCA4C28B02925F0663 PUSH1 0x0 SHL PUSH2 0x29F0 JUMP JUMPDEST CALLER PUSH20 0xFFFFFFFFFFFFFFFFFFFFFFFFFFFFFFFFFFFFFFFF AND PUSH1 0x4 PUSH1 0x0 PUSH1 0x1 DUP5 PUSH2 0x1880 SWAP2 SWAP1 PUSH2 0x3123 JUMP JUMPDEST DUP2 MSTORE PUSH1 0x20 ADD SWAP1 DUP2 MSTORE PUSH1 0x20 ADD PUSH1 0x0 KECCAK256 PUSH1 0x3 ADD PUSH1 0x0 SWAP1 SLOAD SWAP1 PUSH2 0x100 EXP SWAP1 DIV PUSH20 0xFFFFFFFFFFFFFFFFFFFFFFFFFFFFFFFFFFFFFFFF AND PUSH20 0xFFFFFFFFFFFFFFFFFFFFFFFFFFFFFFFFFFFFFFFF AND SUB PUSH2 0x1938 JUMPI PUSH2 0x18F9 PUSH32 0xBEC94FCB6AA2F84B58FA2FDA82EA179ADEA924D7FE9AEDBB23BFB9400E5B33DD PUSH1 0x0 SHL PUSH2 0x29F0 JUMP JUMPDEST PUSH2 0x1925 PUSH32 0x8BEDD54B0FA9B1ADCB22DD0E319DC390578708B5A0F17DBDBA03EE78D42FC7F9 PUSH1 0x0 SHL PUSH2 0x29F0 JUMP JUMPDEST DUP3 DUP1 PUSH2 0x1930 SWAP1 PUSH2 0x3157 JUMP JUMPDEST SWAP4 POP POP PUSH2 0x1965 JUMP JUMPDEST PUSH2 0x1964 PUSH32 0xDE8044DF9044CA6E6155F7D3497F6329BA665F470B6E2CF04D3AC312B4267A2F PUSH1 0x0 SHL PUSH2 0x29F0 JUMP JUMPDEST JUMPDEST DUP1 DUP1 PUSH2 0x1970 SWAP1 PUSH2 0x3157 JUMP JUMPDEST SWAP2 POP POP PUSH2 0x17F8 JUMP JUMPDEST POP PUSH2 0x19A5 PUSH32 0x886F938E03C3D3CB6DD9DAE897D5A1EBCE99B64D68FAE538FE739A86D8673526 PUSH1 0x0 SHL PUSH2 0x29F0 JUMP JUMPDEST PUSH2 0x19D1 PUSH32 0x4FB0FC158EF7D51B6210CCB8322EC662FF2A00B9E09F7417CB09B00B37F52CA7 PUSH1 0x0 SHL PUSH2 0x29F0 JUMP JUMPDEST PUSH1 0x0 DUP3 PUSH8 0xFFFFFFFFFFFFFFFF DUP2 GT ISZERO PUSH2 0x19ED JUMPI PUSH2 0x19EC PUSH2 0x319F JUMP JUMPDEST JUMPDEST PUSH1 0x40 MLOAD SWAP1 DUP1 DUP3 MSTORE DUP1 PUSH1 0x20 MUL PUSH1 0x20 ADD DUP3 ADD PUSH1 0x40 MSTORE DUP1 ISZERO PUSH2 0x1A26 JUMPI DUP2 PUSH1 0x20 ADD JUMPDEST PUSH2 0x1A13 PUSH2 0x2A70 JUMP JUMPDEST DUP2 MSTORE PUSH1 0x20 ADD SWAP1 PUSH1 0x1 SWAP1 SUB SWAP1 DUP2 PUSH2 0x1A0B JUMPI SWAP1 POP JUMPDEST POP SWAP1 POP PUSH2 0x1A55 PUSH32 0x5C6536C5A51E290F0829AD24477736A4E53736463D0A085DDC863D3E5F88C679 PUSH1 0x0 SHL PUSH2 0x29F0 JUMP JUMPDEST PUSH2 0x1A81 PUSH32 0xD1698DB376B9245311C8EB24867E222F97E4E1211690B47C01B2906B89A98A8F PUSH1 0x0 SHL PUSH2 0x29F0 JUMP JUMPDEST PUSH1 0x0 JUMPDEST DUP5 DUP2 LT ISZERO PUSH2 0x1DD5 JUMPI PUSH2 0x1AB8 PUSH32 0xAD749E0E8FF4CB6E57FF45E24E6C7ACC4CDD0EF54E4326E381C74864B172C540 PUSH1 0x0 SHL PUSH2 0x29F0 JUMP JUMPDEST PUSH2 0x1AE4 PUSH32 0x8723DD73FCC3144D728B777B24F75A8E4362536800F9AC43DBF573AD286C6622 PUSH1 0x0 SHL PUSH2 0x29F0 JUMP JUMPDEST CALLER PUSH20 0xFFFFFFFFFFFFFFFFFFFFFFFFFFFFFFFFFFFFFFFF AND PUSH1 0x4 PUSH1 0x0 PUSH1 0x1 DUP5 PUSH2 0x1B0C SWAP2 SWAP1 PUSH2 0x3123 JUMP JUMPDEST DUP2 MSTORE PUSH1 0x20 ADD SWAP1 DUP2 MSTORE PUSH1 0x20 ADD PUSH1 0x0 KECCAK256 PUSH1 0x3 ADD PUSH1 0x0 SWAP1 SLOAD SWAP1 PUSH2 0x100 EXP SWAP1 DIV PUSH20 0xFFFFFFFFFFFFFFFFFFFFFFFFFFFFFFFFFFFFFFFF AND PUSH20 0xFFFFFFFFFFFFFFFFFFFFFFFFFFFFFFFFFFFFFFFF AND SUB PUSH2 0x1D95 JUMPI PUSH2 0x1B85 PUSH32 0xFA6FA261CD2EB1343B9269C51B7BFC63B6556C5FABEFD42717A31D3259545B63 PUSH1 0x0 SHL PUSH2 0x29F0 JUMP JUMPDEST PUSH2 0x1BB1 PUSH32 0xB1474163E8CDE7BB49044318458810D6DA5AD0C5A206B452BF07C00FC851432 PUSH1 0x0 SHL PUSH2 0x29F0 JUMP JUMPDEST PUSH2 0x1BDD PUSH32 0xAAA90F856C74FDFEF4F162B63C7516F1BCBCD30E27BBF467618C11E0E49A1E45 PUSH1 0x0 SHL PUSH2 0x29F0 JUMP JUMPDEST PUSH1 0x4 PUSH1 0x0 PUSH1 0x1 DUP4 PUSH2 0x1BEE SWAP2 SWAP1 PUSH2 0x3123 JUMP JUMPDEST DUP2 MSTORE PUSH1 0x20 ADD SWAP1 DUP2 MSTORE PUSH1 0x20 ADD PUSH1 0x0 KECCAK256 PUSH1 0x40 MLOAD DUP1 PUSH1 0xC0 ADD PUSH1 0x40 MSTORE SWAP1 DUP2 PUSH1 0x0 DUP3 ADD SLOAD DUP2 MSTORE PUSH1 0x20 ADD PUSH1 0x1 DUP3 ADD PUSH1 0x0 SWAP1 SLOAD SWAP1 PUSH2 0x100 EXP SWAP1 DIV PUSH20 0xFFFFFFFFFFFFFFFFFFFFFFFFFFFFFFFFFFFFFFFF AND PUSH20 0xFFFFFFFFFFFFFFFFFFFFFFFFFFFFFFFFFFFFFFFF AND PUSH20 0xFFFFFFFFFFFFFFFFFFFFFFFFFFFFFFFFFFFFFFFF AND DUP2 MSTORE PUSH1 0x20 ADD PUSH1 0x2 DUP3 ADD PUSH1 0x0 SWAP1 SLOAD SWAP1 PUSH2 0x100 EXP SWAP1 DIV PUSH20 0xFFFFFFFFFFFFFFFFFFFFFFFFFFFFFFFFFFFFFFFF AND PUSH20 0xFFFFFFFFFFFFFFFFFFFFFFFFFFFFFFFFFFFFFFFF AND PUSH20 0xFFFFFFFFFFFFFFFFFFFFFFFFFFFFFFFFFFFFFFFF AND DUP2 MSTORE PUSH1 0x20 ADD PUSH1 0x3 DUP3 ADD PUSH1 0x0 SWAP1 SLOAD SWAP1 PUSH2 0x100 EXP SWAP1 DIV PUSH20 0xFFFFFFFFFFFFFFFFFFFFFFFFFFFFFFFFFFFFFFFF AND PUSH20 0xFFFFFFFFFFFFFFFFFFFFFFFFFFFFFFFFFFFFFFFF AND PUSH20 0xFFFFFFFFFFFFFFFFFFFFFFFFFFFFFFFFFFFFFFFF AND DUP2 MSTORE PUSH1 0x20 ADD PUSH1 0x4 DUP3 ADD SLOAD DUP2 MSTORE PUSH1 0x20 ADD PUSH1 0x5 DUP3 ADD PUSH1 0x0 SWAP1 SLOAD SWAP1 PUSH2 0x100 EXP SWAP1 DIV PUSH1 0xFF AND ISZERO ISZERO ISZERO ISZERO DUP2 MSTORE POP POP DUP3 DUP5 DUP2 MLOAD DUP2 LT PUSH2 0x1D4B JUMPI PUSH2 0x1D4A PUSH2 0x31CE JUMP JUMPDEST JUMPDEST PUSH1 0x20 MUL PUSH1 0x20 ADD ADD DUP2 SWAP1 MSTORE POP PUSH2 0x1D82 PUSH32 0xEB74B06AC2339A4A794B2797FAD8F98A50A37B2B2104BBFD090747015100116A PUSH1 0x0 SHL PUSH2 0x29F0 JUMP JUMPDEST DUP3 DUP1 PUSH2 0x1D8D SWAP1 PUSH2 0x3157 JUMP JUMPDEST SWAP4 POP POP PUSH2 0x1DC2 JUMP JUMPDEST PUSH2 0x1DC1 PUSH32 0xC7FED0AA5126941887DE027BAD72D5003CA4866A44B60C25CBFD04183B450B74 PUSH1 0x0 SHL PUSH2 0x29F0 JUMP JUMPDEST JUMPDEST DUP1 DUP1 PUSH2 0x1DCD SWAP1 PUSH2 0x3157 JUMP JUMPDEST SWAP2 POP POP PUSH2 0x1A84 JUMP JUMPDEST POP PUSH2 0x1E02 PUSH32 0x4CB8EF5BDAE432DBCA6ABD312C32130C1CC747722DC3FE72974B58E04F33039B PUSH1 0x0 SHL PUSH2 0x29F0 JUMP JUMPDEST PUSH2 0x1E2E PUSH32 0x3C4263658ECB66B5CE650F31D3C0377D32DD3418E65C4D1A235C02AE4C379BC0 PUSH1 0x0 SHL PUSH2 0x29F0 JUMP JUMPDEST DUP1 SWAP5 POP POP POP POP POP SWAP1 JUMP JUMPDEST PUSH2 0x1E40 PUSH2 0x29F3 JUMP JUMPDEST PUSH2 0x1E6C PUSH32 0xF1C0689B609DFC47A5CFB824A463B5981082977D17F1381CFCF2999DF05733F8 PUSH1 0x0 SHL PUSH2 0x29F0 JUMP JUMPDEST PUSH2 0x1E98 PUSH32 0x36D25C6B0E44484AF50769882619F7E02CBE12148DE5682AF518622DB9EE48ED PUSH1 0x0 SHL PUSH2 0x29F0 JUMP JUMPDEST PUSH2 0x1EC4 PUSH32 0x9C369A21E04EC2D0B268C9D9E8230A5ED7ABC873C976A157AB07E8D4840A3FEC PUSH1 0x0 SHL PUSH2 0x29F0 JUMP JUMPDEST PUSH2 0x1EF0 PUSH32 0xD8B5447837882CA6EC4DE8A1936E65202C1706DD89B212723A2EF76AF040E84A PUSH1 0x0 SHL PUSH2 0x29F0 JUMP JUMPDEST PUSH1 0x0 DUP2 GT PUSH2 0x1F33 JUMPI PUSH1 0x40 MLOAD PUSH32 0x8C379A000000000000000000000000000000000000000000000000000000000 DUP2 MSTORE PUSH1 0x4 ADD PUSH2 0x1F2A SWAP1 PUSH2 0x3249 JUMP JUMPDEST PUSH1 0x40 MLOAD DUP1 SWAP2 SUB SWAP1 REVERT JUMPDEST PUSH2 0x1F5F PUSH32 0x1385D333420094DA770A436E27E88500F579884EA4B3B2CDCC97ACD5D075B005 PUSH1 0x0 SHL PUSH2 0x29F0 JUMP JUMPDEST PUSH2 0x1F8B PUSH32 0x6C273AC6F6B1621377CE9A3510C0D0E4D38ED5CFDBC640B8F7B76FDFC917EBB1 PUSH1 0x0 SHL PUSH2 0x29F0 JUMP JUMPDEST PUSH2 0x1FB7 PUSH32 0x8A5C11D228053CC01A9BFFD467F8AFEAD0BDE8BCE75C327323DA3C035EDEF1C6 PUSH1 0x0 SHL PUSH2 0x29F0 JUMP JUMPDEST PUSH2 0x1FE3 PUSH32 0x2F52CB612C19519DA2568269B65B2B69BE9C6603A0642BE51024B664676040FF PUSH1 0x0 SHL PUSH2 0x29F0 JUMP JUMPDEST PUSH2 0x1FEC DUP2 PUSH2 0x412 JUMP JUMPDEST CALLVALUE EQ PUSH2 0x202D JUMPI PUSH1 0x40 MLOAD PUSH32 0x8C379A000000000000000000000000000000000000000000000000000000000 DUP2 MSTORE PUSH1 0x4 ADD PUSH2 0x2024 SWAP1 PUSH2 0x32B5 JUMP JUMPDEST PUSH1 0x40 MLOAD DUP1 SWAP2 SUB SWAP1 REVERT JUMPDEST PUSH2 0x2059 PUSH32 0x3E0F0D2B1B2B9349BC9D43C3660939F1F3E09D33D606825AE3B46B030219D7C8 PUSH1 0x0 SHL PUSH2 0x29F0 JUMP JUMPDEST PUSH2 0x2085 PUSH32 0x997F0B6D33D8BB6D93AB19D27B474E6A507E4EF293B855AAD06E61C45965E004 PUSH1 0x0 SHL PUSH2 0x29F0 JUMP JUMPDEST PUSH2 0x20B1 PUSH32 0xA76FBE0D76739AB9F126C31EF7FADBC18F856F0E8593457E5E7C9A208BBDD38 PUSH1 0x0 SHL PUSH2 0x29F0 JUMP JUMPDEST DUP3 PUSH20 0xFFFFFFFFFFFFFFFFFFFFFFFFFFFFFFFFFFFFFFFF AND PUSH4 0x23B872DD CALLER ADDRESS DUP6 PUSH1 0x40 MLOAD DUP5 PUSH4 0xFFFFFFFF AND PUSH1 0xE0 SHL DUP2 MSTORE PUSH1 0x4 ADD PUSH2 0x20EE SWAP4 SWAP3 SWAP2 SWAP1 PUSH2 0x301D JUMP JUMPDEST PUSH1 0x0 PUSH1 0x40 MLOAD DUP1 DUP4 SUB DUP2 PUSH1 0x0 DUP8 DUP1 EXTCODESIZE ISZERO DUP1 ISZERO PUSH2 0x2108 JUMPI PUSH1 0x0 DUP1 REVERT JUMPDEST POP GAS CALL ISZERO DUP1 ISZERO PUSH2 0x211C JUMPI RETURNDATASIZE PUSH1 0x0 DUP1 RETURNDATACOPY RETURNDATASIZE PUSH1 0x0 REVERT JUMPDEST POP POP POP POP PUSH2 0x214C PUSH32 0xE922833632DECDDECAC7460869128677150A19D608EFAC8DDD8FFA41C1ABFE1B PUSH1 0x0 SHL PUSH2 0x29F0 JUMP JUMPDEST PUSH2 0x2178 PUSH32 0xC4E85B8D9C1B298FD93EFC500081CDCDC3AB29683A78C211A27599A845EDECC6 PUSH1 0x0 SHL PUSH2 0x29F0 JUMP JUMPDEST PUSH2 0x2182 PUSH1 0x1 PUSH2 0x2A42 JUMP JUMPDEST PUSH2 0x21AE PUSH32 0xFFC49382A67570A05AB22574A9A6FD560C37B751A6E174BC69C5551C2B61760C PUSH1 0x0 SHL PUSH2 0x29F0 JUMP JUMPDEST PUSH2 0x21DA PUSH32 0xA3024D371B8C120D3F7EF4A963B884BFC5DA5C106607A922526632D98C8B5DCD PUSH1 0x0 SHL PUSH2 0x29F0 JUMP JUMPDEST PUSH1 0x40 MLOAD DUP1 PUSH1 0xC0 ADD PUSH1 0x40 MSTORE DUP1 DUP4 DUP2 MSTORE PUSH1 0x20 ADD DUP5 PUSH20 0xFFFFFFFFFFFFFFFFFFFFFFFFFFFFFFFFFFFFFFFF AND DUP2 MSTORE PUSH1 0x20 ADD CALLER PUSH20 0xFFFFFFFFFFFFFFFFFFFFFFFFFFFFFFFFFFFFFFFF AND DUP2 MSTORE PUSH1 0x20 ADD ADDRESS PUSH20 0xFFFFFFFFFFFFFFFFFFFFFFFFFFFFFFFFFFFFFFFF AND DUP2 MSTORE PUSH1 0x20 ADD DUP3 DUP2 MSTORE PUSH1 0x20 ADD PUSH1 0x1 ISZERO ISZERO DUP2 MSTORE POP PUSH1 0x4 PUSH1 0x0 DUP5 DUP2 MSTORE PUSH1 0x20 ADD SWAP1 DUP2 MSTORE PUSH1 0x20 ADD PUSH1 0x0 KECCAK256 PUSH1 0x0 DUP3 ADD MLOAD DUP2 PUSH1 0x0 ADD SSTORE PUSH1 0x20 DUP3 ADD MLOAD DUP2 PUSH1 0x1 ADD PUSH1 0x0 PUSH2 0x100 EXP DUP2 SLOAD DUP2 PUSH20 0xFFFFFFFFFFFFFFFFFFFFFFFFFFFFFFFFFFFFFFFF MUL NOT AND SWAP1 DUP4 PUSH20 0xFFFFFFFFFFFFFFFFFFFFFFFFFFFFFFFFFFFFFFFF AND MUL OR SWAP1 SSTORE POP PUSH1 0x40 DUP3 ADD MLOAD DUP2 PUSH1 0x2 ADD PUSH1 0x0 PUSH2 0x100 EXP DUP2 SLOAD DUP2 PUSH20 0xFFFFFFFFFFFFFFFFFFFFFFFFFFFFFFFFFFFFFFFF MUL NOT AND SWAP1 DUP4 PUSH20 0xFFFFFFFFFFFFFFFFFFFFFFFFFFFFFFFFFFFFFFFF AND MUL OR SWAP1 SSTORE POP PUSH1 0x60 DUP3 ADD MLOAD DUP2 PUSH1 0x3 ADD PUSH1 0x0 PUSH2 0x100 EXP DUP2 SLOAD DUP2 PUSH20 0xFFFFFFFFFFFFFFFFFFFFFFFFFFFFFFFFFFFFFFFF MUL NOT AND SWAP1 DUP4 PUSH20 0xFFFFFFFFFFFFFFFFFFFFFFFFFFFFFFFFFFFFFFFF AND MUL OR SWAP1 SSTORE POP PUSH1 0x80 DUP3 ADD MLOAD DUP2 PUSH1 0x4 ADD SSTORE PUSH1 0xA0 DUP3 ADD MLOAD DUP2 PUSH1 0x5 ADD PUSH1 0x0 PUSH2 0x100 EXP DUP2 SLOAD DUP2 PUSH1 0xFF MUL NOT AND SWAP1 DUP4 ISZERO ISZERO MUL OR SWAP1 SSTORE POP SWAP1 POP POP PUSH2 0x2397 PUSH32 0x1C35A1776B4F72DDE9C6EAF2D8C595A27BE611F77DB2C9C3DDD3EA591B7EF8B5 PUSH1 0x0 SHL PUSH2 0x29F0 JUMP JUMPDEST PUSH2 0x23C3 PUSH32 0x4232203C83AAE3DAA4119E700395E178AC6BD7C373951B4458D862A1F52E7759 PUSH1 0x0 SHL PUSH2 0x29F0 JUMP JUMPDEST PUSH32 0x2FED4F756D9A7CE2B0F2A370744DE88BD760329629D71A136952CEF0BBD5E354 DUP3 DUP5 CALLER ADDRESS DUP6 PUSH1 0x1 PUSH1 0x40 MLOAD PUSH2 0x23FD SWAP7 SWAP6 SWAP5 SWAP4 SWAP3 SWAP2 SWAP1 PUSH2 0x32D5 JUMP JUMPDEST PUSH1 0x40 MLOAD DUP1 SWAP2 SUB SWAP1 LOG1 PUSH2 0x240D PUSH2 0x2A58 JUMP JUMPDEST POP POP POP JUMP JUMPDEST PUSH1 0x60 PUSH2 0x2440 PUSH32 0x8E0B3D8FBB205532E72F6570278B92AF37DFA0CD584C890F44FB31DA838991CE PUSH1 0x0 SHL PUSH2 0x29F0 JUMP JUMPDEST PUSH2 0x246C PUSH32 0x49BFB4829DB25DB8917BD4AEEB075DEBA17BB383E577F0F4CE38351B05A25745 PUSH1 0x0 SHL PUSH2 0x29F0 JUMP JUMPDEST PUSH2 0x2498 PUSH32 0xDA56C568501217941BB9242EC14BB134422CEB5DC04468F7718E13BD7E4C0AB PUSH1 0x0 SHL PUSH2 0x29F0 JUMP JUMPDEST PUSH1 0x0 PUSH2 0x24A4 PUSH1 0x1 PUSH2 0x2A62 JUMP JUMPDEST SWAP1 POP PUSH2 0x24D2 PUSH32 0x888B70693C22BDD2CFFE23982D7290AD0C70BB10AB6CB7AF512E9D98B27F3B78 PUSH1 0x0 SHL PUSH2 0x29F0 JUMP JUMPDEST PUSH2 0x24FE PUSH32 0xC65D7012BBB0CEAC627FB077F7A5408015F072D173ABD04A45698967D0435E67 PUSH1 0x0 SHL PUSH2 0x29F0 JUMP JUMPDEST PUSH1 0x0 PUSH2 0x250A PUSH1 0x2 PUSH2 0x2A62 JUMP JUMPDEST DUP3 PUSH2 0x2515 SWAP2 SWAP1 PUSH2 0x3336 JUMP JUMPDEST SWAP1 POP PUSH2 0x2543 PUSH32 0xF2DDE17B1076D033D612225201A318AC2A58E546FC41103174A517388B603E8D PUSH1 0x0 SHL PUSH2 0x29F0 JUMP JUMPDEST PUSH2 0x256F PUSH32 0x3B6A0B1DE7229793542DBABCA92D67E9B7926254D5AEFE5DDDD57A1C52489F01 PUSH1 0x0 SHL PUSH2 0x29F0 JUMP JUMPDEST PUSH1 0x0 DUP2 PUSH8 0xFFFFFFFFFFFFFFFF DUP2 GT ISZERO PUSH2 0x258B JUMPI PUSH2 0x258A PUSH2 0x319F JUMP JUMPDEST JUMPDEST PUSH1 0x40 MLOAD SWAP1 DUP1 DUP3 MSTORE DUP1 PUSH1 0x20 MUL PUSH1 0x20 ADD DUP3 ADD PUSH1 0x40 MSTORE DUP1 ISZERO PUSH2 0x25C4 JUMPI DUP2 PUSH1 0x20 ADD JUMPDEST PUSH2 0x25B1 PUSH2 0x2A70 JUMP JUMPDEST DUP2 MSTORE PUSH1 0x20 ADD SWAP1 PUSH1 0x1 SWAP1 SUB SWAP1 DUP2 PUSH2 0x25A9 JUMPI SWAP1 POP JUMPDEST POP SWAP1 POP PUSH2 0x25F3 PUSH32 0x60115D9CF9DCC1A8F7AECF3C893CDBAED12BD869B23C44E6A917D609D370FADB PUSH1 0x0 SHL PUSH2 0x29F0 JUMP JUMPDEST PUSH2 0x261F PUSH32 0x7CAC73774BDA567E4A3CFAF0AB61E4FC5AE0601D19910AB948427B8EF8FFC12 PUSH1 0x0 SHL PUSH2 0x29F0 JUMP JUMPDEST PUSH1 0x0 PUSH2 0x264D PUSH32 0x278B2754CA27D8A5740029E612469494ECC2989ED0DF4C89B7650CD79F23C151 PUSH1 0x0 SHL PUSH2 0x29F0 JUMP JUMPDEST PUSH2 0x2679 PUSH32 0x2279AFEBE49A3E974282F4D3184748F941F3ACD92C221D2F4156F31527B290FE PUSH1 0x0 SHL PUSH2 0x29F0 JUMP JUMPDEST PUSH1 0x0 JUMPDEST DUP5 DUP2 LT ISZERO PUSH2 0x298D JUMPI PUSH2 0x26B0 PUSH32 0xF7A53F847D6019025A86E54EA1AA5A516BB4868D027DF6E4B3CC42AAA3FF0766 PUSH1 0x0 SHL PUSH2 0x29F0 JUMP JUMPDEST PUSH2 0x26DC PUSH32 0x35682643696AA184EF67FC355DCCA01D191BA79B1C0C434405AAA27D2DE202B2 PUSH1 0x0 SHL PUSH2 0x29F0 JUMP JUMPDEST PUSH1 0x4 PUSH1 0x0 PUSH1 0x1 DUP4 PUSH2 0x26ED SWAP2 SWAP1 PUSH2 0x3123 JUMP JUMPDEST DUP2 MSTORE PUSH1 0x20 ADD SWAP1 DUP2 MSTORE PUSH1 0x20 ADD PUSH1 0x0 KECCAK256 PUSH1 0x5 ADD PUSH1 0x0 SWAP1 SLOAD SWAP1 PUSH2 0x100 EXP SWAP1 DIV PUSH1 0xFF AND ISZERO PUSH2 0x294D JUMPI PUSH2 0x273D PUSH32 0x55AF573F9CE16A2FF603C66A7078A7B64792157E165E9850E2E179AC7CD1E30 PUSH1 0x0 SHL PUSH2 0x29F0 JUMP JUMPDEST PUSH2 0x2769 PUSH32 0xBD74DA6453DB4097A8DAC49735C8E9A13E80DE24A3DEAF0671627E50DE43F5F9 PUSH1 0x0 SHL PUSH2 0x29F0 JUMP JUMPDEST PUSH2 0x2795 PUSH32 0x445FC05CBB8AEC71BC416364953710B6A2EA7EAA67F6B728AFCF118DB621AA77 PUSH1 0x0 SHL PUSH2 0x29F0 JUMP JUMPDEST PUSH1 0x4 PUSH1 0x0 PUSH1 0x1 DUP4 PUSH2 0x27A6 SWAP2 SWAP1 PUSH2 0x3123 JUMP JUMPDEST DUP2 MSTORE PUSH1 0x20 ADD SWAP1 DUP2 MSTORE PUSH1 0x20 ADD PUSH1 0x0 KECCAK256 PUSH1 0x40 MLOAD DUP1 PUSH1 0xC0 ADD PUSH1 0x40 MSTORE SWAP1 DUP2 PUSH1 0x0 DUP3 ADD SLOAD DUP2 MSTORE PUSH1 0x20 ADD PUSH1 0x1 DUP3 ADD PUSH1 0x0 SWAP1 SLOAD SWAP1 PUSH2 0x100 EXP SWAP1 DIV PUSH20 0xFFFFFFFFFFFFFFFFFFFFFFFFFFFFFFFFFFFFFFFF AND PUSH20 0xFFFFFFFFFFFFFFFFFFFFFFFFFFFFFFFFFFFFFFFF AND PUSH20 0xFFFFFFFFFFFFFFFFFFFFFFFFFFFFFFFFFFFFFFFF AND DUP2 MSTORE PUSH1 0x20 ADD PUSH1 0x2 DUP3 ADD PUSH1 0x0 SWAP1 SLOAD SWAP1 PUSH2 0x100 EXP SWAP1 DIV PUSH20 0xFFFFFFFFFFFFFFFFFFFFFFFFFFFFFFFFFFFFFFFF AND PUSH20 0xFFFFFFFFFFFFFFFFFFFFFFFFFFFFFFFFFFFFFFFF AND PUSH20 0xFFFFFFFFFFFFFFFFFFFFFFFFFFFFFFFFFFFFFFFF AND DUP2 MSTORE PUSH1 0x20 ADD PUSH1 0x3 DUP3 ADD PUSH1 0x0 SWAP1 SLOAD SWAP1 PUSH2 0x100 EXP SWAP1 DIV PUSH20 0xFFFFFFFFFFFFFFFFFFFFFFFFFFFFFFFFFFFFFFFF AND PUSH20 0xFFFFFFFFFFFFFFFFFFFFFFFFFFFFFFFFFFFFFFFF AND PUSH20 0xFFFFFFFFFFFFFFFFFFFFFFFFFFFFFFFFFFFFFFFF AND DUP2 MSTORE PUSH1 0x20 ADD PUSH1 0x4 DUP3 ADD SLOAD DUP2 MSTORE PUSH1 0x20 ADD PUSH1 0x5 DUP3 ADD PUSH1 0x0 SWAP1 SLOAD SWAP1 PUSH2 0x100 EXP SWAP1 DIV PUSH1 0xFF AND ISZERO ISZERO ISZERO ISZERO DUP2 MSTORE POP POP DUP4 DUP4 DUP2 MLOAD DUP2 LT PUSH2 0x2903 JUMPI PUSH2 0x2902 PUSH2 0x31CE JUMP JUMPDEST JUMPDEST PUSH1 0x20 MUL PUSH1 0x20 ADD ADD DUP2 SWAP1 MSTORE POP PUSH2 0x293A PUSH32 0x6515C901696E8B426DF3A510C4AD218A9FCEBB3E7DEE09B669DA5E5F700D80A4 PUSH1 0x0 SHL PUSH2 0x29F0 JUMP JUMPDEST DUP2 DUP1 PUSH2 0x2945 SWAP1 PUSH2 0x3157 JUMP JUMPDEST SWAP3 POP POP PUSH2 0x297A JUMP JUMPDEST PUSH2 0x2979 PUSH32 0x260E93C80F3AF57DCB92C1E5EAFF0B83BD29A1CF8B75EECCC1B7C7FB2D2DAA4F PUSH1 0x0 SHL PUSH2 0x29F0 JUMP JUMPDEST JUMPDEST DUP1 DUP1 PUSH2 0x2985 SWAP1 PUSH2 0x3157 JUMP JUMPDEST SWAP2 POP POP PUSH2 0x267C JUMP JUMPDEST POP PUSH2 0x29BA PUSH32 0xDB9B6028C556545BF4C6BA204AAE34F141C4E2A3255B6C51AA51D889D3A1F4F8 PUSH1 0x0 SHL PUSH2 0x29F0 JUMP JUMPDEST PUSH2 0x29E6 PUSH32 0xDE7AE6085860F763C3870C0620748EBD678D590304BFA238AF8F999AB7D2DDD4 PUSH1 0x0 SHL PUSH2 0x29F0 JUMP JUMPDEST DUP2 SWAP5 POP POP POP POP POP SWAP1 JUMP JUMPDEST POP JUMP JUMPDEST PUSH1 0x2 PUSH1 0x0 SLOAD SUB PUSH2 0x2A38 JUMPI PUSH1 0x40 MLOAD PUSH32 0x8C379A000000000000000000000000000000000000000000000000000000000 DUP2 MSTORE PUSH1 0x4 ADD PUSH2 0x2A2F SWAP1 PUSH2 0x33B6 JUMP JUMPDEST PUSH1 0x40 MLOAD DUP1 SWAP2 SUB SWAP1 REVERT JUMPDEST PUSH1 0x2 PUSH1 0x0 DUP2 SWAP1 SSTORE POP JUMP JUMPDEST PUSH1 0x1 DUP2 PUSH1 0x0 ADD PUSH1 0x0 DUP3 DUP3 SLOAD ADD SWAP3 POP POP DUP2 SWAP1 SSTORE POP POP JUMP JUMPDEST PUSH1 0x1 PUSH1 0x0 DUP2 SWAP1 SSTORE POP JUMP JUMPDEST PUSH1 0x0 DUP2 PUSH1 0x0 ADD SLOAD SWAP1 POP SWAP2 SWAP1 POP JUMP JUMPDEST PUSH1 0x40 MLOAD DUP1 PUSH1 0xC0 ADD PUSH1 0x40 MSTORE DUP1 PUSH1 0x0 DUP2 MSTORE PUSH1 0x20 ADD PUSH1 0x0 PUSH20 0xFFFFFFFFFFFFFFFFFFFFFFFFFFFFFFFFFFFFFFFF AND DUP2 MSTORE PUSH1 0x20 ADD PUSH1 0x0 PUSH20 0xFFFFFFFFFFFFFFFFFFFFFFFFFFFFFFFFFFFFFFFF AND DUP2 MSTORE PUSH1 0x20 ADD PUSH1 0x0 PUSH20 0xFFFFFFFFFFFFFFFFFFFFFFFFFFFFFFFFFFFFFFFF AND DUP2 MSTORE PUSH1 0x20 ADD PUSH1 0x0 DUP2 MSTORE PUSH1 0x20 ADD PUSH1 0x0 ISZERO ISZERO DUP2 MSTORE POP SWAP1 JUMP JUMPDEST PUSH1 0x0 PUSH20 0xFFFFFFFFFFFFFFFFFFFFFFFFFFFFFFFFFFFFFFFF DUP3 AND SWAP1 POP SWAP2 SWAP1 POP JUMP JUMPDEST PUSH1 0x0 PUSH2 0x2B15 DUP3 PUSH2 0x2AEA JUMP JUMPDEST SWAP1 POP SWAP2 SWAP1 POP JUMP JUMPDEST PUSH2 0x2B25 DUP2 PUSH2 0x2B0A JUMP JUMPDEST DUP3 MSTORE POP POP JUMP JUMPDEST PUSH1 0x0 PUSH1 0x20 DUP3 ADD SWAP1 POP PUSH2 0x2B40 PUSH1 0x0 DUP4 ADD DUP5 PUSH2 0x2B1C JUMP JUMPDEST SWAP3 SWAP2 POP POP JUMP JUMPDEST PUSH1 0x0 DUP1 REVERT JUMPDEST PUSH1 0x0 DUP2 SWAP1 POP SWAP2 SWAP1 POP JUMP JUMPDEST PUSH2 0x2B5E DUP2 PUSH2 0x2B4B JUMP JUMPDEST DUP2 EQ PUSH2 0x2B69 JUMPI PUSH1 0x0 DUP1 REVERT JUMPDEST POP JUMP JUMPDEST PUSH1 0x0 DUP2 CALLDATALOAD SWAP1 POP PUSH2 0x2B7B DUP2 PUSH2 0x2B55 JUMP JUMPDEST SWAP3 SWAP2 POP POP JUMP JUMPDEST PUSH1 0x0 PUSH1 0x20 DUP3 DUP5 SUB SLT ISZERO PUSH2 0x2B97 JUMPI PUSH2 0x2B96 PUSH2 0x2B46 JUMP JUMPDEST JUMPDEST PUSH1 0x0 PUSH2 0x2BA5 DUP5 DUP3 DUP6 ADD PUSH2 0x2B6C JUMP JUMPDEST SWAP2 POP POP SWAP3 SWAP2 POP POP JUMP JUMPDEST PUSH2 0x2BB7 DUP2 PUSH2 0x2B4B JUMP JUMPDEST DUP3 MSTORE POP POP JUMP JUMPDEST PUSH1 0x0 PUSH1 0x20 DUP3 ADD SWAP1 POP PUSH2 0x2BD2 PUSH1 0x0 DUP4 ADD DUP5 PUSH2 0x2BAE JUMP JUMPDEST SWAP3 SWAP2 POP POP JUMP JUMPDEST PUSH2 0x2BE1 DUP2 PUSH2 0x2B0A JUMP JUMPDEST DUP2 EQ PUSH2 0x2BEC JUMPI PUSH1 0x0 DUP1 REVERT JUMPDEST POP JUMP JUMPDEST PUSH1 0x0 DUP2 CALLDATALOAD SWAP1 POP PUSH2 0x2BFE DUP2 PUSH2 0x2BD8 JUMP JUMPDEST SWAP3 SWAP2 POP POP JUMP JUMPDEST PUSH1 0x0 DUP1 PUSH1 0x40 DUP4 DUP6 SUB SLT ISZERO PUSH2 0x2C1B JUMPI PUSH2 0x2C1A PUSH2 0x2B46 JUMP JUMPDEST JUMPDEST PUSH1 0x0 PUSH2 0x2C29 DUP6 DUP3 DUP7 ADD PUSH2 0x2BEF JUMP JUMPDEST SWAP3 POP POP PUSH1 0x20 PUSH2 0x2C3A DUP6 DUP3 DUP7 ADD PUSH2 0x2B6C JUMP JUMPDEST SWAP2 POP POP SWAP3 POP SWAP3 SWAP1 POP JUMP JUMPDEST PUSH1 0x0 DUP2 MLOAD SWAP1 POP SWAP2 SWAP1 POP JUMP JUMPDEST PUSH1 0x0 DUP3 DUP3 MSTORE PUSH1 0x20 DUP3 ADD SWAP1 POP SWAP3 SWAP2 POP POP JUMP JUMPDEST PUSH1 0x0 DUP2 SWAP1 POP PUSH1 0x20 DUP3 ADD SWAP1 POP SWAP2 SWAP1 POP JUMP JUMPDEST PUSH2 0x2C79 DUP2 PUSH2 0x2B4B JUMP JUMPDEST DUP3 MSTORE POP POP JUMP JUMPDEST PUSH2 0x2C88 DUP2 PUSH2 0x2B0A JUMP JUMPDEST DUP3 MSTORE POP POP JUMP JUMPDEST PUSH1 0x0 PUSH2 0x2C99 DUP3 PUSH2 0x2AEA JUMP JUMPDEST SWAP1 POP SWAP2 SWAP1 POP JUMP JUMPDEST PUSH2 0x2CA9 DUP2 PUSH2 0x2C8E JUMP JUMPDEST DUP3 MSTORE POP POP JUMP JUMPDEST PUSH1 0x0 DUP2 ISZERO ISZERO SWAP1 POP SWAP2 SWAP1 POP JUMP JUMPDEST PUSH2 0x2CC4 DUP2 PUSH2 0x2CAF JUMP JUMPDEST DUP3 MSTORE POP POP JUMP JUMPDEST PUSH1 0xC0 DUP3 ADD PUSH1 0x0 DUP3 ADD MLOAD PUSH2 0x2CE0 PUSH1 0x0 DUP6 ADD DUP3 PUSH2 0x2C70 JUMP JUMPDEST POP PUSH1 0x20 DUP3 ADD MLOAD PUSH2 0x2CF3 PUSH1 0x20 DUP6 ADD DUP3 PUSH2 0x2C7F JUMP JUMPDEST POP PUSH1 0x40 DUP3 ADD MLOAD PUSH2 0x2D06 PUSH1 0x40 DUP6 ADD DUP3 PUSH2 0x2CA0 JUMP JUMPDEST POP PUSH1 0x60 DUP3 ADD MLOAD PUSH2 0x2D19 PUSH1 0x60 DUP6 ADD DUP3 PUSH2 0x2CA0 JUMP JUMPDEST POP PUSH1 0x80 DUP3 ADD MLOAD PUSH2 0x2D2C PUSH1 0x80 DUP6 ADD DUP3 PUSH2 0x2C70 JUMP JUMPDEST POP PUSH1 0xA0 DUP3 ADD MLOAD PUSH2 0x2D3F PUSH1 0xA0 DUP6 ADD DUP3 PUSH2 0x2CBB JUMP JUMPDEST POP POP POP POP JUMP JUMPDEST PUSH1 0x0 PUSH2 0x2D51 DUP4 DUP4 PUSH2 0x2CCA JUMP JUMPDEST PUSH1 0xC0 DUP4 ADD SWAP1 POP SWAP3 SWAP2 POP POP JUMP JUMPDEST PUSH1 0x0 PUSH1 0x20 DUP3 ADD SWAP1 POP SWAP2 SWAP1 POP JUMP JUMPDEST PUSH1 0x0 PUSH2 0x2D75 DUP3 PUSH2 0x2C44 JUMP JUMPDEST PUSH2 0x2D7F DUP2 DUP6 PUSH2 0x2C4F JUMP JUMPDEST SWAP4 POP PUSH2 0x2D8A DUP4 PUSH2 0x2C60 JUMP JUMPDEST DUP1 PUSH1 0x0 JUMPDEST DUP4 DUP2 LT ISZERO PUSH2 0x2DBB JUMPI DUP2 MLOAD PUSH2 0x2DA2 DUP9 DUP3 PUSH2 0x2D45 JUMP JUMPDEST SWAP8 POP PUSH2 0x2DAD DUP4 PUSH2 0x2D5D JUMP JUMPDEST SWAP3 POP POP PUSH1 0x1 DUP2 ADD SWAP1 POP PUSH2 0x2D8E JUMP JUMPDEST POP DUP6 SWAP4 POP POP POP POP SWAP3 SWAP2 POP POP JUMP JUMPDEST PUSH1 0x0 PUSH1 0x20 DUP3 ADD SWAP1 POP DUP2 DUP2 SUB PUSH1 0x0 DUP4 ADD MSTORE PUSH2 0x2DE2 DUP2 DUP5 PUSH2 0x2D6A JUMP JUMPDEST SWAP1 POP SWAP3 SWAP2 POP POP JUMP JUMPDEST PUSH1 0x0 DUP1 PUSH1 0x0 PUSH1 0x60 DUP5 DUP7 SUB SLT ISZERO PUSH2 0x2E03 JUMPI PUSH2 0x2E02 PUSH2 0x2B46 JUMP JUMPDEST JUMPDEST PUSH1 0x0 PUSH2 0x2E11 DUP7 DUP3 DUP8 ADD PUSH2 0x2BEF JUMP JUMPDEST SWAP4 POP POP PUSH1 0x20 PUSH2 0x2E22 DUP7 DUP3 DUP8 ADD PUSH2 0x2B6C JUMP JUMPDEST SWAP3 POP POP PUSH1 0x40 PUSH2 0x2E33 DUP7 DUP3 DUP8 ADD PUSH2 0x2B6C JUMP JUMPDEST SWAP2 POP POP SWAP3 POP SWAP3 POP SWAP3 JUMP JUMPDEST PUSH1 0x0 DUP3 DUP3 MSTORE PUSH1 0x20 DUP3 ADD SWAP1 POP SWAP3 SWAP2 POP POP JUMP JUMPDEST PUSH32 0x4F6E6C7920746865206D61726B6574206F776E65722063616E20706572666F72 PUSH1 0x0 DUP3 ADD MSTORE PUSH32 0x6D207468697320616374696F6E00000000000000000000000000000000000000 PUSH1 0x20 DUP3 ADD MSTORE POP JUMP JUMPDEST PUSH1 0x0 PUSH2 0x2EAA PUSH1 0x2D DUP4 PUSH2 0x2E3D JUMP JUMPDEST SWAP2 POP PUSH2 0x2EB5 DUP3 PUSH2 0x2E4E JUMP JUMPDEST PUSH1 0x40 DUP3 ADD SWAP1 POP SWAP2 SWAP1 POP JUMP JUMPDEST PUSH1 0x0 PUSH1 0x20 DUP3 ADD SWAP1 POP DUP2 DUP2 SUB PUSH1 0x0 DUP4 ADD MSTORE PUSH2 0x2ED9 DUP2 PUSH2 0x2E9D JUMP JUMPDEST SWAP1 POP SWAP2 SWAP1 POP JUMP JUMPDEST PUSH32 0x4E487B7100000000000000000000000000000000000000000000000000000000 PUSH1 0x0 MSTORE PUSH1 0x11 PUSH1 0x4 MSTORE PUSH1 0x24 PUSH1 0x0 REVERT JUMPDEST PUSH1 0x0 PUSH2 0x2F1A DUP3 PUSH2 0x2B4B JUMP JUMPDEST SWAP2 POP PUSH2 0x2F25 DUP4 PUSH2 0x2B4B JUMP JUMPDEST SWAP3 POP DUP3 DUP3 MUL PUSH2 0x2F33 DUP2 PUSH2 0x2B4B JUMP JUMPDEST SWAP2 POP DUP3 DUP3 DIV DUP5 EQ DUP4 ISZERO OR PUSH2 0x2F4A JUMPI PUSH2 0x2F49 PUSH2 0x2EE0 JUMP JUMPDEST JUMPDEST POP SWAP3 SWAP2 POP POP JUMP JUMPDEST PUSH32 0x4E487B7100000000000000000000000000000000000000000000000000000000 PUSH1 0x0 MSTORE PUSH1 0x12 PUSH1 0x4 MSTORE PUSH1 0x24 PUSH1 0x0 REVERT JUMPDEST PUSH1 0x0 PUSH2 0x2F8B DUP3 PUSH2 0x2B4B JUMP JUMPDEST SWAP2 POP PUSH2 0x2F96 DUP4 PUSH2 0x2B4B JUMP JUMPDEST SWAP3 POP DUP3 PUSH2 0x2FA6 JUMPI PUSH2 0x2FA5 PUSH2 0x2F51 JUMP JUMPDEST JUMPDEST DUP3 DUP3 DIV SWAP1 POP SWAP3 SWAP2 POP POP JUMP JUMPDEST PUSH32 0x506C65617365207375626D69742074686520636F727265637420707269636500 PUSH1 0x0 DUP3 ADD MSTORE POP JUMP JUMPDEST PUSH1 0x0 PUSH2 0x2FE7 PUSH1 0x1F DUP4 PUSH2 0x2E3D JUMP JUMPDEST SWAP2 POP PUSH2 0x2FF2 DUP3 PUSH2 0x2FB1 JUMP JUMPDEST PUSH1 0x20 DUP3 ADD SWAP1 POP SWAP2 SWAP1 POP JUMP JUMPDEST PUSH1 0x0 PUSH1 0x20 DUP3 ADD SWAP1 POP DUP2 DUP2 SUB PUSH1 0x0 DUP4 ADD MSTORE PUSH2 0x3016 DUP2 PUSH2 0x2FDA JUMP JUMPDEST SWAP1 POP SWAP2 SWAP1 POP JUMP JUMPDEST PUSH1 0x0 PUSH1 0x60 DUP3 ADD SWAP1 POP PUSH2 0x3032 PUSH1 0x0 DUP4 ADD DUP7 PUSH2 0x2B1C JUMP JUMPDEST PUSH2 0x303F PUSH1 0x20 DUP4 ADD DUP6 PUSH2 0x2B1C JUMP JUMPDEST PUSH2 0x304C PUSH1 0x40 DUP4 ADD DUP5 PUSH2 0x2BAE JUMP JUMPDEST SWAP5 SWAP4 POP POP POP POP JUMP JUMPDEST PUSH1 0x0 DUP2 SWAP1 POP SWAP2 SWAP1 POP JUMP JUMPDEST PUSH1 0x0 PUSH2 0x3079 PUSH2 0x3074 PUSH2 0x306F DUP5 PUSH2 0x2AEA JUMP JUMPDEST PUSH2 0x3054 JUMP JUMPDEST PUSH2 0x2AEA JUMP JUMPDEST SWAP1 POP SWAP2 SWAP1 POP JUMP JUMPDEST PUSH1 0x0 PUSH2 0x308B DUP3 PUSH2 0x305E JUMP JUMPDEST SWAP1 POP SWAP2 SWAP1 POP JUMP JUMPDEST PUSH1 0x0 PUSH2 0x309D DUP3 PUSH2 0x3080 JUMP JUMPDEST SWAP1 POP SWAP2 SWAP1 POP JUMP JUMPDEST PUSH2 0x30AD DUP2 PUSH2 0x3092 JUMP JUMPDEST DUP3 MSTORE POP POP JUMP JUMPDEST PUSH2 0x30BC DUP2 PUSH2 0x2CAF JUMP JUMPDEST DUP3 MSTORE POP POP JUMP JUMPDEST PUSH1 0x0 PUSH1 0xC0 DUP3 ADD SWAP1 POP PUSH2 0x30D7 PUSH1 0x0 DUP4 ADD DUP10 PUSH2 0x2BAE JUMP JUMPDEST PUSH2 0x30E4 PUSH1 0x20 DUP4 ADD DUP9 PUSH2 0x2B1C JUMP JUMPDEST PUSH2 0x30F1 PUSH1 0x40 DUP4 ADD DUP8 PUSH2 0x30A4 JUMP JUMPDEST PUSH2 0x30FE PUSH1 0x60 DUP4 ADD DUP7 PUSH2 0x2B1C JUMP JUMPDEST PUSH2 0x310B PUSH1 0x80 DUP4 ADD DUP6 PUSH2 0x2BAE JUMP JUMPDEST PUSH2 0x3118 PUSH1 0xA0 DUP4 ADD DUP5 PUSH2 0x30B3 JUMP JUMPDEST SWAP8 SWAP7 POP POP POP POP POP POP POP JUMP JUMPDEST PUSH1 0x0 PUSH2 0x312E DUP3 PUSH2 0x2B4B JUMP JUMPDEST SWAP2 POP PUSH2 0x3139 DUP4 PUSH2 0x2B4B JUMP JUMPDEST SWAP3 POP DUP3 DUP3 ADD SWAP1 POP DUP1 DUP3 GT ISZERO PUSH2 0x3151 JUMPI PUSH2 0x3150 PUSH2 0x2EE0 JUMP JUMPDEST JUMPDEST SWAP3 SWAP2 POP POP JUMP JUMPDEST PUSH1 0x0 PUSH2 0x3162 DUP3 PUSH2 0x2B4B JUMP JUMPDEST SWAP2 POP PUSH32 0xFFFFFFFFFFFFFFFFFFFFFFFFFFFFFFFFFFFFFFFFFFFFFFFFFFFFFFFFFFFFFFFF DUP3 SUB PUSH2 0x3194 JUMPI PUSH2 0x3193 PUSH2 0x2EE0 JUMP JUMPDEST JUMPDEST PUSH1 0x1 DUP3 ADD SWAP1 POP SWAP2 SWAP1 POP JUMP JUMPDEST PUSH32 0x4E487B7100000000000000000000000000000000000000000000000000000000 PUSH1 0x0 MSTORE PUSH1 0x41 PUSH1 0x4 MSTORE PUSH1 0x24 PUSH1 0x0 REVERT JUMPDEST PUSH32 0x4E487B7100000000000000000000000000000000000000000000000000000000 PUSH1 0x0 MSTORE PUSH1 0x32 PUSH1 0x4 MSTORE PUSH1 0x24 PUSH1 0x0 REVERT JUMPDEST PUSH32 0x5072696365206D757374206265206174206C6561737420312077656900000000 PUSH1 0x0 DUP3 ADD MSTORE POP JUMP JUMPDEST PUSH1 0x0 PUSH2 0x3233 PUSH1 0x1C DUP4 PUSH2 0x2E3D JUMP JUMPDEST SWAP2 POP PUSH2 0x323E DUP3 PUSH2 0x31FD JUMP JUMPDEST PUSH1 0x20 DUP3 ADD SWAP1 POP SWAP2 SWAP1 POP JUMP JUMPDEST PUSH1 0x0 PUSH1 0x20 DUP3 ADD SWAP1 POP DUP2 DUP2 SUB PUSH1 0x0 DUP4 ADD MSTORE PUSH2 0x3262 DUP2 PUSH2 0x3226 JUMP JUMPDEST SWAP1 POP SWAP2 SWAP1 POP JUMP JUMPDEST PUSH32 0x4E6F7420656E6F75676820657468657220666F72206C697374696E6720666565 PUSH1 0x0 DUP3 ADD MSTORE POP JUMP JUMPDEST PUSH1 0x0 PUSH2 0x329F PUSH1 0x20 DUP4 PUSH2 0x2E3D JUMP JUMPDEST SWAP2 POP PUSH2 0x32AA DUP3 PUSH2 0x3269 JUMP JUMPDEST PUSH1 0x20 DUP3 ADD SWAP1 POP SWAP2 SWAP1 POP JUMP JUMPDEST PUSH1 0x0 PUSH1 0x20 DUP3 ADD SWAP1 POP DUP2 DUP2 SUB PUSH1 0x0 DUP4 ADD MSTORE PUSH2 0x32CE DUP2 PUSH2 0x3292 JUMP JUMPDEST SWAP1 POP SWAP2 SWAP1 POP JUMP JUMPDEST PUSH1 0x0 PUSH1 0xC0 DUP3 ADD SWAP1 POP PUSH2 0x32EA PUSH1 0x0 DUP4 ADD DUP10 PUSH2 0x2BAE JUMP JUMPDEST PUSH2 0x32F7 PUSH1 0x20 DUP4 ADD DUP9 PUSH2 0x2B1C JUMP JUMPDEST PUSH2 0x3304 PUSH1 0x40 DUP4 ADD DUP8 PUSH2 0x2B1C JUMP JUMPDEST PUSH2 0x3311 PUSH1 0x60 DUP4 ADD DUP7 PUSH2 0x2B1C JUMP JUMPDEST PUSH2 0x331E PUSH1 0x80 DUP4 ADD DUP6 PUSH2 0x2BAE JUMP JUMPDEST PUSH2 0x332B PUSH1 0xA0 DUP4 ADD DUP5 PUSH2 0x30B3 JUMP JUMPDEST SWAP8 SWAP7 POP POP POP POP POP POP POP JUMP JUMPDEST PUSH1 0x0 PUSH2 0x3341 DUP3 PUSH2 0x2B4B JUMP JUMPDEST SWAP2 POP PUSH2 0x334C DUP4 PUSH2 0x2B4B JUMP JUMPDEST SWAP3 POP DUP3 DUP3 SUB SWAP1 POP DUP2 DUP2 GT ISZERO PUSH2 0x3364 JUMPI PUSH2 0x3363 PUSH2 0x2EE0 JUMP JUMPDEST JUMPDEST SWAP3 SWAP2 POP POP JUMP JUMPDEST PUSH32 0x5265656E7472616E637947756172643A207265656E7472616E742063616C6C00 PUSH1 0x0 DUP3 ADD MSTORE POP JUMP JUMPDEST PUSH1 0x0 PUSH2 0x33A0 PUSH1 0x1F DUP4 PUSH2 0x2E3D JUMP JUMPDEST SWAP2 POP PUSH2 0x33AB DUP3 PUSH2 0x336A JUMP JUMPDEST PUSH1 0x20 DUP3 ADD SWAP1 POP SWAP2 SWAP1 POP JUMP JUMPDEST PUSH1 0x0 PUSH1 0x20 DUP3 ADD SWAP1 POP DUP2 DUP2 SUB PUSH1 0x0 DUP4 ADD MSTORE PUSH2 0x33CF DUP2 PUSH2 0x3393 JUMP JUMPDEST SWAP1 POP SWAP2 SWAP1 POP JUMP INVALID LOG2 PUSH5 0x6970667358 0x22 SLT KECCAK256 SWAP10 JUMPI PUSH29 0x280904D4EE65A105ECAA74EBBD2A5673CDB1EE75ECC37D22E1A87FD1D3 PUSH5 0x736F6C6343 STOP ADDMOD GT STOP CALLER "},"methodIdentifiers":{"buyHouse(address,uint256)":"72f2bdf4","getListedHouses()":"f4dcb9c1","getListingFee(uint256)":"62e19cc8","getMarketOwner()":"451e9cf0","getMarketOwnerBalance()":"763a0559","getMyHouses()":"b14f1afd","getMyListedHouses()":"98ac2211","listHouse(address,uint256,uint256)":"cc864fb1"}}}}}