{
  "_format": "hh-sol-artifact-1",
  "contractName": "Market",
  "sourceName": "contracts/Market.sol",
  "abi": [
    {
      "inputs": [],
      "stateMutability": "nonpayable",
      "type": "constructor"
    },
    {
      "anonymous": false,
      "inputs": [
        {
          "indexed": false,
          "internalType": "uint256",
          "name": "houseId",
          "type": "uint256"
        },
        {
          "indexed": false,
          "internalType": "address",
          "name": "houseContract",
          "type": "address"
        },
        {
          "indexed": false,
          "internalType": "address",
          "name": "seller",
          "type": "address"
        },
        {
          "indexed": false,
          "internalType": "address",
          "name": "owner",
          "type": "address"
        },
        {
          "indexed": false,
          "internalType": "uint256",
          "name": "price",
          "type": "uint256"
        },
        {
          "indexed": false,
          "internalType": "bool",
          "name": "listed",
          "type": "bool"
        }
      ],
      "name": "HouseListed",
      "type": "event"
    },
    {
      "anonymous": false,
      "inputs": [
        {
          "indexed": false,
          "internalType": "uint256",
          "name": "houseId",
          "type": "uint256"
        },
        {
          "indexed": false,
          "internalType": "address",
          "name": "houseContract",
          "type": "address"
        },
        {
          "indexed": false,
          "internalType": "address",
          "name": "seller",
          "type": "address"
        },
        {
          "indexed": false,
          "internalType": "address",
          "name": "owner",
          "type": "address"
        },
        {
          "indexed": false,
          "internalType": "uint256",
          "name": "price",
          "type": "uint256"
        },
        {
          "indexed": false,
          "internalType": "bool",
          "name": "listed",
          "type": "bool"
        }
      ],
      "name": "HouseSold",
      "type": "event"
    },
    {
      "inputs": [
        {
          "internalType": "address",
          "name": "_houseContract",
          "type": "address"
        },
        {
          "internalType": "uint256",
          "name": "_houseId",
          "type": "uint256"
        }
      ],
      "name": "buyHouse",
      "outputs": [],
      "stateMutability": "payable",
      "type": "function"
    },
    {
      "inputs": [],
      "name": "getListedHouses",
      "outputs": [
        {
          "components": [
            {
              "internalType": "uint256",
              "name": "houseId",
              "type": "uint256"
            },
            {
              "internalType": "address",
              "name": "houseContract",
              "type": "address"
            },
            {
              "internalType": "address payable",
              "name": "seller",
              "type": "address"
            },
            {
              "internalType": "address payable",
              "name": "owner",
              "type": "address"
            },
            {
              "internalType": "uint256",
              "name": "price",
              "type": "uint256"
            },
            {
              "internalType": "bool",
              "name": "listed",
              "type": "bool"
            }
          ],
          "internalType": "struct Market.House[]",
          "name": "",
          "type": "tuple[]"
        }
      ],
      "stateMutability": "view",
      "type": "function"
    },
    {
      "inputs": [
        {
          "internalType": "uint256",
          "name": "_price",
          "type": "uint256"
        }
      ],
      "name": "getListingFee",
      "outputs": [
        {
          "internalType": "uint256",
          "name": "",
          "type": "uint256"
        }
      ],
      "stateMutability": "pure",
      "type": "function"
    },
    {
      "inputs": [],
      "name": "getMarketOwner",
      "outputs": [
        {
          "internalType": "address",
          "name": "",
          "type": "address"
        }
      ],
      "stateMutability": "view",
      "type": "function"
    },
    {
      "inputs": [],
      "name": "getMarketOwnerBalance",
      "outputs": [
        {
          "internalType": "uint256",
          "name": "",
          "type": "uint256"
        }
      ],
      "stateMutability": "view",
      "type": "function"
    },
    {
      "inputs": [],
      "name": "getMyHouses",
      "outputs": [
        {
          "components": [
            {
              "internalType": "uint256",
              "name": "houseId",
              "type": "uint256"
            },
            {
              "internalType": "address",
              "name": "houseContract",
              "type": "address"
            },
            {
              "internalType": "address payable",
              "name": "seller",
              "type": "address"
            },
            {
              "internalType": "address payable",
              "name": "owner",
              "type": "address"
            },
            {
              "internalType": "uint256",
              "name": "price",
              "type": "uint256"
            },
            {
              "internalType": "bool",
              "name": "listed",
              "type": "bool"
            }
          ],
          "internalType": "struct Market.House[]",
          "name": "",
          "type": "tuple[]"
        }
      ],
      "stateMutability": "view",
      "type": "function"
    },
    {
      "inputs": [],
      "name": "getMyListedHouses",
      "outputs": [
        {
          "components": [
            {
              "internalType": "uint256",
              "name": "houseId",
              "type": "uint256"
            },
            {
              "internalType": "address",
              "name": "houseContract",
              "type": "address"
            },
            {
              "internalType": "address payable",
              "name": "seller",
              "type": "address"
            },
            {
              "internalType": "address payable",
              "name": "owner",
              "type": "address"
            },
            {
              "internalType": "uint256",
              "name": "price",
              "type": "uint256"
            },
            {
              "internalType": "bool",
              "name": "listed",
              "type": "bool"
            }
          ],
          "internalType": "struct Market.House[]",
          "name": "",
          "type": "tuple[]"
        }
      ],
      "stateMutability": "view",
      "type": "function"
    },
    {
      "inputs": [
        {
          "internalType": "address",
          "name": "_houseContract",
          "type": "address"
        },
        {
          "internalType": "uint256",
          "name": "_houseId",
          "type": "uint256"
        },
        {
          "internalType": "uint256",
          "name": "_price",
          "type": "uint256"
        }
      ],
      "name": "listHouse",
      "outputs": [],
      "stateMutability": "payable",
      "type": "function"
    }
  ],
  "bytecode": "0x60806040523480156200001157600080fd5b5060016000819055506200004e7f849dd17fbc06fc5f2844b790b387f4cc79b98f5d477f36d7f37da9d7b4d8abcf60001b620000fd60201b60201c565b620000827fdac083fce3ec32e77b047c23a9bd400dcec0427947fa1ddf33190e7faf72219860001b620000fd60201b60201c565b620000b67f9aa4aacd3ee7466bb4ca6cdb6b8fde067ed3227eb17f8dc552fa2c5ea702ceb560001b620000fd60201b60201c565b33600360006101000a81548173ffffffffffffffffffffffffffffffffffffffff021916908373ffffffffffffffffffffffffffffffffffffffff16021790555062000100565b50565b61340c80620001106000396000f3fe60806040526004361061007b5760003560e01c806398ac22111161004e57806398ac22111461012f578063b14f1afd1461015a578063cc864fb114610185578063f4dcb9c1146101a15761007b565b8063451e9cf01461008057806362e19cc8146100ab57806372f2bdf4146100e8578063763a055914610104575b600080fd5b34801561008c57600080fd5b506100956101cc565b6040516100a29190612b2b565b60405180910390f35b3480156100b757600080fd5b506100d260048036038101906100cd9190612b81565b610412565b6040516100df9190612bbd565b60405180910390f35b61010260048036038101906100fd9190612c04565b610518565b005b34801561011057600080fd5b50610119610ba3565b6040516101269190612bbd565b60405180910390f35b34801561013b57600080fd5b50610144610e00565b6040516101519190612dc8565b60405180910390f35b34801561016657600080fd5b5061016f611655565b60405161017c9190612dc8565b60405180910390f35b61019f600480360381019061019a9190612dea565b611e38565b005b3480156101ad57600080fd5b506101b6612412565b6040516101c39190612dc8565b60405180910390f35b60006101fa7f1709d0dc3e8f0108ee965290afdcbb186988b12ea656d06097c88d4e095a988760001b6129f0565b6102267fcf9dadd561f2ad5c1f8c2fe5c1ace334567f838bc2aacedb2c3aee147a60857460001b6129f0565b6102527f2765e3237b5e34587e16c476b99ab98c017eb1bd93ccbbc313f5fb35b941c65b60001b6129f0565b61027e7f790aaba1b688471f8eba3a3f3e2aaf6cf053b8e923ed5d9c245aa7738a65d3ea60001b6129f0565b600360009054906101000a900473ffffffffffffffffffffffffffffffffffffffff1673ffffffffffffffffffffffffffffffffffffffff163373ffffffffffffffffffffffffffffffffffffffff161461030e576040517f08c379a000000000000000000000000000000000000000000000000000000000815260040161030590612ec0565b60405180910390fd5b61033a7f2879b8f95d8c91bb11069723d2cd5cf5350cc330a3d0e5236e700a4a98d65b3960001b6129f0565b6103667f1c7e08574de6c62c5ed974c9671495a4dd8f38a6ae05ea8c9d8dc563ce8ebf9c60001b6129f0565b6103927f4be2a03c1513f7dcfb3c3e4af6116493d8acacc97baad00f4ca92165fa3349c960001b6129f0565b6103be7f1c9b73dae5fc6cfa3b87fe71f0f83de97d4636f52bbd39165ec466225d27cbe860001b6129f0565b6103ea7f26d4dbc68efd2501b8b76c526dd91d783ce2966493d1511d8dc88607265b4f6860001b6129f0565b600360009054906101000a900473ffffffffffffffffffffffffffffffffffffffff16905090565b60006104407fee12f4469ca48dd1c7790891ac54a65baf74c83fcd8408804634c2bf5aebf89460001b6129f0565b61046c7f489c800042dbbbc7b492280fc8eebe9e97096d72e7c2ddac2fae9d391a42390a60001b6129f0565b6104987fdaee4004c02cb9c2da58f626840b8c7bf11fd120fb51c56c22a057ffb8e1478460001b6129f0565b600061271061012c846104ab9190612f0f565b6104b59190612f80565b90506104e37fe939287e794e9f4d8538c0bc90292a62497541fc3959abe81a730d9df4f5997f60001b6129f0565b61050f7fc6ed97ab9a3b7d676a4b89fcb8bcefb3ccd1cc80a12c2702f31f3efe0b92913f60001b6129f0565b80915050919050565b6105206129f3565b61054c7f1ba41c90e37bed943393c295e9cd5937dcc52c96e8c24deb7e89c66d1c77f39860001b6129f0565b6105787ffeddf985e32fbec2a6ac8be29568a23f21eb1893dacc6480b48249d589c0864260001b6129f0565b6105a47f826a48572b0202b29b6fd7d4f8f70f1736b3728aead43aaf35a981cce029336360001b6129f0565b60006004600083815260200190815260200160002090506105e77fc76d313f26a5292264d20b70c8f9d988f70dbc69a6884b334a8ff6dc532bf11d60001b6129f0565b6106137f7773164b727eb990361458815c21ce14d4964e8491821c63b6801e4628620d5460001b6129f0565b60006106228260040154610412565b90506106507fb936470098dcd428477a52ebe218c755c0d4e2f8f74c88b4d71880a51650f5c260001b6129f0565b61067c7f232ffdfd7743d394c22e269254e5c3586153d869a761956c6978309cc64985ff60001b6129f0565b6106a87f0980e2b866a8852f9bba0aab5b59526bddc474ba319625f6fdcf4c1bbcab4b6f60001b6129f0565b816004015434146106ee576040517f08c379a00000000000000000000000000000000000000000000000000000000081526004016106e590612ffd565b60405180910390fd5b61071a7fce0fcf203aef0a7e870c287e6e94a88f88ea8f6b1f9a7bd7b3be8a5a8753a54460001b6129f0565b6107467f438eb7f9585ad84faac5b548f07ef290e3a54cc23d9f89f4962a4352f715921460001b6129f0565b6107727fadf00bff96308e6493d6ebfe6492bbd1221b6e0c03963002912facf4d38cfd6760001b6129f0565b8160020160009054906101000a900473ffffffffffffffffffffffffffffffffffffffff1673ffffffffffffffffffffffffffffffffffffffff166108fc349081150290604051600060405180830381858888f193505050501580156107dc573d6000803e3d6000fd5b506108097f7112d35536d6b96a3c8a4b91650315131928438d714bac9f7bd903bc76e0914760001b6129f0565b6108357f9a51940dcd5e6fc04d2ed82148f6c2215b6e66f23dc18bb9ec8215d98841ef7e60001b6129f0565b8373ffffffffffffffffffffffffffffffffffffffff166323b872dd3033866040518463ffffffff1660e01b81526004016108729392919061301d565b600060405180830381600087803b15801561088c57600080fd5b505af11580156108a0573d6000803e3d6000fd5b505050506108d07f274d1eea632f994d0532b45b54f72dfeb9918cf8f8e82585d3394affbd35e39760001b6129f0565b6108fc7f4be1c54a5d247dc9db246ff12910a070df24d559df655c43a556cc0666cf4c1e60001b6129f0565b338260030160006101000a81548173ffffffffffffffffffffffffffffffffffffffff021916908373ffffffffffffffffffffffffffffffffffffffff16021790555061096b7f77c9f679ccb851b4869d76c61f0b34704bdc421744030801cd32cd22891f425b60001b6129f0565b6109977f55bcea1cd3112572a9e7841bfca94126c5a8759480205cb35676b847771e2cf760001b6129f0565b60008260050160006101000a81548160ff0219169083151502179055506109e07fc1ac6b4101724e77095e7706321a06713b899963210dcab6cbf3fc723030db0e60001b6129f0565b610a0c7f18fc88b83f86ac7e3307aa4a6d98edfe779b9d201da282cc235a266a225c4a9d60001b6129f0565b600360009054906101000a900473ffffffffffffffffffffffffffffffffffffffff1673ffffffffffffffffffffffffffffffffffffffff166108fc829081150290604051600060405180830381858888f19350505050158015610a74573d6000803e3d6000fd5b50610aa17f14c83363914d4285142cd8d52b50fd00155e17f9ad054f7ed07fcd97b116079460001b6129f0565b610acd7f4c05276ba1071e8584eda8edc7ee968b2663fbf1c61dcd776448d92bfa671c7760001b6129f0565b610ad76002612a42565b610b037fe21e32911f5c7edad0ab9081625876b2174d525da5aa08400ebf1d53965e988f60001b6129f0565b610b2f7f575fa7a9031f6deb86027d0dfc947a7eb843d0f531dccb52ff5bf2198075f2ac60001b6129f0565b7fe146f5efc4dd59bbbd2cf0185ec3eca550c5a92b9acc899ac705617d26e27b5b83858460020160009054906101000a900473ffffffffffffffffffffffffffffffffffffffff1633346000604051610b8d969594939291906130c2565b60405180910390a15050610b9f612a58565b5050565b6000610bd17f1709d0dc3e8f0108ee965290afdcbb186988b12ea656d06097c88d4e095a988760001b6129f0565b610bfd7fcf9dadd561f2ad5c1f8c2fe5c1ace334567f838bc2aacedb2c3aee147a60857460001b6129f0565b610c297f2765e3237b5e34587e16c476b99ab98c017eb1bd93ccbbc313f5fb35b941c65b60001b6129f0565b610c557f790aaba1b688471f8eba3a3f3e2aaf6cf053b8e923ed5d9c245aa7738a65d3ea60001b6129f0565b600360009054906101000a900473ffffffffffffffffffffffffffffffffffffffff1673ffffffffffffffffffffffffffffffffffffffff163373ffffffffffffffffffffffffffffffffffffffff1614610ce5576040517f08c379a0000000000000000000000000000000000000000000000000000000008152600401610cdc90612ec0565b60405180910390fd5b610d117f2879b8f95d8c91bb11069723d2cd5cf5350cc330a3d0e5236e700a4a98d65b3960001b6129f0565b610d3d7f1c7e08574de6c62c5ed974c9671495a4dd8f38a6ae05ea8c9d8dc563ce8ebf9c60001b6129f0565b610d697f847271213f84827f61b7db5b7691d6d8c5cb28c4bfe34c3bcb6f26f8023c671b60001b6129f0565b610d957fa7a5f01aa3d314af3589737f9142870b35657bde088fc5c790e76aad17bd5c1960001b6129f0565b610dc17f7ca7d92b7e848d9df28167e48eb68f962e4dd194938a67af2d8c19e168321f0b60001b6129f0565b600360009054906101000a900473ffffffffffffffffffffffffffffffffffffffff1673ffffffffffffffffffffffffffffffffffffffff1631905090565b6060610e2e7fbc97d1542077452947cc848b7498f9da3dad71addc41b03d32935c2a6040538460001b6129f0565b610e5a7f8c988c3c596daf137264b135a68c911a2047eeaec9ada080c914b141c47b9cde60001b6129f0565b610e867ff70ab9f95acacff7f6992e00d88181e77105b2bb97516e51bffe981bc1776c4f60001b6129f0565b6000610e926001612a62565b9050610ec07f5cc25806eb77f6310801edc233a6b64dd4d48a6b71704951629851be4eee5fe260001b6129f0565b610eec7fe2df6a0ee7e4686c7810e60d0affc509e95c8a4e274ff8c1e84706b623cc691360001b6129f0565b6000610f1a7f9bb363bd875ec592e2c29cdbd8e833a5e59614fad9b23c5d5591c67dc8d4a1b760001b6129f0565b610f467f98d1eb71f9d93554bda85eb436eb9534f43ec8908e1631f2cb5f24d6956e4dce60001b6129f0565b6000610f747f440098a5628bcda3c084fcce9ec6ad678f65e8cc7baf3ac4d9fe468b78befbe560001b6129f0565b610fa07f9011ab97de6ce57611c460c608605b8d1594e98f17bc8472858c100d5a9f461260001b6129f0565b60005b8381101561115c57610fd77f3771070cdf5bcdd911a5242ee2f44f7f15fe5fbc00e92a08ebfb173b1795f8d260001b6129f0565b6110037fb541de382d13910fd1484fdedf92688ec15ee1b8f66d1fe0c0c0982449896a7760001b6129f0565b3373ffffffffffffffffffffffffffffffffffffffff166004600060018461102b9190613123565b815260200190815260200160002060020160009054906101000a900473ffffffffffffffffffffffffffffffffffffffff1673ffffffffffffffffffffffffffffffffffffffff161480156110ac57506004600060018361108c9190613123565b815260200190815260200160002060050160009054906101000a900460ff165b1561111c576110dd7f94655fc90aff211a4fd97b69bf8b7a7e70e4ee2b5b92e7c2a291ffe4b3738ca960001b6129f0565b6111097fa010f200ff62da7e2699bc406e06f78e24d01575730b932edab09fe92f1a46fe60001b6129f0565b828061111490613157565b935050611149565b6111487faf975663762d81c50d0be51b6048ef4c8b237e1c4161aa9469bccabf40e5876f60001b6129f0565b5b808061115490613157565b915050610fa3565b506111897f68559cd5f3724825721d267925427c8bd38735a061d0bd6050ffeb38622f622860001b6129f0565b6111b57f82a12dfdfb3c1066390fa06651ac6c44d0700c494d8d7496c3994bbe7688adc460001b6129f0565b60008267ffffffffffffffff8111156111d1576111d061319f565b5b60405190808252806020026020018201604052801561120a57816020015b6111f7612a70565b8152602001906001900390816111ef5790505b5090506112397f430868c0e226745b9dd17c172532cf95165f8a79a6f67843cb474b49f6a8d8bd60001b6129f0565b6112657fd9df5cd504ec417be25cb4995155b9bae697f6e664e229b11186a6d7e9cb5ecc60001b6129f0565b60005b848110156115f25761129c7fcb7ab04d2b3c2a4a354ff33583a8d199a314738e21362816de78bbc02f3a570a60001b6129f0565b6112c87f8b29a01bcdf226f5ffae748b642d3622c616f225725e90a938f1253b171608e760001b6129f0565b3373ffffffffffffffffffffffffffffffffffffffff16600460006001846112f09190613123565b815260200190815260200160002060020160009054906101000a900473ffffffffffffffffffffffffffffffffffffffff1673ffffffffffffffffffffffffffffffffffffffff161480156113715750600460006001836113519190613123565b815260200190815260200160002060050160009054906101000a900460ff165b156115b2576113a27f90428067d95fe06dacc321c326e10efab67ef5c4ecc06f8d53220a5fb9926d9260001b6129f0565b6113ce7fa1e420d07ee1c5a3ec9d8131d29f72baf96fc7c55a326de2d59a81a64470846360001b6129f0565b6113fa7f89ad209158acc7c7877452279bb0e74b9eb367e88a759ca8d936d9707b1d6d5f60001b6129f0565b6004600060018361140b9190613123565b81526020019081526020016000206040518060c0016040529081600082015481526020016001820160009054906101000a900473ffffffffffffffffffffffffffffffffffffffff1673ffffffffffffffffffffffffffffffffffffffff1673ffffffffffffffffffffffffffffffffffffffff1681526020016002820160009054906101000a900473ffffffffffffffffffffffffffffffffffffffff1673ffffffffffffffffffffffffffffffffffffffff1673ffffffffffffffffffffffffffffffffffffffff1681526020016003820160009054906101000a900473ffffffffffffffffffffffffffffffffffffffff1673ffffffffffffffffffffffffffffffffffffffff1673ffffffffffffffffffffffffffffffffffffffff168152602001600482015481526020016005820160009054906101000a900460ff161515151581525050828481518110611568576115676131ce565b5b602002602001018190525061159f7f905fff11ddd22903f3bc38184feb19bee2545547cf17edf6e3df8741c2d12f3260001b6129f0565b82806115aa90613157565b9350506115df565b6115de7ffd38ecd8ebd628625dec27b7bd1b460d166fbc9f766a2bb7e8bbf5acfa0b590c60001b6129f0565b5b80806115ea90613157565b915050611268565b5061161f7fdcec3258222c134321071d80bcec6910b67739bc707269f145af0f13f0e9884760001b6129f0565b61164b7fe674ee6254a810f0e817bdf74440bb28ff9f90bff21f7c0bc77f2eb2cbeb75ff60001b6129f0565b8094505050505090565b60606116837f68e449902209fc20012af02e4693f511eaa05f97f50aa39bd69e0e8e227aa40160001b6129f0565b6116af7f4c6f3144ad11ac31592d5798a693b86dc86aa6eb2ecd2fe3d1e29b5bb0aba48960001b6129f0565b6116db7f3707eb82af6bcb4eca5033573765a29f2cdeb70479746828655da3e7f4da963d60001b6129f0565b60006116e76001612a62565b90506117157f84528825f54fe46346e3e9f6ec2d4797e07ccbd87a978110dbc58c130d161d7d60001b6129f0565b6117417f14431ed3ca89fdab4a3b69aeb459def71efd8e859abeb3e800f4616b73857a8160001b6129f0565b600061176f7f21efed54065c973bd52a855622abb96f17d1df34a20a2345b59f5e43e83c816260001b6129f0565b61179b7fa7305d663d62dbc6b76e4d5bbbdd6542e2c5d8e76055a22e9287d2c24240115d60001b6129f0565b60006117c97f5798592b6999d9005e50d8e40d55b16a4a81cfa06fb01a7f4b26a20e4dcf303e60001b6129f0565b6117f57f645a9e00c61d3ad351864f719b20f5ad155e880d98cddea21081a31b0aef761d60001b6129f0565b60005b838110156119785761182c7f8e8df3558f26bdbcdb5fd66902d1c4b06f76eb2c67a73c6d1ce1ab76e19f709360001b6129f0565b6118587ff92a1eee2ff4ca4831bd4e8199bd2d6ee6199af4709d24cca4c28b02925f066360001b6129f0565b3373ffffffffffffffffffffffffffffffffffffffff16600460006001846118809190613123565b815260200190815260200160002060030160009054906101000a900473ffffffffffffffffffffffffffffffffffffffff1673ffffffffffffffffffffffffffffffffffffffff1603611938576118f97fbec94fcb6aa2f84b58fa2fda82ea179adea924d7fe9aedbb23bfb9400e5b33dd60001b6129f0565b6119257f8bedd54b0fa9b1adcb22dd0e319dc390578708b5a0f17dbdba03ee78d42fc7f960001b6129f0565b828061193090613157565b935050611965565b6119647fde8044df9044ca6e6155f7d3497f6329ba665f470b6e2cf04d3ac312b4267a2f60001b6129f0565b5b808061197090613157565b9150506117f8565b506119a57f886f938e03c3d3cb6dd9dae897d5a1ebce99b64d68fae538fe739a86d867352660001b6129f0565b6119d17f4fb0fc158ef7d51b6210ccb8322ec662ff2a00b9e09f7417cb09b00b37f52ca760001b6129f0565b60008267ffffffffffffffff8111156119ed576119ec61319f565b5b604051908082528060200260200182016040528015611a2657816020015b611a13612a70565b815260200190600190039081611a0b5790505b509050611a557f5c6536c5a51e290f0829ad24477736a4e53736463d0a085ddc863d3e5f88c67960001b6129f0565b611a817fd1698db376b9245311c8eb24867e222f97e4e1211690b47c01b2906b89a98a8f60001b6129f0565b60005b84811015611dd557611ab87fad749e0e8ff4cb6e57ff45e24e6c7acc4cdd0ef54e4326e381c74864b172c54060001b6129f0565b611ae47f8723dd73fcc3144d728b777b24f75a8e4362536800f9ac43dbf573ad286c662260001b6129f0565b3373ffffffffffffffffffffffffffffffffffffffff1660046000600184611b0c9190613123565b815260200190815260200160002060030160009054906101000a900473ffffffffffffffffffffffffffffffffffffffff1673ffffffffffffffffffffffffffffffffffffffff1603611d9557611b857ffa6fa261cd2eb1343b9269c51b7bfc63b6556c5fabefd42717a31d3259545b6360001b6129f0565b611bb17f0b1474163e8cde7bb49044318458810d6da5ad0c5a206b452bf07c00fc85143260001b6129f0565b611bdd7faaa90f856c74fdfef4f162b63c7516f1bcbcd30e27bbf467618c11e0e49a1e4560001b6129f0565b60046000600183611bee9190613123565b81526020019081526020016000206040518060c0016040529081600082015481526020016001820160009054906101000a900473ffffffffffffffffffffffffffffffffffffffff1673ffffffffffffffffffffffffffffffffffffffff1673ffffffffffffffffffffffffffffffffffffffff1681526020016002820160009054906101000a900473ffffffffffffffffffffffffffffffffffffffff1673ffffffffffffffffffffffffffffffffffffffff1673ffffffffffffffffffffffffffffffffffffffff1681526020016003820160009054906101000a900473ffffffffffffffffffffffffffffffffffffffff1673ffffffffffffffffffffffffffffffffffffffff1673ffffffffffffffffffffffffffffffffffffffff168152602001600482015481526020016005820160009054906101000a900460ff161515151581525050828481518110611d4b57611d4a6131ce565b5b6020026020010181905250611d827feb74b06ac2339a4a794b2797fad8f98a50a37b2b2104bbfd090747015100116a60001b6129f0565b8280611d8d90613157565b935050611dc2565b611dc17fc7fed0aa5126941887de027bad72d5003ca4866a44b60c25cbfd04183b450b7460001b6129f0565b5b8080611dcd90613157565b915050611a84565b50611e027f4cb8ef5bdae432dbca6abd312c32130c1cc747722dc3fe72974b58e04f33039b60001b6129f0565b611e2e7f3c4263658ecb66b5ce650f31d3c0377d32dd3418e65c4d1a235c02ae4c379bc060001b6129f0565b8094505050505090565b611e406129f3565b611e6c7ff1c0689b609dfc47a5cfb824a463b5981082977d17f1381cfcf2999df05733f860001b6129f0565b611e987f36d25c6b0e44484af50769882619f7e02cbe12148de5682af518622db9ee48ed60001b6129f0565b611ec47f9c369a21e04ec2d0b268c9d9e8230a5ed7abc873c976a157ab07e8d4840a3fec60001b6129f0565b611ef07fd8b5447837882ca6ec4de8a1936e65202c1706dd89b212723a2ef76af040e84a60001b6129f0565b60008111611f33576040517f08c379a0000000000000000000000000000000000000000000000000000000008152600401611f2a90613249565b60405180910390fd5b611f5f7f1385d333420094da770a436e27e88500f579884ea4b3b2cdcc97acd5d075b00560001b6129f0565b611f8b7f6c273ac6f6b1621377ce9a3510c0d0e4d38ed5cfdbc640b8f7b76fdfc917ebb160001b6129f0565b611fb77f8a5c11d228053cc01a9bffd467f8afead0bde8bce75c327323da3c035edef1c660001b6129f0565b611fe37f2f52cb612c19519da2568269b65b2b69be9c6603a0642be51024b664676040ff60001b6129f0565b611fec81610412565b341461202d576040517f08c379a0000000000000000000000000000000000000000000000000000000008152600401612024906132b5565b60405180910390fd5b6120597f3e0f0d2b1b2b9349bc9d43c3660939f1f3e09d33d606825ae3b46b030219d7c860001b6129f0565b6120857f997f0b6d33d8bb6d93ab19d27b474e6a507e4ef293b855aad06e61c45965e00460001b6129f0565b6120b17f0a76fbe0d76739ab9f126c31ef7fadbc18f856f0e8593457e5e7c9a208bbdd3860001b6129f0565b8273ffffffffffffffffffffffffffffffffffffffff166323b872dd3330856040518463ffffffff1660e01b81526004016120ee9392919061301d565b600060405180830381600087803b15801561210857600080fd5b505af115801561211c573d6000803e3d6000fd5b5050505061214c7fe922833632decddecac7460869128677150a19d608efac8ddd8ffa41c1abfe1b60001b6129f0565b6121787fc4e85b8d9c1b298fd93efc500081cdcdc3ab29683a78c211a27599a845edecc660001b6129f0565b6121826001612a42565b6121ae7fffc49382a67570a05ab22574a9a6fd560c37b751a6e174bc69c5551c2b61760c60001b6129f0565b6121da7fa3024d371b8c120d3f7ef4a963b884bfc5da5c106607a922526632d98c8b5dcd60001b6129f0565b6040518060c001604052808381526020018473ffffffffffffffffffffffffffffffffffffffff1681526020013373ffffffffffffffffffffffffffffffffffffffff1681526020013073ffffffffffffffffffffffffffffffffffffffff16815260200182815260200160011515815250600460008481526020019081526020016000206000820151816000015560208201518160010160006101000a81548173ffffffffffffffffffffffffffffffffffffffff021916908373ffffffffffffffffffffffffffffffffffffffff16021790555060408201518160020160006101000a81548173ffffffffffffffffffffffffffffffffffffffff021916908373ffffffffffffffffffffffffffffffffffffffff16021790555060608201518160030160006101000a81548173ffffffffffffffffffffffffffffffffffffffff021916908373ffffffffffffffffffffffffffffffffffffffff1602179055506080820151816004015560a08201518160050160006101000a81548160ff0219169083151502179055509050506123977f1c35a1776b4f72dde9c6eaf2d8c595a27be611f77db2c9c3ddd3ea591b7ef8b560001b6129f0565b6123c37f4232203c83aae3daa4119e700395e178ac6bd7c373951b4458d862a1f52e775960001b6129f0565b7f2fed4f756d9a7ce2b0f2a370744de88bd760329629d71a136952cef0bbd5e354828433308560016040516123fd969594939291906132d5565b60405180910390a161240d612a58565b505050565b60606124407f8e0b3d8fbb205532e72f6570278b92af37dfa0cd584c890f44fb31da838991ce60001b6129f0565b61246c7f49bfb4829db25db8917bd4aeeb075deba17bb383e577f0f4ce38351b05a2574560001b6129f0565b6124987f0da56c568501217941bb9242ec14bb134422ceb5dc04468f7718e13bd7e4c0ab60001b6129f0565b60006124a46001612a62565b90506124d27f888b70693c22bdd2cffe23982d7290ad0c70bb10ab6cb7af512e9d98b27f3b7860001b6129f0565b6124fe7fc65d7012bbb0ceac627fb077f7a5408015f072d173abd04a45698967d0435e6760001b6129f0565b600061250a6002612a62565b826125159190613336565b90506125437ff2dde17b1076d033d612225201a318ac2a58e546fc41103174a517388b603e8d60001b6129f0565b61256f7f3b6a0b1de7229793542dbabca92d67e9b7926254d5aefe5dddd57a1c52489f0160001b6129f0565b60008167ffffffffffffffff81111561258b5761258a61319f565b5b6040519080825280602002602001820160405280156125c457816020015b6125b1612a70565b8152602001906001900390816125a95790505b5090506125f37f60115d9cf9dcc1a8f7aecf3c893cdbaed12bd869b23c44e6a917d609d370fadb60001b6129f0565b61261f7f07cac73774bda567e4a3cfaf0ab61e4fc5ae0601d19910ab948427b8ef8ffc1260001b6129f0565b600061264d7f278b2754ca27d8a5740029e612469494ecc2989ed0df4c89b7650cd79f23c15160001b6129f0565b6126797f2279afebe49a3e974282f4d3184748f941f3acd92c221d2f4156f31527b290fe60001b6129f0565b60005b8481101561298d576126b07ff7a53f847d6019025a86e54ea1aa5a516bb4868d027df6e4b3cc42aaa3ff076660001b6129f0565b6126dc7f35682643696aa184ef67fc355dcca01d191ba79b1c0c434405aaa27d2de202b260001b6129f0565b600460006001836126ed9190613123565b815260200190815260200160002060050160009054906101000a900460ff161561294d5761273d7f055af573f9ce16a2ff603c66a7078a7b64792157e165e9850e2e179ac7cd1e3060001b6129f0565b6127697fbd74da6453db4097a8dac49735c8e9a13e80de24a3deaf0671627e50de43f5f960001b6129f0565b6127957f445fc05cbb8aec71bc416364953710b6a2ea7eaa67f6b728afcf118db621aa7760001b6129f0565b600460006001836127a69190613123565b81526020019081526020016000206040518060c0016040529081600082015481526020016001820160009054906101000a900473ffffffffffffffffffffffffffffffffffffffff1673ffffffffffffffffffffffffffffffffffffffff1673ffffffffffffffffffffffffffffffffffffffff1681526020016002820160009054906101000a900473ffffffffffffffffffffffffffffffffffffffff1673ffffffffffffffffffffffffffffffffffffffff1673ffffffffffffffffffffffffffffffffffffffff1681526020016003820160009054906101000a900473ffffffffffffffffffffffffffffffffffffffff1673ffffffffffffffffffffffffffffffffffffffff1673ffffffffffffffffffffffffffffffffffffffff168152602001600482015481526020016005820160009054906101000a900460ff161515151581525050838381518110612903576129026131ce565b5b602002602001018190525061293a7f6515c901696e8b426df3a510c4ad218a9fcebb3e7dee09b669da5e5f700d80a460001b6129f0565b818061294590613157565b92505061297a565b6129797f260e93c80f3af57dcb92c1e5eaff0b83bd29a1cf8b75eeccc1b7c7fb2d2daa4f60001b6129f0565b5b808061298590613157565b91505061267c565b506129ba7fdb9b6028c556545bf4c6ba204aae34f141c4e2a3255b6c51aa51d889d3a1f4f860001b6129f0565b6129e67fde7ae6085860f763c3870c0620748ebd678d590304bfa238af8f999ab7d2ddd460001b6129f0565b8194505050505090565b50565b600260005403612a38576040517f08c379a0000000000000000000000000000000000000000000000000000000008152600401612a2f906133b6565b60405180910390fd5b6002600081905550565b6001816000016000828254019250508190555050565b6001600081905550565b600081600001549050919050565b6040518060c0016040528060008152602001600073ffffffffffffffffffffffffffffffffffffffff168152602001600073ffffffffffffffffffffffffffffffffffffffff168152602001600073ffffffffffffffffffffffffffffffffffffffff168152602001600081526020016000151581525090565b600073ffffffffffffffffffffffffffffffffffffffff82169050919050565b6000612b1582612aea565b9050919050565b612b2581612b0a565b82525050565b6000602082019050612b406000830184612b1c565b92915050565b600080fd5b6000819050919050565b612b5e81612b4b565b8114612b6957600080fd5b50565b600081359050612b7b81612b55565b92915050565b600060208284031215612b9757612b96612b46565b5b6000612ba584828501612b6c565b91505092915050565b612bb781612b4b565b82525050565b6000602082019050612bd26000830184612bae565b92915050565b612be181612b0a565b8114612bec57600080fd5b50565b600081359050612bfe81612bd8565b92915050565b60008060408385031215612c1b57612c1a612b46565b5b6000612c2985828601612bef565b9250506020612c3a85828601612b6c565b9150509250929050565b600081519050919050565b600082825260208201905092915050565b6000819050602082019050919050565b612c7981612b4b565b82525050565b612c8881612b0a565b82525050565b6000612c9982612aea565b9050919050565b612ca981612c8e565b82525050565b60008115159050919050565b612cc481612caf565b82525050565b60c082016000820151612ce06000850182612c70565b506020820151612cf36020850182612c7f565b506040820151612d066040850182612ca0565b506060820151612d196060850182612ca0565b506080820151612d2c6080850182612c70565b5060a0820151612d3f60a0850182612cbb565b50505050565b6000612d518383612cca565b60c08301905092915050565b6000602082019050919050565b6000612d7582612c44565b612d7f8185612c4f565b9350612d8a83612c60565b8060005b83811015612dbb578151612da28882612d45565b9750612dad83612d5d565b925050600181019050612d8e565b5085935050505092915050565b60006020820190508181036000830152612de28184612d6a565b905092915050565b600080600060608486031215612e0357612e02612b46565b5b6000612e1186828701612bef565b9350506020612e2286828701612b6c565b9250506040612e3386828701612b6c565b9150509250925092565b600082825260208201905092915050565b7f4f6e6c7920746865206d61726b6574206f776e65722063616e20706572666f7260008201527f6d207468697320616374696f6e00000000000000000000000000000000000000602082015250565b6000612eaa602d83612e3d565b9150612eb582612e4e565b604082019050919050565b60006020820190508181036000830152612ed981612e9d565b9050919050565b7f4e487b7100000000000000000000000000000000000000000000000000000000600052601160045260246000fd5b6000612f1a82612b4b565b9150612f2583612b4b565b9250828202612f3381612b4b565b91508282048414831517612f4a57612f49612ee0565b5b5092915050565b7f4e487b7100000000000000000000000000000000000000000000000000000000600052601260045260246000fd5b6000612f8b82612b4b565b9150612f9683612b4b565b925082612fa657612fa5612f51565b5b828204905092915050565b7f506c65617365207375626d69742074686520636f727265637420707269636500600082015250565b6000612fe7601f83612e3d565b9150612ff282612fb1565b602082019050919050565b6000602082019050818103600083015261301681612fda565b9050919050565b60006060820190506130326000830186612b1c565b61303f6020830185612b1c565b61304c6040830184612bae565b949350505050565b6000819050919050565b600061307961307461306f84612aea565b613054565b612aea565b9050919050565b600061308b8261305e565b9050919050565b600061309d82613080565b9050919050565b6130ad81613092565b82525050565b6130bc81612caf565b82525050565b600060c0820190506130d76000830189612bae565b6130e46020830188612b1c565b6130f160408301876130a4565b6130fe6060830186612b1c565b61310b6080830185612bae565b61311860a08301846130b3565b979650505050505050565b600061312e82612b4b565b915061313983612b4b565b925082820190508082111561315157613150612ee0565b5b92915050565b600061316282612b4b565b91507fffffffffffffffffffffffffffffffffffffffffffffffffffffffffffffffff820361319457613193612ee0565b5b600182019050919050565b7f4e487b7100000000000000000000000000000000000000000000000000000000600052604160045260246000fd5b7f4e487b7100000000000000000000000000000000000000000000000000000000600052603260045260246000fd5b7f5072696365206d757374206265206174206c6561737420312077656900000000600082015250565b6000613233601c83612e3d565b915061323e826131fd565b602082019050919050565b6000602082019050818103600083015261326281613226565b9050919050565b7f4e6f7420656e6f75676820657468657220666f72206c697374696e6720666565600082015250565b600061329f602083612e3d565b91506132aa82613269565b602082019050919050565b600060208201905081810360008301526132ce81613292565b9050919050565b600060c0820190506132ea6000830189612bae565b6132f76020830188612b1c565b6133046040830187612b1c565b6133116060830186612b1c565b61331e6080830185612bae565b61332b60a08301846130b3565b979650505050505050565b600061334182612b4b565b915061334c83612b4b565b925082820390508181111561336457613363612ee0565b5b92915050565b7f5265656e7472616e637947756172643a207265656e7472616e742063616c6c00600082015250565b60006133a0601f83612e3d565b91506133ab8261336a565b602082019050919050565b600060208201905081810360008301526133cf81613393565b905091905056fea264697066735822122099577c280904d4ee65a105ecaa74ebbd2a5673cdb1ee75ecc37d22e1a87fd1d364736f6c63430008110033",
  "linkReferences": {},
  "deployedLinkReferences": {}
}