{
  "_format": "hh-sol-artifact-1",
  "contractName": "HouseNFT",
  "sourceName": "contracts/HouseNFT.sol",
  "abi": [
    {
      "inputs": [
        {
          "internalType": "address",
          "name": "_marketContract",
          "type": "address"
        }
      ],
      "stateMutability": "nonpayable",
      "type": "constructor"
    },
    {
      "anonymous": false,
      "inputs": [
        {
          "indexed": true,
          "internalType": "address",
          "name": "owner",
          "type": "address"
        },
        {
          "indexed": true,
          "internalType": "address",
          "name": "approved",
          "type": "address"
        },
        {
          "indexed": true,
          "internalType": "uint256",
          "name": "tokenId",
          "type": "uint256"
        }
      ],
      "name": "Approval",
      "type": "event"
    },
    {
      "anonymous": false,
      "inputs": [
        {
          "indexed": true,
          "internalType": "address",
          "name": "owner",
          "type": "address"
        },
        {
          "indexed": true,
          "internalType": "address",
          "name": "operator",
          "type": "address"
        },
        {
          "indexed": false,
          "internalType": "bool",
          "name": "approved",
          "type": "bool"
        }
      ],
      "name": "ApprovalForAll",
      "type": "event"
    },
    {
      "anonymous": false,
      "inputs": [
        {
          "indexed": false,
          "internalType": "uint256",
          "name": "",
          "type": "uint256"
        }
      ],
      "name": "HouseMinted",
      "type": "event"
    },
    {
      "anonymous": false,
      "inputs": [
        {
          "indexed": true,
          "internalType": "address",
          "name": "from",
          "type": "address"
        },
        {
          "indexed": true,
          "internalType": "address",
          "name": "to",
          "type": "address"
        },
        {
          "indexed": true,
          "internalType": "uint256",
          "name": "tokenId",
          "type": "uint256"
        }
      ],
      "name": "Transfer",
      "type": "event"
    },
    {
      "inputs": [
        {
          "internalType": "address",
          "name": "to",
          "type": "address"
        },
        {
          "internalType": "uint256",
          "name": "tokenId",
          "type": "uint256"
        }
      ],
      "name": "approve",
      "outputs": [],
      "stateMutability": "nonpayable",
      "type": "function"
    },
    {
      "inputs": [
        {
          "internalType": "address",
          "name": "owner",
          "type": "address"
        }
      ],
      "name": "balanceOf",
      "outputs": [
        {
          "internalType": "uint256",
          "name": "",
          "type": "uint256"
        }
      ],
      "stateMutability": "view",
      "type": "function"
    },
    {
      "inputs": [
        {
          "internalType": "uint256",
          "name": "tokenId",
          "type": "uint256"
        }
      ],
      "name": "getApproved",
      "outputs": [
        {
          "internalType": "address",
          "name": "",
          "type": "address"
        }
      ],
      "stateMutability": "view",
      "type": "function"
    },
    {
      "inputs": [
        {
          "internalType": "address",
          "name": "owner",
          "type": "address"
        },
        {
          "internalType": "address",
          "name": "operator",
          "type": "address"
        }
      ],
      "name": "isApprovedForAll",
      "outputs": [
        {
          "internalType": "bool",
          "name": "",
          "type": "bool"
        }
      ],
      "stateMutability": "view",
      "type": "function"
    },
    {
      "inputs": [],
      "name": "marketContract",
      "outputs": [
        {
          "internalType": "address",
          "name": "",
          "type": "address"
        }
      ],
      "stateMutability": "view",
      "type": "function"
    },
    {
      "inputs": [
        {
          "internalType": "string",
          "name": "_houseURI",
          "type": "string"
        }
      ],
      "name": "mint",
      "outputs": [],
      "stateMutability": "nonpayable",
      "type": "function"
    },
    {
      "inputs": [],
      "name": "name",
      "outputs": [
        {
          "internalType": "string",
          "name": "",
          "type": "string"
        }
      ],
      "stateMutability": "view",
      "type": "function"
    },
    {
      "inputs": [
        {
          "internalType": "uint256",
          "name": "tokenId",
          "type": "uint256"
        }
      ],
      "name": "ownerOf",
      "outputs": [
        {
          "internalType": "address",
          "name": "",
          "type": "address"
        }
      ],
      "stateMutability": "view",
      "type": "function"
    },
    {
      "inputs": [
        {
          "internalType": "address",
          "name": "from",
          "type": "address"
        },
        {
          "internalType": "address",
          "name": "to",
          "type": "address"
        },
        {
          "internalType": "uint256",
          "name": "tokenId",
          "type": "uint256"
        }
      ],
      "name": "safeTransferFrom",
      "outputs": [],
      "stateMutability": "nonpayable",
      "type": "function"
    },
    {
      "inputs": [
        {
          "internalType": "address",
          "name": "from",
          "type": "address"
        },
        {
          "internalType": "address",
          "name": "to",
          "type": "address"
        },
        {
          "internalType": "uint256",
          "name": "tokenId",
          "type": "uint256"
        },
        {
          "internalType": "bytes",
          "name": "data",
          "type": "bytes"
        }
      ],
      "name": "safeTransferFrom",
      "outputs": [],
      "stateMutability": "nonpayable",
      "type": "function"
    },
    {
      "inputs": [
        {
          "internalType": "address",
          "name": "operator",
          "type": "address"
        },
        {
          "internalType": "bool",
          "name": "approved",
          "type": "bool"
        }
      ],
      "name": "setApprovalForAll",
      "outputs": [],
      "stateMutability": "nonpayable",
      "type": "function"
    },
    {
      "inputs": [
        {
          "internalType": "bytes4",
          "name": "interfaceId",
          "type": "bytes4"
        }
      ],
      "name": "supportsInterface",
      "outputs": [
        {
          "internalType": "bool",
          "name": "",
          "type": "bool"
        }
      ],
      "stateMutability": "view",
      "type": "function"
    },
    {
      "inputs": [],
      "name": "symbol",
      "outputs": [
        {
          "internalType": "string",
          "name": "",
          "type": "string"
        }
      ],
      "stateMutability": "view",
      "type": "function"
    },
    {
      "inputs": [
        {
          "internalType": "uint256",
          "name": "tokenId",
          "type": "uint256"
        }
      ],
      "name": "tokenURI",
      "outputs": [
        {
          "internalType": "string",
          "name": "",
          "type": "string"
        }
      ],
      "stateMutability": "view",
      "type": "function"
    },
    {
      "inputs": [
        {
          "internalType": "address",
          "name": "from",
          "type": "address"
        },
        {
          "internalType": "address",
          "name": "to",
          "type": "address"
        },
        {
          "internalType": "uint256",
          "name": "tokenId",
          "type": "uint256"
        }
      ],
      "name": "transferFrom",
      "outputs": [],
      "stateMutability": "nonpayable",
      "type": "function"
    }
  ],
  "bytecode": "0x60806040523480156200001157600080fd5b50604051620034f8380380620034f883398181016040528101906200003791906200021a565b6040518060400160405280600b81526020017f4e465420496e20446565640000000000000000000000000000000000000000008152506040518060400160405280600381526020017f4e494400000000000000000000000000000000000000000000000000000000008152508160009081620000b49190620004c6565b508060019081620000c69190620004c6565b505050620000fd7ff37cfa79aea893dcdb81a1a8f9c90eccbac2ea58557dde9011a6651aa4c8b6a560001b620001ad60201b60201c565b620001317fbb3b04f65e6730cc754402a0a9b97639a5b76665bf9dd8bb9a86ec588cc7541360001b620001ad60201b60201c565b620001657f9fab5f501f59c5c949e38d450a97c546d8d8142ae8396947e10679729bf8907f60001b620001ad60201b60201c565b80600860006101000a81548173ffffffffffffffffffffffffffffffffffffffff021916908373ffffffffffffffffffffffffffffffffffffffff16021790555050620005ad565b50565b600080fd5b600073ffffffffffffffffffffffffffffffffffffffff82169050919050565b6000620001e282620001b5565b9050919050565b620001f481620001d5565b81146200020057600080fd5b50565b6000815190506200021481620001e9565b92915050565b600060208284031215620002335762000232620001b0565b5b6000620002438482850162000203565b91505092915050565b600081519050919050565b7f4e487b7100000000000000000000000000000000000000000000000000000000600052604160045260246000fd5b7f4e487b7100000000000000000000000000000000000000000000000000000000600052602260045260246000fd5b60006002820490506001821680620002ce57607f821691505b602082108103620002e457620002e362000286565b5b50919050565b60008190508160005260206000209050919050565b60006020601f8301049050919050565b600082821b905092915050565b6000600883026200034e7fffffffffffffffffffffffffffffffffffffffffffffffffffffffffffffffff826200030f565b6200035a86836200030f565b95508019841693508086168417925050509392505050565b6000819050919050565b6000819050919050565b6000620003a7620003a16200039b8462000372565b6200037c565b62000372565b9050919050565b6000819050919050565b620003c38362000386565b620003db620003d282620003ae565b8484546200031c565b825550505050565b600090565b620003f2620003e3565b620003ff818484620003b8565b505050565b5b8181101562000427576200041b600082620003e8565b60018101905062000405565b5050565b601f82111562000476576200044081620002ea565b6200044b84620002ff565b810160208510156200045b578190505b620004736200046a85620002ff565b83018262000404565b50505b505050565b600082821c905092915050565b60006200049b600019846008026200047b565b1980831691505092915050565b6000620004b6838362000488565b9150826002028217905092915050565b620004d1826200024c565b67ffffffffffffffff811115620004ed57620004ec62000257565b5b620004f98254620002b5565b620005068282856200042b565b600060209050601f8311600181146200053e576000841562000529578287015190505b620005358582620004a8565b865550620005a5565b601f1984166200054e86620002ea565b60005b82811015620005785784890151825560018201915060208501945060208101905062000551565b8683101562000598578489015162000594601f89168262000488565b8355505b6001600288020188555050505b505050505050565b612f3b80620005bd6000396000f3fe608060405234801561001057600080fd5b50600436106100f55760003560e01c806370a0823111610097578063b88d4fde11610066578063b88d4fde14610284578063c87b56dd146102a0578063d85d3d27146102d0578063e985e9c5146102ec576100f5565b806370a08231146101fc57806395d89b411461022c578063a1794bcd1461024a578063a22cb46514610268576100f5565b8063095ea7b3116100d3578063095ea7b31461017857806323b872dd1461019457806342842e0e146101b05780636352211e146101cc576100f5565b806301ffc9a7146100fa57806306fdde031461012a578063081812fc14610148575b600080fd5b610114600480360381019061010f9190611da6565b61031c565b6040516101219190611dee565b60405180910390f35b6101326103fe565b60405161013f9190611e99565b60405180910390f35b610162600480360381019061015d9190611ef1565b610490565b60405161016f9190611f5f565b60405180910390f35b610192600480360381019061018d9190611fa6565b6104d6565b005b6101ae60048036038101906101a99190611fe6565b6105ed565b005b6101ca60048036038101906101c59190611fe6565b61064d565b005b6101e660048036038101906101e19190611ef1565b61066d565b6040516101f39190611f5f565b60405180910390f35b61021660048036038101906102119190612039565b6106f3565b6040516102239190612075565b60405180910390f35b6102346107aa565b6040516102419190611e99565b60405180910390f35b61025261083c565b60405161025f9190611f5f565b60405180910390f35b610282600480360381019061027d91906120bc565b610862565b005b61029e60048036038101906102999190612231565b610878565b005b6102ba60048036038101906102b59190611ef1565b6108da565b6040516102c79190611e99565b60405180910390f35b6102ea60048036038101906102e59190612355565b6109ec565b005b6103066004803603810190610301919061239e565b610cbc565b6040516103139190611dee565b60405180910390f35b60007f80ac58cd000000000000000000000000000000000000000000000000000000007bffffffffffffffffffffffffffffffffffffffffffffffffffffffff1916827bffffffffffffffffffffffffffffffffffffffffffffffffffffffff191614806103e757507f5b5e139f000000000000000000000000000000000000000000000000000000007bffffffffffffffffffffffffffffffffffffffffffffffffffffffff1916827bffffffffffffffffffffffffffffffffffffffffffffffffffffffff1916145b806103f757506103f682610d50565b5b9050919050565b60606000805461040d9061240d565b80601f01602080910402602001604051908101604052809291908181526020018280546104399061240d565b80156104865780601f1061045b57610100808354040283529160200191610486565b820191906000526020600020905b81548152906001019060200180831161046957829003601f168201915b5050505050905090565b600061049b82610dba565b6004600083815260200190815260200160002060009054906101000a900473ffffffffffffffffffffffffffffffffffffffff169050919050565b60006104e18261066d565b90508073ffffffffffffffffffffffffffffffffffffffff168373ffffffffffffffffffffffffffffffffffffffff1603610551576040517f08c379a0000000000000000000000000000000000000000000000000000000008152600401610548906124b0565b60405180910390fd5b8073ffffffffffffffffffffffffffffffffffffffff16610570610e05565b73ffffffffffffffffffffffffffffffffffffffff16148061059f575061059e81610599610e05565b610cbc565b5b6105de576040517f08c379a00000000000000000000000000000000000000000000000000000000081526004016105d590612542565b60405180910390fd5b6105e88383610e0d565b505050565b6105fe6105f8610e05565b82610ec6565b61063d576040517f08c379a0000000000000000000000000000000000000000000000000000000008152600401610634906125d4565b60405180910390fd5b610648838383610f5b565b505050565b61066883838360405180602001604052806000815250610878565b505050565b60008061067983611254565b9050600073ffffffffffffffffffffffffffffffffffffffff168173ffffffffffffffffffffffffffffffffffffffff16036106ea576040517f08c379a00000000000000000000000000000000000000000000000000000000081526004016106e190612640565b60405180910390fd5b80915050919050565b60008073ffffffffffffffffffffffffffffffffffffffff168273ffffffffffffffffffffffffffffffffffffffff1603610763576040517f08c379a000000000000000000000000000000000000000000000000000000000815260040161075a906126d2565b60405180910390fd5b600360008373ffffffffffffffffffffffffffffffffffffffff1673ffffffffffffffffffffffffffffffffffffffff168152602001908152602001600020549050919050565b6060600180546107b99061240d565b80601f01602080910402602001604051908101604052809291908181526020018280546107e59061240d565b80156108325780601f1061080757610100808354040283529160200191610832565b820191906000526020600020905b81548152906001019060200180831161081557829003601f168201915b5050505050905090565b600860009054906101000a900473ffffffffffffffffffffffffffffffffffffffff1681565b61087461086d610e05565b8383611291565b5050565b610889610883610e05565b83610ec6565b6108c8576040517f08c379a00000000000000000000000000000000000000000000000000000000081526004016108bf906125d4565b60405180910390fd5b6108d4848484846113fd565b50505050565b60606108e582610dba565b60006006600084815260200190815260200160002080546109059061240d565b80601f01602080910402602001604051908101604052809291908181526020018280546109319061240d565b801561097e5780601f106109535761010080835404028352916020019161097e565b820191906000526020600020905b81548152906001019060200180831161096157829003601f168201915b50505050509050600061098f611459565b905060008151036109a45781925050506109e7565b6000825111156109d95780826040516020016109c192919061272e565b604051602081830303815290604052925050506109e7565b6109e284611470565b925050505b919050565b610a187f2bfa199cf0b61a9d1d8f84daa637c4619c8b08c196bdfda6230e6593d0a6c62560001b6114d8565b610a447f7b4d45a93508e4689272ee9f71cd1ce92c7eafa39c57042087f6a1d251d2a55760001b6114d8565b610a707fd727195f0fbdb021a2ef9ad4a0367ee0ab6b29f8f38fb816b6c28fcc2dde1b5560001b6114d8565b610a7a60076114db565b610aa67f4287245aa7d2f8c840ae34a69eb8e0d830d00741ab2653386ec1a0939481ec5560001b6114d8565b610ad27f6e910b1575d457d530e269a7a4f7d5b42f0678a56a2a683ee25e166d520e386360001b6114d8565b6000610ade60076114f1565b9050610b0c7fc7bf228ac66959f5ce9bb82d98de57ad94c9294a50759d23c2356c7de77022c960001b6114d8565b610b387ff7dde108277296e264909afe31ebb8bca5a9b32eefa89c93464e08e9be2d9e6b60001b6114d8565b610b4233826114ff565b610b6e7fd4d699119037e6de6c04b4fb7bd2fa426294105dfdc661d2c7e6494371bb960e60001b6114d8565b610b9a7f321c5570fea84bd5eda8a12db1bac69304ccf4bc71e20d3cccad8e8f5809b8e560001b6114d8565b610ba4818361151d565b610bd07fa42c18b24851bef9b555e42d8b1b36ea169efffb91344e041786c1ab3f8ccdcd60001b6114d8565b610bfc7ffcf8bdf16c01c6f1d3bcceba863fdfa853af806fd6edca76522089e1c24aaac460001b6114d8565b610c29600860009054906101000a900473ffffffffffffffffffffffffffffffffffffffff166001610862565b610c557fd9c6d161031607fe391b4ac90483aca8b390b4f243ef5cf4884e08bcb005d49c60001b6114d8565b610c817f9487addb1d7248a68d274122962035c75fe831529fc8eebaec7deae21db7903960001b6114d8565b7f6d957d08fff89a28afb3447655a2bb06030082a0d45c691fcf257182c269a39281604051610cb09190612075565b60405180910390a15050565b6000600560008473ffffffffffffffffffffffffffffffffffffffff1673ffffffffffffffffffffffffffffffffffffffff16815260200190815260200160002060008373ffffffffffffffffffffffffffffffffffffffff1673ffffffffffffffffffffffffffffffffffffffff16815260200190815260200160002060009054906101000a900460ff16905092915050565b60007f01ffc9a7000000000000000000000000000000000000000000000000000000007bffffffffffffffffffffffffffffffffffffffffffffffffffffffff1916827bffffffffffffffffffffffffffffffffffffffffffffffffffffffff1916149050919050565b610dc38161158a565b610e02576040517f08c379a0000000000000000000000000000000000000000000000000000000008152600401610df990612640565b60405180910390fd5b50565b600033905090565b816004600083815260200190815260200160002060006101000a81548173ffffffffffffffffffffffffffffffffffffffff021916908373ffffffffffffffffffffffffffffffffffffffff160217905550808273ffffffffffffffffffffffffffffffffffffffff16610e808361066d565b73ffffffffffffffffffffffffffffffffffffffff167f8c5be1e5ebec7d5bd14f71427d1e84f3dd0314c0f7b2291e5b200ac8c7c3b92560405160405180910390a45050565b600080610ed28361066d565b90508073ffffffffffffffffffffffffffffffffffffffff168473ffffffffffffffffffffffffffffffffffffffff161480610f145750610f138185610cbc565b5b80610f5257508373ffffffffffffffffffffffffffffffffffffffff16610f3a84610490565b73ffffffffffffffffffffffffffffffffffffffff16145b91505092915050565b8273ffffffffffffffffffffffffffffffffffffffff16610f7b8261066d565b73ffffffffffffffffffffffffffffffffffffffff1614610fd1576040517f08c379a0000000000000000000000000000000000000000000000000000000008152600401610fc8906127c4565b60405180910390fd5b600073ffffffffffffffffffffffffffffffffffffffff168273ffffffffffffffffffffffffffffffffffffffff1603611040576040517f08c379a000000000000000000000000000000000000000000000000000000000815260040161103790612856565b60405180910390fd5b61104d83838360016115cb565b8273ffffffffffffffffffffffffffffffffffffffff1661106d8261066d565b73ffffffffffffffffffffffffffffffffffffffff16146110c3576040517f08c379a00000000000000000000000000000000000000000000000000000000081526004016110ba906127c4565b60405180910390fd5b6004600082815260200190815260200160002060006101000a81549073ffffffffffffffffffffffffffffffffffffffff02191690556001600360008573ffffffffffffffffffffffffffffffffffffffff1673ffffffffffffffffffffffffffffffffffffffff168152602001908152602001600020600082825403925050819055506001600360008473ffffffffffffffffffffffffffffffffffffffff1673ffffffffffffffffffffffffffffffffffffffff16815260200190815260200160002060008282540192505081905550816002600083815260200190815260200160002060006101000a81548173ffffffffffffffffffffffffffffffffffffffff021916908373ffffffffffffffffffffffffffffffffffffffff160217905550808273ffffffffffffffffffffffffffffffffffffffff168473ffffffffffffffffffffffffffffffffffffffff167fddf252ad1be2c89b69c2b068fc378daa952ba7f163c4a11628f55a4df523b3ef60405160405180910390a461124f83838360016116f1565b505050565b60006002600083815260200190815260200160002060009054906101000a900473ffffffffffffffffffffffffffffffffffffffff169050919050565b8173ffffffffffffffffffffffffffffffffffffffff168373ffffffffffffffffffffffffffffffffffffffff16036112ff576040517f08c379a00000000000000000000000000000000000000000000000000000000081526004016112f6906128c2565b60405180910390fd5b80600560008573ffffffffffffffffffffffffffffffffffffffff1673ffffffffffffffffffffffffffffffffffffffff16815260200190815260200160002060008473ffffffffffffffffffffffffffffffffffffffff1673ffffffffffffffffffffffffffffffffffffffff16815260200190815260200160002060006101000a81548160ff0219169083151502179055508173ffffffffffffffffffffffffffffffffffffffff168373ffffffffffffffffffffffffffffffffffffffff167f17307eab39ab6107e8899845ad3d59bd9653f200f220920489ca2b5937696c31836040516113f09190611dee565b60405180910390a3505050565b611408848484610f5b565b611414848484846116f7565b611453576040517f08c379a000000000000000000000000000000000000000000000000000000000815260040161144a90612954565b60405180910390fd5b50505050565b606060405180602001604052806000815250905090565b606061147b82610dba565b6000611485611459565b905060008151116114a557604051806020016040528060008152506114d0565b806114af8461187e565b6040516020016114c092919061272e565b6040516020818303038152906040525b915050919050565b50565b6001816000016000828254019250508190555050565b600081600001549050919050565b61151982826040518060200160405280600081525061194c565b5050565b6115268261158a565b611565576040517f08c379a000000000000000000000000000000000000000000000000000000000815260040161155c906129e6565b60405180910390fd5b806006600084815260200190815260200160002090816115859190612bb2565b505050565b60008073ffffffffffffffffffffffffffffffffffffffff166115ac83611254565b73ffffffffffffffffffffffffffffffffffffffff1614159050919050565b60018111156116eb57600073ffffffffffffffffffffffffffffffffffffffff168473ffffffffffffffffffffffffffffffffffffffff161461165f5780600360008673ffffffffffffffffffffffffffffffffffffffff1673ffffffffffffffffffffffffffffffffffffffff16815260200190815260200160002060008282546116579190612cb3565b925050819055505b600073ffffffffffffffffffffffffffffffffffffffff168373ffffffffffffffffffffffffffffffffffffffff16146116ea5780600360008573ffffffffffffffffffffffffffffffffffffffff1673ffffffffffffffffffffffffffffffffffffffff16815260200190815260200160002060008282546116e29190612ce7565b925050819055505b5b50505050565b50505050565b60006117188473ffffffffffffffffffffffffffffffffffffffff166119a7565b15611871578373ffffffffffffffffffffffffffffffffffffffff1663150b7a02611741610e05565b8786866040518563ffffffff1660e01b81526004016117639493929190612d70565b6020604051808303816000875af192505050801561179f57506040513d601f19601f8201168201806040525081019061179c9190612dd1565b60015b611821573d80600081146117cf576040519150601f19603f3d011682016040523d82523d6000602084013e6117d4565b606091505b506000815103611819576040517f08c379a000000000000000000000000000000000000000000000000000000000815260040161181090612954565b60405180910390fd5b805181602001fd5b63150b7a0260e01b7bffffffffffffffffffffffffffffffffffffffffffffffffffffffff1916817bffffffffffffffffffffffffffffffffffffffffffffffffffffffff191614915050611876565b600190505b949350505050565b60606000600161188d846119ca565b01905060008167ffffffffffffffff8111156118ac576118ab612106565b5b6040519080825280601f01601f1916602001820160405280156118de5781602001600182028036833780820191505090505b509050600082602001820190505b600115611941578080600190039150507f3031323334353637383961626364656600000000000000000000000000000000600a86061a8153600a858161193557611934612dfe565b5b049450600085036118ec575b819350505050919050565b6119568383611b1d565b61196360008484846116f7565b6119a2576040517f08c379a000000000000000000000000000000000000000000000000000000000815260040161199990612954565b60405180910390fd5b505050565b6000808273ffffffffffffffffffffffffffffffffffffffff163b119050919050565b600080600090507a184f03e93ff9f4daa797ed6e38ed64bf6a1f0100000000000000008310611a28577a184f03e93ff9f4daa797ed6e38ed64bf6a1f0100000000000000008381611a1e57611a1d612dfe565b5b0492506040810190505b6d04ee2d6d415b85acef81000000008310611a65576d04ee2d6d415b85acef81000000008381611a5b57611a5a612dfe565b5b0492506020810190505b662386f26fc100008310611a9457662386f26fc100008381611a8a57611a89612dfe565b5b0492506010810190505b6305f5e1008310611abd576305f5e1008381611ab357611ab2612dfe565b5b0492506008810190505b6127108310611ae2576127108381611ad857611ad7612dfe565b5b0492506004810190505b60648310611b055760648381611afb57611afa612dfe565b5b0492506002810190505b600a8310611b14576001810190505b80915050919050565b600073ffffffffffffffffffffffffffffffffffffffff168273ffffffffffffffffffffffffffffffffffffffff1603611b8c576040517f08c379a0000000000000000000000000000000000000000000000000000000008152600401611b8390612e79565b60405180910390fd5b611b958161158a565b15611bd5576040517f08c379a0000000000000000000000000000000000000000000000000000000008152600401611bcc90612ee5565b60405180910390fd5b611be36000838360016115cb565b611bec8161158a565b15611c2c576040517f08c379a0000000000000000000000000000000000000000000000000000000008152600401611c2390612ee5565b60405180910390fd5b6001600360008473ffffffffffffffffffffffffffffffffffffffff1673ffffffffffffffffffffffffffffffffffffffff16815260200190815260200160002060008282540192505081905550816002600083815260200190815260200160002060006101000a81548173ffffffffffffffffffffffffffffffffffffffff021916908373ffffffffffffffffffffffffffffffffffffffff160217905550808273ffffffffffffffffffffffffffffffffffffffff16600073ffffffffffffffffffffffffffffffffffffffff167fddf252ad1be2c89b69c2b068fc378daa952ba7f163c4a11628f55a4df523b3ef60405160405180910390a4611d366000838360016116f1565b5050565b6000604051905090565b600080fd5b600080fd5b60007fffffffff0000000000000000000000000000000000000000000000000000000082169050919050565b611d8381611d4e565b8114611d8e57600080fd5b50565b600081359050611da081611d7a565b92915050565b600060208284031215611dbc57611dbb611d44565b5b6000611dca84828501611d91565b91505092915050565b60008115159050919050565b611de881611dd3565b82525050565b6000602082019050611e036000830184611ddf565b92915050565b600081519050919050565b600082825260208201905092915050565b60005b83811015611e43578082015181840152602081019050611e28565b60008484015250505050565b6000601f19601f8301169050919050565b6000611e6b82611e09565b611e758185611e14565b9350611e85818560208601611e25565b611e8e81611e4f565b840191505092915050565b60006020820190508181036000830152611eb38184611e60565b905092915050565b6000819050919050565b611ece81611ebb565b8114611ed957600080fd5b50565b600081359050611eeb81611ec5565b92915050565b600060208284031215611f0757611f06611d44565b5b6000611f1584828501611edc565b91505092915050565b600073ffffffffffffffffffffffffffffffffffffffff82169050919050565b6000611f4982611f1e565b9050919050565b611f5981611f3e565b82525050565b6000602082019050611f746000830184611f50565b92915050565b611f8381611f3e565b8114611f8e57600080fd5b50565b600081359050611fa081611f7a565b92915050565b60008060408385031215611fbd57611fbc611d44565b5b6000611fcb85828601611f91565b9250506020611fdc85828601611edc565b9150509250929050565b600080600060608486031215611fff57611ffe611d44565b5b600061200d86828701611f91565b935050602061201e86828701611f91565b925050604061202f86828701611edc565b9150509250925092565b60006020828403121561204f5761204e611d44565b5b600061205d84828501611f91565b91505092915050565b61206f81611ebb565b82525050565b600060208201905061208a6000830184612066565b92915050565b61209981611dd3565b81146120a457600080fd5b50565b6000813590506120b681612090565b92915050565b600080604083850312156120d3576120d2611d44565b5b60006120e185828601611f91565b92505060206120f2858286016120a7565b9150509250929050565b600080fd5b600080fd5b7f4e487b7100000000000000000000000000000000000000000000000000000000600052604160045260246000fd5b61213e82611e4f565b810181811067ffffffffffffffff8211171561215d5761215c612106565b5b80604052505050565b6000612170611d3a565b905061217c8282612135565b919050565b600067ffffffffffffffff82111561219c5761219b612106565b5b6121a582611e4f565b9050602081019050919050565b82818337600083830152505050565b60006121d46121cf84612181565b612166565b9050828152602081018484840111156121f0576121ef612101565b5b6121fb8482856121b2565b509392505050565b600082601f830112612218576122176120fc565b5b81356122288482602086016121c1565b91505092915050565b6000806000806080858703121561224b5761224a611d44565b5b600061225987828801611f91565b945050602061226a87828801611f91565b935050604061227b87828801611edc565b925050606085013567ffffffffffffffff81111561229c5761229b611d49565b5b6122a887828801612203565b91505092959194509250565b600067ffffffffffffffff8211156122cf576122ce612106565b5b6122d882611e4f565b9050602081019050919050565b60006122f86122f3846122b4565b612166565b90508281526020810184848401111561231457612313612101565b5b61231f8482856121b2565b509392505050565b600082601f83011261233c5761233b6120fc565b5b813561234c8482602086016122e5565b91505092915050565b60006020828403121561236b5761236a611d44565b5b600082013567ffffffffffffffff81111561238957612388611d49565b5b61239584828501612327565b91505092915050565b600080604083850312156123b5576123b4611d44565b5b60006123c385828601611f91565b92505060206123d485828601611f91565b9150509250929050565b7f4e487b7100000000000000000000000000000000000000000000000000000000600052602260045260246000fd5b6000600282049050600182168061242557607f821691505b602082108103612438576124376123de565b5b50919050565b7f4552433732313a20617070726f76616c20746f2063757272656e74206f776e6560008201527f7200000000000000000000000000000000000000000000000000000000000000602082015250565b600061249a602183611e14565b91506124a58261243e565b604082019050919050565b600060208201905081810360008301526124c98161248d565b9050919050565b7f4552433732313a20617070726f76652063616c6c6572206973206e6f7420746f60008201527f6b656e206f776e6572206f7220617070726f76656420666f7220616c6c000000602082015250565b600061252c603d83611e14565b9150612537826124d0565b604082019050919050565b6000602082019050818103600083015261255b8161251f565b9050919050565b7f4552433732313a2063616c6c6572206973206e6f7420746f6b656e206f776e6560008201527f72206f7220617070726f76656400000000000000000000000000000000000000602082015250565b60006125be602d83611e14565b91506125c982612562565b604082019050919050565b600060208201905081810360008301526125ed816125b1565b9050919050565b7f4552433732313a20696e76616c696420746f6b656e2049440000000000000000600082015250565b600061262a601883611e14565b9150612635826125f4565b602082019050919050565b600060208201905081810360008301526126598161261d565b9050919050565b7f4552433732313a2061646472657373207a65726f206973206e6f74206120766160008201527f6c6964206f776e65720000000000000000000000000000000000000000000000602082015250565b60006126bc602983611e14565b91506126c782612660565b604082019050919050565b600060208201905081810360008301526126eb816126af565b9050919050565b600081905092915050565b600061270882611e09565b61271281856126f2565b9350612722818560208601611e25565b80840191505092915050565b600061273a82856126fd565b915061274682846126fd565b91508190509392505050565b7f4552433732313a207472616e736665722066726f6d20696e636f72726563742060008201527f6f776e6572000000000000000000000000000000000000000000000000000000602082015250565b60006127ae602583611e14565b91506127b982612752565b604082019050919050565b600060208201905081810360008301526127dd816127a1565b9050919050565b7f4552433732313a207472616e7366657220746f20746865207a65726f2061646460008201527f7265737300000000000000000000000000000000000000000000000000000000602082015250565b6000612840602483611e14565b915061284b826127e4565b604082019050919050565b6000602082019050818103600083015261286f81612833565b9050919050565b7f4552433732313a20617070726f766520746f2063616c6c657200000000000000600082015250565b60006128ac601983611e14565b91506128b782612876565b602082019050919050565b600060208201905081810360008301526128db8161289f565b9050919050565b7f4552433732313a207472616e7366657220746f206e6f6e20455243373231526560008201527f63656976657220696d706c656d656e7465720000000000000000000000000000602082015250565b600061293e603283611e14565b9150612949826128e2565b604082019050919050565b6000602082019050818103600083015261296d81612931565b9050919050565b7f45524337323155524953746f726167653a2055524920736574206f66206e6f6e60008201527f6578697374656e7420746f6b656e000000000000000000000000000000000000602082015250565b60006129d0602e83611e14565b91506129db82612974565b604082019050919050565b600060208201905081810360008301526129ff816129c3565b9050919050565b60008190508160005260206000209050919050565b60006020601f8301049050919050565b600082821b905092915050565b600060088302612a687fffffffffffffffffffffffffffffffffffffffffffffffffffffffffffffffff82612a2b565b612a728683612a2b565b95508019841693508086168417925050509392505050565b6000819050919050565b6000612aaf612aaa612aa584611ebb565b612a8a565b611ebb565b9050919050565b6000819050919050565b612ac983612a94565b612add612ad582612ab6565b848454612a38565b825550505050565b600090565b612af2612ae5565b612afd818484612ac0565b505050565b5b81811015612b2157612b16600082612aea565b600181019050612b03565b5050565b601f821115612b6657612b3781612a06565b612b4084612a1b565b81016020851015612b4f578190505b612b63612b5b85612a1b565b830182612b02565b50505b505050565b600082821c905092915050565b6000612b8960001984600802612b6b565b1980831691505092915050565b6000612ba28383612b78565b9150826002028217905092915050565b612bbb82611e09565b67ffffffffffffffff811115612bd457612bd3612106565b5b612bde825461240d565b612be9828285612b25565b600060209050601f831160018114612c1c5760008415612c0a578287015190505b612c148582612b96565b865550612c7c565b601f198416612c2a86612a06565b60005b82811015612c5257848901518255600182019150602085019450602081019050612c2d565b86831015612c6f5784890151612c6b601f891682612b78565b8355505b6001600288020188555050505b505050505050565b7f4e487b7100000000000000000000000000000000000000000000000000000000600052601160045260246000fd5b6000612cbe82611ebb565b9150612cc983611ebb565b9250828203905081811115612ce157612ce0612c84565b5b92915050565b6000612cf282611ebb565b9150612cfd83611ebb565b9250828201905080821115612d1557612d14612c84565b5b92915050565b600081519050919050565b600082825260208201905092915050565b6000612d4282612d1b565b612d4c8185612d26565b9350612d5c818560208601611e25565b612d6581611e4f565b840191505092915050565b6000608082019050612d856000830187611f50565b612d926020830186611f50565b612d9f6040830185612066565b8181036060830152612db18184612d37565b905095945050505050565b600081519050612dcb81611d7a565b92915050565b600060208284031215612de757612de6611d44565b5b6000612df584828501612dbc565b91505092915050565b7f4e487b7100000000000000000000000000000000000000000000000000000000600052601260045260246000fd5b7f4552433732313a206d696e7420746f20746865207a65726f2061646472657373600082015250565b6000612e63602083611e14565b9150612e6e82612e2d565b602082019050919050565b60006020820190508181036000830152612e9281612e56565b9050919050565b7f4552433732313a20746f6b656e20616c7265616479206d696e74656400000000600082015250565b6000612ecf601c83611e14565b9150612eda82612e99565b602082019050919050565b60006020820190508181036000830152612efe81612ec2565b905091905056fea264697066735822122062196a3afbee263d7c07c3563589e0a3bdede2ef59d733d4dbf6cdd6b5b5ae0c64736f6c63430008110033",
  "linkReferences": {},
  "deployedLinkReferences": {}
}