{
  "_format": "hh-sol-artifact-1",
  "contractName": "HouseNFT",
  "sourceName": "contracts/HouseNFT.sol",
  "abi": [
    {
      "inputs": [
        {
          "internalType": "address",
          "name": "_marketContract",
          "type": "address"
        }
      ],
      "stateMutability": "nonpayable",
      "type": "constructor"
    },
    {
      "anonymous": false,
      "inputs": [
        {
          "indexed": true,
          "internalType": "address",
          "name": "owner",
          "type": "address"
        },
        {
          "indexed": true,
          "internalType": "address",
          "name": "approved",
          "type": "address"
        },
        {
          "indexed": true,
          "internalType": "uint256",
          "name": "tokenId",
          "type": "uint256"
        }
      ],
      "name": "Approval",
      "type": "event"
    },
    {
      "anonymous": false,
      "inputs": [
        {
          "indexed": true,
          "internalType": "address",
          "name": "owner",
          "type": "address"
        },
        {
          "indexed": true,
          "internalType": "address",
          "name": "operator",
          "type": "address"
        },
        {
          "indexed": false,
          "internalType": "bool",
          "name": "approved",
          "type": "bool"
        }
      ],
      "name": "ApprovalForAll",
      "type": "event"
    },
    {
      "anonymous": false,
      "inputs": [
        {
          "indexed": false,
          "internalType": "uint256",
          "name": "",
          "type": "uint256"
        }
      ],
      "name": "HouseMinted",
      "type": "event"
    },
    {
      "anonymous": false,
      "inputs": [
        {
          "indexed": true,
          "internalType": "address",
          "name": "from",
          "type": "address"
        },
        {
          "indexed": true,
          "internalType": "address",
          "name": "to",
          "type": "address"
        },
        {
          "indexed": true,
          "internalType": "uint256",
          "name": "tokenId",
          "type": "uint256"
        }
      ],
      "name": "Transfer",
      "type": "event"
    },
    {
      "inputs": [
        {
          "internalType": "address",
          "name": "to",
          "type": "address"
        },
        {
          "internalType": "uint256",
          "name": "tokenId",
          "type": "uint256"
        }
      ],
      "name": "approve",
      "outputs": [],
      "stateMutability": "nonpayable",
      "type": "function"
    },
    {
      "inputs": [
        {
          "internalType": "address",
          "name": "owner",
          "type": "address"
        }
      ],
      "name": "balanceOf",
      "outputs": [
        {
          "internalType": "uint256",
          "name": "",
          "type": "uint256"
        }
      ],
      "stateMutability": "view",
      "type": "function"
    },
    {
      "inputs": [
        {
          "internalType": "uint256",
          "name": "tokenId",
          "type": "uint256"
        }
      ],
      "name": "getApproved",
      "outputs": [
        {
          "internalType": "address",
          "name": "",
          "type": "address"
        }
      ],
      "stateMutability": "view",
      "type": "function"
    },
    {
      "inputs": [
        {
          "internalType": "address",
          "name": "owner",
          "type": "address"
        },
        {
          "internalType": "address",
          "name": "operator",
          "type": "address"
        }
      ],
      "name": "isApprovedForAll",
      "outputs": [
        {
          "internalType": "bool",
          "name": "",
          "type": "bool"
        }
      ],
      "stateMutability": "view",
      "type": "function"
    },
    {
      "inputs": [],
      "name": "marketContract",
      "outputs": [
        {
          "internalType": "address",
          "name": "",
          "type": "address"
        }
      ],
      "stateMutability": "view",
      "type": "function"
    },
    {
      "inputs": [
        {
          "internalType": "string",
          "name": "_houseURI",
          "type": "string"
        }
      ],
      "name": "mint",
      "outputs": [],
      "stateMutability": "nonpayable",
      "type": "function"
    },
    {
      "inputs": [],
      "name": "name",
      "outputs": [
        {
          "internalType": "string",
          "name": "",
          "type": "string"
        }
      ],
      "stateMutability": "view",
      "type": "function"
    },
    {
      "inputs": [
        {
          "internalType": "uint256",
          "name": "tokenId",
          "type": "uint256"
        }
      ],
      "name": "ownerOf",
      "outputs": [
        {
          "internalType": "address",
          "name": "",
          "type": "address"
        }
      ],
      "stateMutability": "view",
      "type": "function"
    },
    {
      "inputs": [
        {
          "internalType": "address",
          "name": "from",
          "type": "address"
        },
        {
          "internalType": "address",
          "name": "to",
          "type": "address"
        },
        {
          "internalType": "uint256",
          "name": "tokenId",
          "type": "uint256"
        }
      ],
      "name": "safeTransferFrom",
      "outputs": [],
      "stateMutability": "nonpayable",
      "type": "function"
    },
    {
      "inputs": [
        {
          "internalType": "address",
          "name": "from",
          "type": "address"
        },
        {
          "internalType": "address",
          "name": "to",
          "type": "address"
        },
        {
          "internalType": "uint256",
          "name": "tokenId",
          "type": "uint256"
        },
        {
          "internalType": "bytes",
          "name": "data",
          "type": "bytes"
        }
      ],
      "name": "safeTransferFrom",
      "outputs": [],
      "stateMutability": "nonpayable",
      "type": "function"
    },
    {
      "inputs": [
        {
          "internalType": "address",
          "name": "operator",
          "type": "address"
        },
        {
          "internalType": "bool",
          "name": "approved",
          "type": "bool"
        }
      ],
      "name": "setApprovalForAll",
      "outputs": [],
      "stateMutability": "nonpayable",
      "type": "function"
    },
    {
      "inputs": [
        {
          "internalType": "bytes4",
          "name": "interfaceId",
          "type": "bytes4"
        }
      ],
      "name": "supportsInterface",
      "outputs": [
        {
          "internalType": "bool",
          "name": "",
          "type": "bool"
        }
      ],
      "stateMutability": "view",
      "type": "function"
    },
    {
      "inputs": [],
      "name": "symbol",
      "outputs": [
        {
          "internalType": "string",
          "name": "",
          "type": "string"
        }
      ],
      "stateMutability": "view",
      "type": "function"
    },
    {
      "inputs": [
        {
          "internalType": "uint256",
          "name": "tokenId",
          "type": "uint256"
        }
      ],
      "name": "tokenURI",
      "outputs": [
        {
          "internalType": "string",
          "name": "",
          "type": "string"
        }
      ],
      "stateMutability": "view",
      "type": "function"
    },
    {
      "inputs": [
        {
          "internalType": "address",
          "name": "from",
          "type": "address"
        },
        {
          "internalType": "address",
          "name": "to",
          "type": "address"
        },
        {
          "internalType": "uint256",
          "name": "tokenId",
          "type": "uint256"
        }
      ],
      "name": "transferFrom",
      "outputs": [],
      "stateMutability": "nonpayable",
      "type": "function"
    }
  ],
  "bytecode": "0x60806040523480156200001157600080fd5b506040516200321a3803806200321a83398181016040528101906200003791906200017b565b6040518060400160405280600b81526020017f4e465420496e20446565640000000000000000000000000000000000000000008152506040518060400160405280600381526020017f4e494400000000000000000000000000000000000000000000000000000000008152508160009081620000b4919062000427565b508060019081620000c6919062000427565b50505080600860006101000a81548173ffffffffffffffffffffffffffffffffffffffff021916908373ffffffffffffffffffffffffffffffffffffffff160217905550506200050e565b600080fd5b600073ffffffffffffffffffffffffffffffffffffffff82169050919050565b6000620001438262000116565b9050919050565b620001558162000136565b81146200016157600080fd5b50565b60008151905062000175816200014a565b92915050565b60006020828403121562000194576200019362000111565b5b6000620001a48482850162000164565b91505092915050565b600081519050919050565b7f4e487b7100000000000000000000000000000000000000000000000000000000600052604160045260246000fd5b7f4e487b7100000000000000000000000000000000000000000000000000000000600052602260045260246000fd5b600060028204905060018216806200022f57607f821691505b602082108103620002455762000244620001e7565b5b50919050565b60008190508160005260206000209050919050565b60006020601f8301049050919050565b600082821b905092915050565b600060088302620002af7fffffffffffffffffffffffffffffffffffffffffffffffffffffffffffffffff8262000270565b620002bb868362000270565b95508019841693508086168417925050509392505050565b6000819050919050565b6000819050919050565b60006200030862000302620002fc84620002d3565b620002dd565b620002d3565b9050919050565b6000819050919050565b6200032483620002e7565b6200033c62000333826200030f565b8484546200027d565b825550505050565b600090565b6200035362000344565b6200036081848462000319565b505050565b5b8181101562000388576200037c60008262000349565b60018101905062000366565b5050565b601f821115620003d757620003a1816200024b565b620003ac8462000260565b81016020851015620003bc578190505b620003d4620003cb8562000260565b83018262000365565b50505b505050565b600082821c905092915050565b6000620003fc60001984600802620003dc565b1980831691505092915050565b6000620004178383620003e9565b9150826002028217905092915050565b6200043282620001ad565b67ffffffffffffffff8111156200044e576200044d620001b8565b5b6200045a825462000216565b620004678282856200038c565b600060209050601f8311600181146200049f57600084156200048a578287015190505b62000496858262000409565b86555062000506565b601f198416620004af866200024b565b60005b82811015620004d957848901518255600182019150602085019450602081019050620004b2565b86831015620004f95784890151620004f5601f891682620003e9565b8355505b6001600288020188555050505b505050505050565b612cfc806200051e6000396000f3fe608060405234801561001057600080fd5b50600436106100f55760003560e01c806370a0823111610097578063b88d4fde11610066578063b88d4fde14610284578063c87b56dd146102a0578063d85d3d27146102d0578063e985e9c5146102ec576100f5565b806370a08231146101fc57806395d89b411461022c578063a1794bcd1461024a578063a22cb46514610268576100f5565b8063095ea7b3116100d3578063095ea7b31461017857806323b872dd1461019457806342842e0e146101b05780636352211e146101cc576100f5565b806301ffc9a7146100fa57806306fdde031461012a578063081812fc14610148575b600080fd5b610114600480360381019061010f9190611b67565b61031c565b6040516101219190611baf565b60405180910390f35b6101326103fe565b60405161013f9190611c5a565b60405180910390f35b610162600480360381019061015d9190611cb2565b610490565b60405161016f9190611d20565b60405180910390f35b610192600480360381019061018d9190611d67565b6104d6565b005b6101ae60048036038101906101a99190611da7565b6105ed565b005b6101ca60048036038101906101c59190611da7565b61064d565b005b6101e660048036038101906101e19190611cb2565b61066d565b6040516101f39190611d20565b60405180910390f35b61021660048036038101906102119190611dfa565b6106f3565b6040516102239190611e36565b60405180910390f35b6102346107aa565b6040516102419190611c5a565b60405180910390f35b61025261083c565b60405161025f9190611d20565b60405180910390f35b610282600480360381019061027d9190611e7d565b610862565b005b61029e60048036038101906102999190611ff2565b610878565b005b6102ba60048036038101906102b59190611cb2565b6108da565b6040516102c79190611c5a565b60405180910390f35b6102ea60048036038101906102e59190612116565b6109ec565b005b6103066004803603810190610301919061215f565b610a80565b6040516103139190611baf565b60405180910390f35b60007f80ac58cd000000000000000000000000000000000000000000000000000000007bffffffffffffffffffffffffffffffffffffffffffffffffffffffff1916827bffffffffffffffffffffffffffffffffffffffffffffffffffffffff191614806103e757507f5b5e139f000000000000000000000000000000000000000000000000000000007bffffffffffffffffffffffffffffffffffffffffffffffffffffffff1916827bffffffffffffffffffffffffffffffffffffffffffffffffffffffff1916145b806103f757506103f682610b14565b5b9050919050565b60606000805461040d906121ce565b80601f0160208091040260200160405190810160405280929190818152602001828054610439906121ce565b80156104865780601f1061045b57610100808354040283529160200191610486565b820191906000526020600020905b81548152906001019060200180831161046957829003601f168201915b5050505050905090565b600061049b82610b7e565b6004600083815260200190815260200160002060009054906101000a900473ffffffffffffffffffffffffffffffffffffffff169050919050565b60006104e18261066d565b90508073ffffffffffffffffffffffffffffffffffffffff168373ffffffffffffffffffffffffffffffffffffffff1603610551576040517f08c379a000000000000000000000000000000000000000000000000000000000815260040161054890612271565b60405180910390fd5b8073ffffffffffffffffffffffffffffffffffffffff16610570610bc9565b73ffffffffffffffffffffffffffffffffffffffff16148061059f575061059e81610599610bc9565b610a80565b5b6105de576040517f08c379a00000000000000000000000000000000000000000000000000000000081526004016105d590612303565b60405180910390fd5b6105e88383610bd1565b505050565b6105fe6105f8610bc9565b82610c8a565b61063d576040517f08c379a000000000000000000000000000000000000000000000000000000000815260040161063490612395565b60405180910390fd5b610648838383610d1f565b505050565b61066883838360405180602001604052806000815250610878565b505050565b60008061067983611018565b9050600073ffffffffffffffffffffffffffffffffffffffff168173ffffffffffffffffffffffffffffffffffffffff16036106ea576040517f08c379a00000000000000000000000000000000000000000000000000000000081526004016106e190612401565b60405180910390fd5b80915050919050565b60008073ffffffffffffffffffffffffffffffffffffffff168273ffffffffffffffffffffffffffffffffffffffff1603610763576040517f08c379a000000000000000000000000000000000000000000000000000000000815260040161075a90612493565b60405180910390fd5b600360008373ffffffffffffffffffffffffffffffffffffffff1673ffffffffffffffffffffffffffffffffffffffff168152602001908152602001600020549050919050565b6060600180546107b9906121ce565b80601f01602080910402602001604051908101604052809291908181526020018280546107e5906121ce565b80156108325780601f1061080757610100808354040283529160200191610832565b820191906000526020600020905b81548152906001019060200180831161081557829003601f168201915b5050505050905090565b600860009054906101000a900473ffffffffffffffffffffffffffffffffffffffff1681565b61087461086d610bc9565b8383611055565b5050565b610889610883610bc9565b83610c8a565b6108c8576040517f08c379a00000000000000000000000000000000000000000000000000000000081526004016108bf90612395565b60405180910390fd5b6108d4848484846111c1565b50505050565b60606108e582610b7e565b6000600660008481526020019081526020016000208054610905906121ce565b80601f0160208091040260200160405190810160405280929190818152602001828054610931906121ce565b801561097e5780601f106109535761010080835404028352916020019161097e565b820191906000526020600020905b81548152906001019060200180831161096157829003601f168201915b50505050509050600061098f61121d565b905060008151036109a45781925050506109e7565b6000825111156109d95780826040516020016109c19291906124ef565b604051602081830303815290604052925050506109e7565b6109e284611234565b925050505b919050565b6109f6600761129c565b6000610a0260076112b2565b9050610a0e33826112c0565b610a1881836112de565b610a45600860009054906101000a900473ffffffffffffffffffffffffffffffffffffffff166001610862565b7f6d957d08fff89a28afb3447655a2bb06030082a0d45c691fcf257182c269a39281604051610a749190611e36565b60405180910390a15050565b6000600560008473ffffffffffffffffffffffffffffffffffffffff1673ffffffffffffffffffffffffffffffffffffffff16815260200190815260200160002060008373ffffffffffffffffffffffffffffffffffffffff1673ffffffffffffffffffffffffffffffffffffffff16815260200190815260200160002060009054906101000a900460ff16905092915050565b60007f01ffc9a7000000000000000000000000000000000000000000000000000000007bffffffffffffffffffffffffffffffffffffffffffffffffffffffff1916827bffffffffffffffffffffffffffffffffffffffffffffffffffffffff1916149050919050565b610b878161134b565b610bc6576040517f08c379a0000000000000000000000000000000000000000000000000000000008152600401610bbd90612401565b60405180910390fd5b50565b600033905090565b816004600083815260200190815260200160002060006101000a81548173ffffffffffffffffffffffffffffffffffffffff021916908373ffffffffffffffffffffffffffffffffffffffff160217905550808273ffffffffffffffffffffffffffffffffffffffff16610c448361066d565b73ffffffffffffffffffffffffffffffffffffffff167f8c5be1e5ebec7d5bd14f71427d1e84f3dd0314c0f7b2291e5b200ac8c7c3b92560405160405180910390a45050565b600080610c968361066d565b90508073ffffffffffffffffffffffffffffffffffffffff168473ffffffffffffffffffffffffffffffffffffffff161480610cd85750610cd78185610a80565b5b80610d1657508373ffffffffffffffffffffffffffffffffffffffff16610cfe84610490565b73ffffffffffffffffffffffffffffffffffffffff16145b91505092915050565b8273ffffffffffffffffffffffffffffffffffffffff16610d3f8261066d565b73ffffffffffffffffffffffffffffffffffffffff1614610d95576040517f08c379a0000000000000000000000000000000000000000000000000000000008152600401610d8c90612585565b60405180910390fd5b600073ffffffffffffffffffffffffffffffffffffffff168273ffffffffffffffffffffffffffffffffffffffff1603610e04576040517f08c379a0000000000000000000000000000000000000000000000000000000008152600401610dfb90612617565b60405180910390fd5b610e11838383600161138c565b8273ffffffffffffffffffffffffffffffffffffffff16610e318261066d565b73ffffffffffffffffffffffffffffffffffffffff1614610e87576040517f08c379a0000000000000000000000000000000000000000000000000000000008152600401610e7e90612585565b60405180910390fd5b6004600082815260200190815260200160002060006101000a81549073ffffffffffffffffffffffffffffffffffffffff02191690556001600360008573ffffffffffffffffffffffffffffffffffffffff1673ffffffffffffffffffffffffffffffffffffffff168152602001908152602001600020600082825403925050819055506001600360008473ffffffffffffffffffffffffffffffffffffffff1673ffffffffffffffffffffffffffffffffffffffff16815260200190815260200160002060008282540192505081905550816002600083815260200190815260200160002060006101000a81548173ffffffffffffffffffffffffffffffffffffffff021916908373ffffffffffffffffffffffffffffffffffffffff160217905550808273ffffffffffffffffffffffffffffffffffffffff168473ffffffffffffffffffffffffffffffffffffffff167fddf252ad1be2c89b69c2b068fc378daa952ba7f163c4a11628f55a4df523b3ef60405160405180910390a461101383838360016114b2565b505050565b60006002600083815260200190815260200160002060009054906101000a900473ffffffffffffffffffffffffffffffffffffffff169050919050565b8173ffffffffffffffffffffffffffffffffffffffff168373ffffffffffffffffffffffffffffffffffffffff16036110c3576040517f08c379a00000000000000000000000000000000000000000000000000000000081526004016110ba90612683565b60405180910390fd5b80600560008573ffffffffffffffffffffffffffffffffffffffff1673ffffffffffffffffffffffffffffffffffffffff16815260200190815260200160002060008473ffffffffffffffffffffffffffffffffffffffff1673ffffffffffffffffffffffffffffffffffffffff16815260200190815260200160002060006101000a81548160ff0219169083151502179055508173ffffffffffffffffffffffffffffffffffffffff168373ffffffffffffffffffffffffffffffffffffffff167f17307eab39ab6107e8899845ad3d59bd9653f200f220920489ca2b5937696c31836040516111b49190611baf565b60405180910390a3505050565b6111cc848484610d1f565b6111d8848484846114b8565b611217576040517f08c379a000000000000000000000000000000000000000000000000000000000815260040161120e90612715565b60405180910390fd5b50505050565b606060405180602001604052806000815250905090565b606061123f82610b7e565b600061124961121d565b905060008151116112695760405180602001604052806000815250611294565b806112738461163f565b6040516020016112849291906124ef565b6040516020818303038152906040525b915050919050565b6001816000016000828254019250508190555050565b600081600001549050919050565b6112da82826040518060200160405280600081525061170d565b5050565b6112e78261134b565b611326576040517f08c379a000000000000000000000000000000000000000000000000000000000815260040161131d906127a7565b60405180910390fd5b806006600084815260200190815260200160002090816113469190612973565b505050565b60008073ffffffffffffffffffffffffffffffffffffffff1661136d83611018565b73ffffffffffffffffffffffffffffffffffffffff1614159050919050565b60018111156114ac57600073ffffffffffffffffffffffffffffffffffffffff168473ffffffffffffffffffffffffffffffffffffffff16146114205780600360008673ffffffffffffffffffffffffffffffffffffffff1673ffffffffffffffffffffffffffffffffffffffff16815260200190815260200160002060008282546114189190612a74565b925050819055505b600073ffffffffffffffffffffffffffffffffffffffff168373ffffffffffffffffffffffffffffffffffffffff16146114ab5780600360008573ffffffffffffffffffffffffffffffffffffffff1673ffffffffffffffffffffffffffffffffffffffff16815260200190815260200160002060008282546114a39190612aa8565b925050819055505b5b50505050565b50505050565b60006114d98473ffffffffffffffffffffffffffffffffffffffff16611768565b15611632578373ffffffffffffffffffffffffffffffffffffffff1663150b7a02611502610bc9565b8786866040518563ffffffff1660e01b81526004016115249493929190612b31565b6020604051808303816000875af192505050801561156057506040513d601f19601f8201168201806040525081019061155d9190612b92565b60015b6115e2573d8060008114611590576040519150601f19603f3d011682016040523d82523d6000602084013e611595565b606091505b5060008151036115da576040517f08c379a00000000000000000000000000000000000000000000000000000000081526004016115d190612715565b60405180910390fd5b805181602001fd5b63150b7a0260e01b7bffffffffffffffffffffffffffffffffffffffffffffffffffffffff1916817bffffffffffffffffffffffffffffffffffffffffffffffffffffffff191614915050611637565b600190505b949350505050565b60606000600161164e8461178b565b01905060008167ffffffffffffffff81111561166d5761166c611ec7565b5b6040519080825280601f01601f19166020018201604052801561169f5781602001600182028036833780820191505090505b509050600082602001820190505b600115611702578080600190039150507f3031323334353637383961626364656600000000000000000000000000000000600a86061a8153600a85816116f6576116f5612bbf565b5b049450600085036116ad575b819350505050919050565b61171783836118de565b61172460008484846114b8565b611763576040517f08c379a000000000000000000000000000000000000000000000000000000000815260040161175a90612715565b60405180910390fd5b505050565b6000808273ffffffffffffffffffffffffffffffffffffffff163b119050919050565b600080600090507a184f03e93ff9f4daa797ed6e38ed64bf6a1f01000000000000000083106117e9577a184f03e93ff9f4daa797ed6e38ed64bf6a1f01000000000000000083816117df576117de612bbf565b5b0492506040810190505b6d04ee2d6d415b85acef81000000008310611826576d04ee2d6d415b85acef8100000000838161181c5761181b612bbf565b5b0492506020810190505b662386f26fc10000831061185557662386f26fc10000838161184b5761184a612bbf565b5b0492506010810190505b6305f5e100831061187e576305f5e100838161187457611873612bbf565b5b0492506008810190505b61271083106118a357612710838161189957611898612bbf565b5b0492506004810190505b606483106118c657606483816118bc576118bb612bbf565b5b0492506002810190505b600a83106118d5576001810190505b80915050919050565b600073ffffffffffffffffffffffffffffffffffffffff168273ffffffffffffffffffffffffffffffffffffffff160361194d576040517f08c379a000000000000000000000000000000000000000000000000000000000815260040161194490612c3a565b60405180910390fd5b6119568161134b565b15611996576040517f08c379a000000000000000000000000000000000000000000000000000000000815260040161198d90612ca6565b60405180910390fd5b6119a460008383600161138c565b6119ad8161134b565b156119ed576040517f08c379a00000000000000000000000000000000000000000000000000000000081526004016119e490612ca6565b60405180910390fd5b6001600360008473ffffffffffffffffffffffffffffffffffffffff1673ffffffffffffffffffffffffffffffffffffffff16815260200190815260200160002060008282540192505081905550816002600083815260200190815260200160002060006101000a81548173ffffffffffffffffffffffffffffffffffffffff021916908373ffffffffffffffffffffffffffffffffffffffff160217905550808273ffffffffffffffffffffffffffffffffffffffff16600073ffffffffffffffffffffffffffffffffffffffff167fddf252ad1be2c89b69c2b068fc378daa952ba7f163c4a11628f55a4df523b3ef60405160405180910390a4611af76000838360016114b2565b5050565b6000604051905090565b600080fd5b600080fd5b60007fffffffff0000000000000000000000000000000000000000000000000000000082169050919050565b611b4481611b0f565b8114611b4f57600080fd5b50565b600081359050611b6181611b3b565b92915050565b600060208284031215611b7d57611b7c611b05565b5b6000611b8b84828501611b52565b91505092915050565b60008115159050919050565b611ba981611b94565b82525050565b6000602082019050611bc46000830184611ba0565b92915050565b600081519050919050565b600082825260208201905092915050565b60005b83811015611c04578082015181840152602081019050611be9565b60008484015250505050565b6000601f19601f8301169050919050565b6000611c2c82611bca565b611c368185611bd5565b9350611c46818560208601611be6565b611c4f81611c10565b840191505092915050565b60006020820190508181036000830152611c748184611c21565b905092915050565b6000819050919050565b611c8f81611c7c565b8114611c9a57600080fd5b50565b600081359050611cac81611c86565b92915050565b600060208284031215611cc857611cc7611b05565b5b6000611cd684828501611c9d565b91505092915050565b600073ffffffffffffffffffffffffffffffffffffffff82169050919050565b6000611d0a82611cdf565b9050919050565b611d1a81611cff565b82525050565b6000602082019050611d356000830184611d11565b92915050565b611d4481611cff565b8114611d4f57600080fd5b50565b600081359050611d6181611d3b565b92915050565b60008060408385031215611d7e57611d7d611b05565b5b6000611d8c85828601611d52565b9250506020611d9d85828601611c9d565b9150509250929050565b600080600060608486031215611dc057611dbf611b05565b5b6000611dce86828701611d52565b9350506020611ddf86828701611d52565b9250506040611df086828701611c9d565b9150509250925092565b600060208284031215611e1057611e0f611b05565b5b6000611e1e84828501611d52565b91505092915050565b611e3081611c7c565b82525050565b6000602082019050611e4b6000830184611e27565b92915050565b611e5a81611b94565b8114611e6557600080fd5b50565b600081359050611e7781611e51565b92915050565b60008060408385031215611e9457611e93611b05565b5b6000611ea285828601611d52565b9250506020611eb385828601611e68565b9150509250929050565b600080fd5b600080fd5b7f4e487b7100000000000000000000000000000000000000000000000000000000600052604160045260246000fd5b611eff82611c10565b810181811067ffffffffffffffff82111715611f1e57611f1d611ec7565b5b80604052505050565b6000611f31611afb565b9050611f3d8282611ef6565b919050565b600067ffffffffffffffff821115611f5d57611f5c611ec7565b5b611f6682611c10565b9050602081019050919050565b82818337600083830152505050565b6000611f95611f9084611f42565b611f27565b905082815260208101848484011115611fb157611fb0611ec2565b5b611fbc848285611f73565b509392505050565b600082601f830112611fd957611fd8611ebd565b5b8135611fe9848260208601611f82565b91505092915050565b6000806000806080858703121561200c5761200b611b05565b5b600061201a87828801611d52565b945050602061202b87828801611d52565b935050604061203c87828801611c9d565b925050606085013567ffffffffffffffff81111561205d5761205c611b0a565b5b61206987828801611fc4565b91505092959194509250565b600067ffffffffffffffff8211156120905761208f611ec7565b5b61209982611c10565b9050602081019050919050565b60006120b96120b484612075565b611f27565b9050828152602081018484840111156120d5576120d4611ec2565b5b6120e0848285611f73565b509392505050565b600082601f8301126120fd576120fc611ebd565b5b813561210d8482602086016120a6565b91505092915050565b60006020828403121561212c5761212b611b05565b5b600082013567ffffffffffffffff81111561214a57612149611b0a565b5b612156848285016120e8565b91505092915050565b6000806040838503121561217657612175611b05565b5b600061218485828601611d52565b925050602061219585828601611d52565b9150509250929050565b7f4e487b7100000000000000000000000000000000000000000000000000000000600052602260045260246000fd5b600060028204905060018216806121e657607f821691505b6020821081036121f9576121f861219f565b5b50919050565b7f4552433732313a20617070726f76616c20746f2063757272656e74206f776e6560008201527f7200000000000000000000000000000000000000000000000000000000000000602082015250565b600061225b602183611bd5565b9150612266826121ff565b604082019050919050565b6000602082019050818103600083015261228a8161224e565b9050919050565b7f4552433732313a20617070726f76652063616c6c6572206973206e6f7420746f60008201527f6b656e206f776e6572206f7220617070726f76656420666f7220616c6c000000602082015250565b60006122ed603d83611bd5565b91506122f882612291565b604082019050919050565b6000602082019050818103600083015261231c816122e0565b9050919050565b7f4552433732313a2063616c6c6572206973206e6f7420746f6b656e206f776e6560008201527f72206f7220617070726f76656400000000000000000000000000000000000000602082015250565b600061237f602d83611bd5565b915061238a82612323565b604082019050919050565b600060208201905081810360008301526123ae81612372565b9050919050565b7f4552433732313a20696e76616c696420746f6b656e2049440000000000000000600082015250565b60006123eb601883611bd5565b91506123f6826123b5565b602082019050919050565b6000602082019050818103600083015261241a816123de565b9050919050565b7f4552433732313a2061646472657373207a65726f206973206e6f74206120766160008201527f6c6964206f776e65720000000000000000000000000000000000000000000000602082015250565b600061247d602983611bd5565b915061248882612421565b604082019050919050565b600060208201905081810360008301526124ac81612470565b9050919050565b600081905092915050565b60006124c982611bca565b6124d381856124b3565b93506124e3818560208601611be6565b80840191505092915050565b60006124fb82856124be565b915061250782846124be565b91508190509392505050565b7f4552433732313a207472616e736665722066726f6d20696e636f72726563742060008201527f6f776e6572000000000000000000000000000000000000000000000000000000602082015250565b600061256f602583611bd5565b915061257a82612513565b604082019050919050565b6000602082019050818103600083015261259e81612562565b9050919050565b7f4552433732313a207472616e7366657220746f20746865207a65726f2061646460008201527f7265737300000000000000000000000000000000000000000000000000000000602082015250565b6000612601602483611bd5565b915061260c826125a5565b604082019050919050565b60006020820190508181036000830152612630816125f4565b9050919050565b7f4552433732313a20617070726f766520746f2063616c6c657200000000000000600082015250565b600061266d601983611bd5565b915061267882612637565b602082019050919050565b6000602082019050818103600083015261269c81612660565b9050919050565b7f4552433732313a207472616e7366657220746f206e6f6e20455243373231526560008201527f63656976657220696d706c656d656e7465720000000000000000000000000000602082015250565b60006126ff603283611bd5565b915061270a826126a3565b604082019050919050565b6000602082019050818103600083015261272e816126f2565b9050919050565b7f45524337323155524953746f726167653a2055524920736574206f66206e6f6e60008201527f6578697374656e7420746f6b656e000000000000000000000000000000000000602082015250565b6000612791602e83611bd5565b915061279c82612735565b604082019050919050565b600060208201905081810360008301526127c081612784565b9050919050565b60008190508160005260206000209050919050565b60006020601f8301049050919050565b600082821b905092915050565b6000600883026128297fffffffffffffffffffffffffffffffffffffffffffffffffffffffffffffffff826127ec565b61283386836127ec565b95508019841693508086168417925050509392505050565b6000819050919050565b600061287061286b61286684611c7c565b61284b565b611c7c565b9050919050565b6000819050919050565b61288a83612855565b61289e61289682612877565b8484546127f9565b825550505050565b600090565b6128b36128a6565b6128be818484612881565b505050565b5b818110156128e2576128d76000826128ab565b6001810190506128c4565b5050565b601f821115612927576128f8816127c7565b612901846127dc565b81016020851015612910578190505b61292461291c856127dc565b8301826128c3565b50505b505050565b600082821c905092915050565b600061294a6000198460080261292c565b1980831691505092915050565b60006129638383612939565b9150826002028217905092915050565b61297c82611bca565b67ffffffffffffffff81111561299557612994611ec7565b5b61299f82546121ce565b6129aa8282856128e6565b600060209050601f8311600181146129dd57600084156129cb578287015190505b6129d58582612957565b865550612a3d565b601f1984166129eb866127c7565b60005b82811015612a13578489015182556001820191506020850194506020810190506129ee565b86831015612a305784890151612a2c601f891682612939565b8355505b6001600288020188555050505b505050505050565b7f4e487b7100000000000000000000000000000000000000000000000000000000600052601160045260246000fd5b6000612a7f82611c7c565b9150612a8a83611c7c565b9250828203905081811115612aa257612aa1612a45565b5b92915050565b6000612ab382611c7c565b9150612abe83611c7c565b9250828201905080821115612ad657612ad5612a45565b5b92915050565b600081519050919050565b600082825260208201905092915050565b6000612b0382612adc565b612b0d8185612ae7565b9350612b1d818560208601611be6565b612b2681611c10565b840191505092915050565b6000608082019050612b466000830187611d11565b612b536020830186611d11565b612b606040830185611e27565b8181036060830152612b728184612af8565b905095945050505050565b600081519050612b8c81611b3b565b92915050565b600060208284031215612ba857612ba7611b05565b5b6000612bb684828501612b7d565b91505092915050565b7f4e487b7100000000000000000000000000000000000000000000000000000000600052601260045260246000fd5b7f4552433732313a206d696e7420746f20746865207a65726f2061646472657373600082015250565b6000612c24602083611bd5565b9150612c2f82612bee565b602082019050919050565b60006020820190508181036000830152612c5381612c17565b9050919050565b7f4552433732313a20746f6b656e20616c7265616479206d696e74656400000000600082015250565b6000612c90601c83611bd5565b9150612c9b82612c5a565b602082019050919050565b60006020820190508181036000830152612cbf81612c83565b905091905056fea26469706673582212206a24d63b2f56571df436313f7a5af97d7ab1360e32cae19fef81c4cd319ecfdb64736f6c63430008110033",
  "linkReferences": {},
  "deployedLinkReferences": {}
}